:020000040800F2
:10000000100E00200D010008DD270008472500081C
:1000100091270008890700088D2E000800000000C5
:100020000000000000000000000000009929000806
:10003000C907000800000000E12700089B2900080C
:1000400027010008270100082701000827010008F0
:1000500027010008270100082701000827010008E0
:1000600027010008270100082701000827010008D0
:1000700027010008270100082701000827010008C0
:100080008D07000827010008270100082701000844
:1000900027010008270100082701000827010008A0
:1000A000270100080D2A0008270100082701000881
:1000B0002701000827010008270100082701000880
:1000C0002701000827010008270100082701000870
:1000D0002701000827010008492E00082701000811
:1000E000270100082701000827010008DFF810D0C9
:1000F00000F090F8004800473D370008AFF300805B
:10010000100E002080F308887047000006488047E2
:1001100006480047FEE7FEE7FEE7FEE7FEE7FEE7EC
:10012000FEE7FEE7FEE7FEE7092A0008ED0000080B
:10013000202A04DB203A21FA02F00021704721FA3C
:1001400002F3D040C2F120029140084319467047A3
:1001500040EA01039B0703D009E008C9121F08C049
:10016000042AFAD203E011F8013B00F8013B521EC9
:10017000F9D27047D2B201E000F8012B491EFBD240
:1001800070470022F6E710B513460A4604461946A2
:10019000FFF7F0FF204610BD30B5044600200346AF
:1001A00000E05B1C934203D2E05CCD5C401BF8D0C6
:1001B00030BD2DE9F05F0546002092469B468846FB
:1001C0000646814640241BE02846414647462246D3
:1001D000FFF7AEFF53465A46C01A914110D311465D
:1001E0001846224600F028F82D1A67EB01084F4602
:1001F00022460120002100F01FF817EB00094E41B4
:10020000201EA4F10104DFDC484631462A4643465D
:10021000BDE8F09F064C074D06E0E06840F00103A2
:1002200094E8070098471034AC42F6D3FFF762FF1A
:100230005C3A00087C3A0008202A04DB203A00FAE5
:1002400002F1002070479140C2F1200320FA03F32D
:10025000194390407047000010B5322000F046F876
:1002600070B90A4800680A49884203D109A002F01F
:10027000CFFF05E00BA002F0CBFF114802F066F9BA
:1002800010A002F0C5FF00F019FA10BD1800002000
:100290002211BBAA4F5441D3D0B8FCD0C2A3A10DA8
:1002A0000A0000004F5441CEDEB8FCD0C2A3ACCC53
:1002B000F8D7AA41B7D6C7F8B4FAC2EB0D0A0000C6
:1002C00000500008BDF8C8EB426F6F744C6F61645A
:1002D0006572C3FCC1EED0D00D0A000010B5024813
:1002E00002F000F810BD00001C09002010B5044603
:1002F000642004FB00F10CA002F08AFF0CE06420F3
:1003000000F060FD10480079772805D101210E48E2
:1003100003F088FB012010BD201EA4F10101CCB226
:10032000EDD100BFF7E700002564206D7320C4DA2B
:10033000CAE4C8EB207720A3ACBDF8C8EBC3FCC16E
:10034000EED0D00D0A000000180500202DE9FC4178
:1003500004460D460620019015200090754800685F
:1003600000284ED10121744803F05CFB207831381D
:10037000072841D2DFE800F0041424283034380084
:100380006EA002F045FF7049704800F021FA18B9DC
:100390006FA002F03DFF02E075A002F039FF2FE0F0
:1003A0007BA002F035FF6348006840F00600614919
:1003B000086000208449C1F80404C1F808041FE063
:1003C00082A002F025FF1BE084A002F021FF8749F4
:1003D00087A002F01DFF13E088A002F019FF0FE0D4
:1003E00093A002F015FF0BE09FA002F011FF642024
:1003F00000F0E8FC02F038FF9DA002F009FF00BF0A
:1004000096E04C48007800F004000028F8D0852DD4
:1004100060D1207801285DD14648006820F00200B4
:10042000444908608021E01C02F0D0FE6649A1F832
:100430000C0494F8840094F8831040EA0127624881
:10044000B0F80C04B84239D15F48D0F80804401C19
:100450005D49C1F80804084690F80804401E4007AA
:100460004FEA905801EB08008022E11CFFF770FE74
:10047000554890F8080400F00700B8B95248D0F881
:1004800008040121C1EBD000304901EB8026314640
:100490007AA002F0BDFE4FF480624B49304600F076
:1004A000D7FA10B17EA002F0B3FE00BF4FF0FF33C9
:1004B000012201A9804801F0E7FF06E04FF0FF3379
:1004C000012269467C4801F0DFFF85211A4803F0CC
:1004D000A9FA2DE0012D2BD12078042828D1431F23
:1004E000012201A9744801F0CFFF374890F80804B1
:1004F00000F0070088B1344890F808044007860DE2
:100500003148D0F80804C008104901EB8027324672
:100510002D49384600F09CFA00BF0648006820F0DC
:10052000040004490860642000F04CFC02F09CFECA
:10053000BDE8FC810000002018050020B2C1B3FD19
:1005400041C7F80D0A000000FFFF00080050000836
:10055000464C4153485F457261736552616E6765F1
:1005600020412073756363657373210D0A000000D9
:10057000464C4153485F457261736552616E6765D1
:100580002041206661696C6564210D0A000000004D
:10059000CDA8B9FD586D6F64656DD0ADD2E9A3AC3F
:1005A000B4AEBFDA494150CFC2D4D841C7F8B3CCBA
:1005B000D0F2A3ACC7EBCAB9D3C362696EB8F1CAB3
:1005C000BDCEC4BCFE0D0A0068000020C9E8D6C339
:1005D000B0E6B1BEBAC50D0A00000000B2E9D1AF65
:1005E000B0E6B1BEBAC50D0A000000004800002008
:1005F000B0E6B1BEBAC53A25730D0A00CFF2CDE21E
:10060000B2BF466C617368CFC2D4D8B3CCD0F2A36A
:10061000ACCAE4C8EBD0E8D2AACAB9D3C3B5C4BF48
:10062000E9B1E0BAC5A3A8317E39A3A90D0A00003B
:10063000CAB9D3C3CDE2B2BF466C617368C4DAB540
:10064000C4B3CCD0F2A3ACCAE4C8EBD0E8D2AACAF7
:10065000B9D3C3B5C4BFE9B1E0BAC5A3A8317E39E7
:10066000A3A90D0A00000000D6D8C6F40D0A0000A8
:10067000CEB4D6AAC3FCC1EE0D0A00006F7461208F
:10068000666C61736820314B206164647220617410
:10069000203078253038582E2E2E0D0A000000000C
:1006A000464C4153485F5772697465206661696CB6
:1006B0006564210D0A0000006409002010B50CA03B
:1006C00002F0A6FD0BA002F0A3FD0EA002F0A0FD1B
:1006D00012A002F09DFD16A002F09AFD19A002F0F2
:1006E00097FD1FA002F094FD24A002F091FD10BD23
:1006F0000D0A00005B315DB2C1B3FD41C7F80D0AC0
:10070000000000005B325DB4AEBFDA494150CFC299
:10071000D4D841C7F8B3CCD0F20D0A005B335DC921
:10072000E8D6C34F5441B0E6B1BEBAC50D0A0000C9
:100730005B345DB2E9D1AF4F5441B0E6B1BEBAC54A
:100740000D0A00005B355DCFF2CDE2B2BF466C61B1
:100750007368CFC2D4D8B3CCD0F20D0A0000000029
:100760005B365DCAB9D3C3CDE2B2BF466C61736874
:10077000C4DAB3CCD0F20D0A000000005B375DD6BE
:10078000D8C6F40D0A00000000BFFEE710B502480D
:1007900000F0C8F910BD0000AC09002030B590F899
:1007A00040500124AC40C56B6C60046863604468D1
:1007B000102C04D10468A2600468E16003E00468BE
:1007C000A1600468E26030BD704772B600BFFEE70A
:1007D0002DE9F04106460D46B6F1006F04D30F48EF
:1007E000854201D8AE4202D90120BDE8F0813046F1
:1007F00000F054F88046284600F050F8074644467A
:1008000007E0204600F00CF808B10120EDE7601C7D
:10081000C4B2BC42F5DD0020E7E70000FFFF00089E
:1008200010B586B00446042C02DB012006B010BDD2
:1008300000F04CF808B10120F8E7002002900120F8
:100840000390204600F010F804901020059001A9B4
:1008500002A800F0CBFA18B100F020FB0120E5E778
:1008600000F01CFB0020E1E7014631B1012907D06F
:10087000022907D0032909D106E04FF00060704734
:100880000348FCE70348FAE70348F8E70020F6E7E7
:10089000004000080080000800C000080146084829
:1008A000814201D3032070470648814201D30220D0
:1008B000F9E70548814201D30120F4E70020F2E77F
:1008C00000C00008008000080040000810B500F0DB
:1008D00047FB08B1012010BD00BF25200249C860B8
:1008E00000BF0020F7E70000002002400021074A77
:1008F000D1610749096941F00401054A11611146B6
:10090000096941F04001116170470000F0090020C1
:10091000002002400021074AD1610749096941F0DE
:100920000201054A116111464861096941F040011F
:1009300011617047F0090020002002400022054BA1
:10094000DA61054A126942F00102034B1A61018023
:1009500070470000F00900200020024000201E49DE
:10096000C96801F0100139B11C49C96941F002019F
:100970001A4AD16140F010001749C96801F004011A
:1009800039B11649C96941F00101144AD16140F0F9
:1009900004001149C96901F0010169B10F49C96930
:1009A00041F004010D4AD16100BF0B49C96921F032
:1009B0000101094AD16100BF00BF40F20111884224
:1009C00006D10549C96921F00101034AD16101E05D
:1009D0000149C86000BF704700200240F0090020B4
:1009E00070B5044600F00EFD054609E0601C38B104
:1009F00024B100F007FD401BA04201D9032070BDC7
:100A00001248C06800F001000028EFD10F48C0680C
:100A100000F0200020B100BF20200C49C86000BFBA
:100A20000A48C06800F0100048B90848C06900F0E2
:100A3000010020B90548C06800F0040018B1FFF7B4
:100A40008DFF0120DBE70020D9E7000000200240F5
:100A50002DE9F04705460F461646B846F01C4FEA0A
:100A6000900905F0030010B10120BDE8F087B5F151
:100A7000006F03D3A8191049884201D90120F4E777
:100A8000FFF724FF08B10120EFE700240EE058F83B
:100A900024C005EB840162460023022000F008FA1E
:100AA00018B100F0FBF90120DFE7641C4C45EED3E0
:100AB00000F0F4F90020D8E7FFFF0008014609B96B
:100AC000012070470868006820F001000A68106083
:100AD00000200A6810600A6850600A6890600A681E
:100AE000D0600F4A0868801A1422B0FBF2F0800030
:100AF00008640B480838C86391F8402001209040F2
:100B0000CA6B506000208862C862086348638863CB
:100B100081F8210000BF81F8200000BF00BFD0E7AE
:100B20000800024070B50446E06B0568206806685E
:100B300094F84010042088402840002846D006F051
:100B40000400002842D02068006800F0200028B986
:100B50002068006820F00400216808605749206878
:100B6000884201D1042027E054491431206888428A
:100B700001D1402020E0514928312068884201D12C
:100B8000001519E04D493C312068884202D14FF4EC
:100B9000804011E0494950312068884202D14FF429
:100BA000802009E0454964312068884202D14FF431
:100BB000800001E04FF08060404908394860E06AF9
:100BC00000287AD02046E16A884776E094F8401001
:100BD000022088402840A0B306F0020088B32068B5
:100BE000006800F0200040B92068006820F00A008A
:100BF00021680860012084F821003049206888427B
:100C000001D1022028E02D4914312068884201D109
:100C1000202021E0294928312068884201D140154F
:100C20001AE026493C312068884202D14FF4005036
:100C300012E0224950312068884203D14FF400303D
:100C40000AE017E01D4964312068884202D14FF460
:100C5000001001E04FF0007018490839486000BFEB
:100C6000002084F8200000BFA06A30B32046A16AAB
:100C7000884722E094F84010082088402840E0B1DE
:100C800006F00800C8B12068006820F00E00216856
:100C9000086094F8401001208840E16B4860012012
:100CA000A06384F8210000BF002084F8200000BF6A
:100CB000206B10B12046216B884770BD08000240B0
:100CC0000146002209B901207047164B0868C01A76
:100CD0001423B0FBF3F08000086412480838C8639E
:100CE000022081F821000868026843F6F070824310
:100CF000D1E901031843CB6818430B6918434B69CA
:100D000018438B691843CB69184302430868026093
:100D100000208863012081F82100002081F8200054
:100D200000BFD1E7080002402DE9F04104460D461E
:100D300016461F464FF0000800BF94F82000012817
:100D400002D10220BDE8F081012084F8200000BF1C
:100D500094F8210001282CD1022084F821000020E1
:100D6000A0632068006820F00100216808603B460D
:100D7000324629462046FFF711FDE06A30B120686F
:100D8000006840F00E00216808600BE020680068F1
:100D900020F00400216808602068006840F00A0024
:100DA000216808602068006840F001002168086040
:100DB00006E000BF002084F8200000BF4FF00208CA
:100DC0004046BFE770B5044600F01CFB06462546CA
:100DD000681C10B104480078054400BF00F012FB05
:100DE000801BA842FAD370BD0C0000202DE9F04111
:100DF00004460E460127002500BF2648007E012834
:100E000002D10220BDE8F08101202249087600BF0E
:100E10002068022813D14CF25030FFF7E1FD90BB5F
:100E20000120FFF763FD4CF25030FFF7D9FD074674
:100E30001948006920F004001749086123E04CF2CA
:100E40005030FFF7CDFDF0B94FF0FF303060A568AE
:100E500012E02846FFF75EFD4CF25030FFF7C0FD70
:100E600007460D48006920F002000B4908610FB1E8
:100E7000356007E005F58065D4E9021001EB8020BC
:100E8000A842E6D800BF00BF00200249087600BF94
:100E90003846B7E7F0090020002002400348006907
:100EA00040F08000014908610020704700200240A6
:100EB0002DE9FE4F05468B4617469846012600242D
:100EC0000020029000BF2448007E012802D10220A9
:100ED000BDE8FE8F01202049087600BF4CF250305B
:100EE000FFF77EFD064686BB012D02D10120029050
:100EF00006E0022D02D10220029001E004200290BF
:100F000000241EE02201B946C24648465146FFF77A
:100F10000FF980B20190022000FB04B0009001990B
:100F2000FFF70CFD4CF25030FFF75AFD06460B4818
:100F3000006920F001000949086106B104E0601C65
:100F4000C4B202988442DDDB00BF00BF002002492A
:100F5000087600BF3046BBE7F009002000200240C1
:100F600000200849096901F0800151B10649054A8C
:100F70005160064951601146096901F0800101B1D3
:100F8000012070470020024023016745AB89EFCD67
:100F90002DE9F04102460B46002080E00127874002
:100FA00007EA0301002979D0404F4FEA900C57F827
:100FB0002C4087074FEA177C0F2707FA0CF73C40B5
:100FC0003B4FBA4201D100270FE03A4FBA4201D15C
:100FD00001270AE0384FBA4201D1022705E0374F16
:100FE000BA4201D1032700E004274FEA807C4FEA90
:100FF0001C7C07FA0CF7A74231D1314F3F688F4371
:10100000DFF8BCC0CCF800700CF104073F688F43D8
:101010000CF1040CCCF80070294F0C373F688F435B
:10102000DFF89CC00CF10C0CCCF80070ACF104079C
:101030003F688F43ACF1040CCCF8007087074FEA8F
:10104000177C0F2707FA0CF4184F4FEA900C57F84B
:101050002CC02CEA040C4FEA900847F828C0FF295E
:1010600001D8174600E0171D3D46FF2901D887002B
:1010700002E0A0F10807BF003E462F684FF00F0CBA
:101080000CFA06FC27EA0C074FF0040C0CFA06FCDD
:1010900047EA0C072F60D7688F43D760401C23FABC
:1010A00000F7002F7FF47AAFBDE8F081080001401F
:1010B00000080140000C01400010014000140140F4
:1010C000000401402DE9F8470346002294466EE1F2
:1010D0004FF0010808FA02F4D1F8008008EA040091
:1010E000A0427DD1DFF8DCA2D1F80480A8EB0A0988
:1010F000D0453AD014DCB8F1030F50D009DCB8F178
:10110000000F31D0B8F1010F1CD0B8F1020F49D156
:1011100020E0B8F1110F18D0B8F1120F42D11EE043
:10112000B9F5881F25D006DCB9F5803F20D0B9F588
:10113000801F37D11AE0B9F5001F18D0B9F5041F88
:1011400030D117E0D1F80CC02DE0D1F80C8008F1B7
:10115000040C28E0D1F80C8008F1080C23E0D1F849
:101160000C8008F10C0C1EE000BF00BF00BF00BFE8
:1011700000BF00BFD1F80880B8F1000F02D14FF0D6
:10118000040C0BE0D1F80880B8F1010F03D14FF047
:10119000080C1C6102E04FF0080C5C6103E04FF0AA
:1011A000000C00E000BF00BFFF2801D8984601E016
:1011B00003F104084646FF2802D84FEA820803E0FC
:1011C000A2F108084FEA88084746D6F800804FF099
:1011D0000F0909FA07F928EA09080CFA07F900E0EB
:1011E00088E048EA0908C6F80080D1F8048008F0D1
:1011F0008058B8F1805F7DD100BFDFF8CC81D8F88E
:10120000188048F00108DFF8C091C9F81880C84676
:10121000D8F8188008F00108CDF8008000BF00BFA2
:101220004FEAB9384FEA920958F829504FEA8278C4
:101230004FEA18794FF00F0808FA09F825EA08056F
:10124000DFF88881434502D14FF0000816E0DFF84F
:101250008081434502D14FF001080FE0DFF874812F
:10126000434502D14FF0020808E0DFF86C814345A6
:1012700002D14FF0030801E04FF004084FEA8279F1
:101280004FEA197908FA09F848EA0505DFF84C81B0
:101290004FEA920948F82950D1F8048008F48018E0
:1012A000B8F5801F0AD1DFF83881D8F8008048EA05
:1012B0000008DFF82C91C9F8008009E0DFF82081F0
:1012C000D8F8008028EA0008DFF81491C9F80080F7
:1012D000D1F8048008F40018B8F5001F10D1DFF829
:1012E000008108F10408D8F8008048EA0008DFF817
:1012F000F09000E05AE009F10409C9F800800DE01F
:10130000DFF8DC8008F10408D8F8008028EA00083B
:10131000DFF8CC9009F10409C9F80080D1F8048005
:1013200008F40038B8F5003F0ED1DFF8B480A8F11A
:101330000408D8F8008048EA0008DFF8A490A9F172
:101340000409C9F800800DE0DFF89480A8F10408D2
:10135000D8F8008028EA0008DFF88490A9F1040991
:10136000C9F80080D1F8048008F48038B8F5803FCF
:101370000ED1DFF86C80A8F10808D8F8008048EAA0
:101380000008DFF85C90A9F10809C9F800800DE0B9
:10139000DFF84C80A8F10808D8F8008028EA000897
:1013A000DFF83C90A9F10809C9F80080521CD1F877
:1013B000008028FA02F8B8F1000F7FF489AEBDE88A
:1013C000F8870000000011100010024000080140E2
:1013D000000C0140001001400014014008000140D1
:1013E0000804014010B5C26821EA020302EA0104C0
:1013F00043EA0443036110BD0AB1016101E00B043B
:101400000361704701480068704700000400002035
:101410000348006803490978084401490860704797
:10142000040000200C00002010B50848006840F0BF
:10143000100006490860032000F0CAF80F2000F0F1
:1014400007F800F02BF8002010BD0000002002403B
:1014500070B504460E4800784FF47A71B1FBF0F095
:101460000C490968B1FBF0F5284600F0E1FD08B130
:10147000012070BD102C07D200222146501E00F022
:1014800069F80548046001E00120F2E70020F0E778
:101490000C000020100000200800002008B500BF4C
:1014A0001148806940F001000F4988610846806951
:1014B00000F00100009000BF00BF00BF0846C069F7
:1014C00040F08050C8610846C06900F0805000902C
:1014D00000BF00BF00BF0549486820F0E06040F051
:1014E0000070486000BF08BD0010024000000140CD
:1014F00010B501460846002817DB00F01F03012243
:101500009A400B4B440943F8242000BF00BF00BFA2
:10151000BFF34F8F00BF00BF00BF00BF00BF00BFC1
:10152000BFF36F8F00BF00BF00BF00BF10BD000042
:1015300080E100E001460846002809DB00F01F03B7
:1015400001229A4043099B0003F1E023C3F80021E4
:1015500000BF70472DE9F05F80460D461646002714
:1015600001F066FE074639462A46334601F0070079
:10157000C0F1070ABAF1040F02D94FF0040A01E0E2
:10158000C0F1070AD14600F1040ABAF1070F02D2EE
:101590004FF0000A01E0A0F1030AD4464FF0010A1F
:1015A0000AFA09FAAAF1010A0AEA020A0AFA0CFA84
:1015B0004FF0010B0BFA0CFBABF1010B0BEA030B29
:1015C0004AEA0B042146404601F03AFEBDE8F09F8E
:1015D00000BF00F00702064B19684FF6FF031940E1
:1015E000044B0B4343EA0221014B196000BF7047D3
:1015F0000CED00E00000FA0570B504460D460CB98C
:10160000012070BD5A48006800F00700A8420ED2C1
:101610005748006820F007002843554908600846ED
:10162000006800F00700A84201D00120E9E7207817
:1016300000F0020002281DD1207800F004000428E8
:1016400005D14C48406840F4E0604A494860207841
:1016500000F00800082805D14648406840F4605072
:10166000444948604348406820F0F000A1680843BE
:1016700040494860207800F0010078B36068012894
:1016800006D13C48006800F4003090B90120B8E76A
:101690006068022806D13748006800F0007040B941
:1016A0000120AEE73348006800F0020008B90120CD
:1016B000A7E73048406820F00300616808432D49DF
:1016C0004860FFF79FFE064609E0FFF79BFE801B80
:1016D00041F28831884202D9032092E707E0254889
:1016E000406800F00C006168B0EB810FEDD120483C
:1016F000006800F00700A8420ED91D48006820F0DD
:10170000070028431A4908600846006800F00700EF
:10171000A84201D0012074E7207800F004000428DA
:1017200007D11448406820F4E060E168084311499B
:101730004860207800F00800082808D10D4840686B
:1017400020F46050216940EAC1000A49486000F075
:101750003FF808494968C1F30311074A515CC84082
:101760000649086006480068FFF772FE002048E757
:101770000020024000100240423A00081000002001
:101780000800002001480068704700001000002099
:1017900000B5FFF7F7FF04494968C1F30221034A86
:1017A000515CC84000BD000000100240523A0008E1
:1017B00000B5FFF7E7FF04494968C1F3C221034AB6
:1017C000515CC84000BD000000100240523A0008C1
:1017D00070B500210022002400230020134D696809
:1017E00001F00C05F5B1042D02D0082D19D101E04E
:1017F0000F4819E00F4DC1F38346AB5D01F480350E
:1018000055B10A4D6D68C5F340450B4E725D084DEC
:101810005D43B5FBF2F402E0084D03FB05F42046FE
:1018200002E000BF024800BF00BF70BD00100240D0
:1018300000127A00303A0008403A000800093D00E2
:10184000F8B504460CB90120F8BD207800F001007D
:10185000002878D0F848406800F00C0004280CD02C
:10186000F548406800F00C00082811D1F2484068A3
:1018700000F48030B0F5803F0AD1EF48006800F4F2
:10188000003000285FD0606800285CD10120DBE7D1
:1018900000BF6068B0F5803F06D1E748006840F4BB
:1018A0008030E549086028E0606858B9E24800687F
:1018B00020F48030E04908600846006820F4802069
:1018C00008601AE06068B0F5A02F0BD1DA48006814
:1018D00040F48020D84908600846006840F4803011
:1018E00008600AE0D448006820F48030D2490860DB
:1018F0000846006820F48020086000BF606888B156
:10190000FFF780FD054606E0FFF77CFD401B6428DD
:1019100001D9032098E7C848006800F40030002887
:10192000F2D010E0FFF76EFD054606E0FFF76AFD16
:10193000401B642801D9032086E7BF48006800F4F3
:1019400000300028F2D1207800F00200022857D1A0
:10195000B948406800F00C0050B1B748406800F04A
:101960000C00082818D1B448406800F4803098B9B9
:10197000B148006800F0020020B12069012801D0C0
:10198000012061E7AC48006820F0F800616940EA96
:10199000C100A949086033E02069E8B10120A749E6
:1019A0000860FFF72FFD054606E0FFF72BFD401B03
:1019B000022801D9032047E79F48006800F0020091
:1019C0000028F2D09C48006820F0F800616940EAE5
:1019D000C1009949086013E0002098490860FFF7AA
:1019E00011FD054606E0FFF70DFD401B022801D959
:1019F000032029E79048006800F002000028F2D197
:101A0000207800F0080008282DD1A069B8B1012085
:101A10008B490860FFF7F6FC054606E0FFF7F2FC8D
:101A2000401B022801D903200EE78348406A00F0DA
:101A300002000028F2D0012000F00CFF13E000208B
:101A40007F490860FFF7DEFC054606E0FFF7DAFC99
:101A5000401B022801D90320F6E67748406A00F0CF
:101A600002000028F2D1207800F00400042873D18D
:101A700000277148C06900F0805070B900BF6E48FF
:101A8000C06940F080506C49C8610846C06900F0E8
:101A90008050009000BF00BF01276A48006800F432
:101AA0008070B0B96748006840F48070654908608C
:101AB000FFF7A8FC054606E0FFF7A4FC401B6428DE
:101AC00001D90320C0E65F48006800F48070002858
:101AD000F2D000BFE068012806D15748006A40F004
:101AE00001005549086227E0E06858B95248006A89
:101AF00020F00100504908620846006A20F0040006
:101B0000086219E0E06805280BD14B48006A40F0F4
:101B10000400494908620846006A40F00100086272
:101B20000AE04548006A20F001004349086208467F
:101B3000006A20F00400086200BFE068A0B1FFF76F
:101B400061FC054609E0FFF75DFC401B41F288316E
:101B5000884202D9032077E622E03748006A00F085
:101B600002000028EFD012E0FFF74CFC054608E029
:101B7000FFF748FC401B41F28831884201D903201D
:101B800062E62D48006A00F002000028F0D1012F23
:101B900005D12948C06920F080502749C86100BF9D
:101BA000E069C8B32448406800F00C00082860D001
:101BB000E069022848D1002020490866FFF722FC8E
:101BC000054606E0FFF71EFC401B022801D9032052
:101BD0003AE61948006800F000700028F2D1206A47
:101BE000B0F5803F07D11448406820F40030A16868
:101BF000084311494860D4E9080108430E4949687F
:101C000021F4741108430C49486001200B4908660F
:101C1000FFF7F8FB054607E03DE0FFF7F3FB401B4D
:101C2000022801D903200FE60348006800F0007085
:101C30000028F2D02FE000000010024000004242D5
:101C40008004424200700040002014490866FFF7FB
:101C5000D9FB054606E0FFF7D5FB401B022801D95A
:101C60000320F1E50E48006800F000700028F2D172
:101C700011E0E069012800D1E6E50948466806F46C
:101C80008031206A814204D106F47011606A814279
:101C900001D00120D8E50020D6E500000000424236
:101CA0000010024010B504460CB9012010BD606A56
:101CB00038B96068B0F5827F00D105E00021E161AC
:101CC00002E00021216161610021A16294F85100CC
:101CD00028B9002084F85000204600F043F8022084
:101CE00084F851002068006820F0400021680860F6
:101CF000A08800F48270218901F404410843A1897D
:101D000001F400610843217C01F002010843217DB8
:101D100001F001010843218B01F400710843217F88
:101D200001F0380108432021095D01F080010843DA
:101D3000218D01F400510843216808600421A06945
:101D400001EA1040216848602068C06920F4006002
:101D50002168C86100206065012084F851000020DE
:101D6000A4E7000010B586B004460020029003905E
:101D7000049005901949206888422DD100BF184869
:101D8000806940F48050164988610846806900F4F3
:101D90008050019000BF00BF00BF0846806940F03E
:101DA000040088610846806900F00400019000BFCB
:101DB00000BFA0200290022003900320059002A9FA
:101DC0000848FFF77FF9402002900020039004901C
:101DD00002A90448FFF776F906B010BD00300140B3
:101DE00000100240000801402DE9FE4F04460F4656
:101DF00090461D460C9E01200190FFF703FB814693
:101E000094F851B060680290AA46BBF1010F0BD064
:101E10000298B0F5827F04D1A06810B9BBF1040F1D
:101E200002D00220BDE8FE8F1FB1B8F1000F00D034
:101E30000DB90120F6E700BF94F85000012801D148
:101E40000220EFE7012084F8500000BF94F8510011
:101E5000042802D0052084F8510000206065C4F8F1
:101E60003880E587A5872763E586A58620646064BA
:101E70002068006800F04000402805D02068006815
:101E800040F0400021680860E068B0F5006F52D172
:101E9000606810B1BAF1010F09D1206B0088216888
:101EA000C860206B801C2063E08E401EE0863BE013
:101EB0002068806800F00200022810D1E08E70B126
:101EC000019801280BD1206B00882168C860206B25
:101ED000801C2063E08E401EE08600200190206878
:101EE000806800F0010068B1E08F58B12068C068D8
:101EF000A16B0880A06B801CA063E08F401EE08770
:101F000001200190FFF77EFAA0EB0900B0420BD34D
:101F1000701C48B1012084F8510000BF002084F8F3
:101F2000500000BF03207DE7E08E0028C0D1E08F85
:101F30000028BDD152E0606810B1BAF1010F09D19B
:101F4000206B007821680873206B401C2063E08EB2
:101F5000401EE0863CE02068806800F00200022815
:101F600010D1E08E70B1019801280BD1206B007860
:101F700021680873206B401C2063E08E401EE086C1
:101F8000002001902068806800F0010068B1E08FB7
:101F900058B12068C068A16B0870A06B401CA0639A
:101FA000E08F401EE08701200190FFF72BFAA0EBA5
:101FB0000900B04201D3701C00B94EB9012084F869
:101FC000510000BF002084F8500000BF032029E723
:101FD000E08E0028BFD1E08F0028BCD14A463146B0
:101FE000204600F04BFC40B12020606500BF00207F
:101FF00084F8500000BF012014E7A06850B900BF6A
:10200000002000902068C0680090206880680090E0
:1020100000BF00BF012084F8510000BF002084F8F9
:10202000500000BF606D08B10120FBE60020F9E61A
:1020300070B504462546681EB0F1807F01D30120AB
:102040000FE0681E4FF0E02148610F214FF0FF3094
:1020500001F0F6F800204FF0E021886107200861C8
:10206000002070BD70477047704770B50446206807
:10207000C5682068066906F00200022819D105F03B
:102080000200022815D1401F216808610120207735
:102090002068806900F0030018B12046FFF7E4FFD4
:1020A00005E0204600F097F8204600F095F8002063
:1020B000207706F00400042819D105F00400042854
:1020C00015D1C0432168086102202077206880690B
:1020D00000F4407018B12046FFF7C6FF05E0204627
:1020E00000F079F8204600F077F80020207706F01D
:1020F0000800082819D105F00800082815D1C043A8
:1021000021680861042020772068C06900F003007E
:1021100018B12046FFF7A8FF05E0204600F05BF865
:10212000204600F059F80020207706F01000102813
:1021300019D105F01000102815D1C043216808619D
:10214000082020772068C06900F4407018B120464C
:10215000FFF78AFF05E0204600F03DF8204600F03A
:102160003BF80020207706F0010048B105F001009F
:1021700030B16FF0010021680861204600F02EF8B0
:1021800006F08000802809D105F08000802805D164
:10219000C043216808612046FFF764FF06F0400055
:1021A000402809D105F04000402805D1C0432168EE
:1021B0000861204600F020F806F02000202809D110
:1021C00005F02000202805D1C04321680861204681
:1021D000FFF749FF70BD70477047000010B5044617
:1021E0000348844203D180210248FFF7FBF810BD69
:1021F000D0040020000C01407047F8B504460D469D
:10220000164694F8420020282DD105B10EB90120C0
:10221000F8BD012020630020606332462946204635
:1022200000F068FD0746206B012819D100BF00208F
:10223000009020680068009020684068009000BF0F
:1022400000BF00BF00BF21680C3151E8001F41F002
:10225000100021680C3141E80002002AF3D100E0AF
:1022600001273846D4E70220D2E77047704710B5FF
:1022700004460CB9012010BDA06900B100E000BF08
:1022800094F8410028B9002084F84000204600F06E
:1022900059F8242084F841002068C06820F40050D8
:1022A0002168C860204600F0A7FC2068006920F47F
:1022B0009040216808612068406920F02A00216868
:1022C00048612068C06840F400502168C860002060
:1022D0006064202084F8410084F84200002060639C
:1022E00000BFC8E710B504461249206888420BD1E8
:1022F0001148806920F480400F4988614FF4C06123
:102300000E48FEF745FE13E00D49206888420FD1C4
:102310000948C06920F400300749C8610C2107480A
:10232000FEF736FEE06BFEF7C9FB2620FFF7E0F86C
:1023300010BD0000003801400010024000080140BC
:102340000044004010B586B004460020029003907F
:10235000049005904549206888422FD100BF444829
:10236000806940F48040424988610846806900F4F1
:102370008040019000BF00BF00BF0846806940F068
:10238000040088610846806900F00400019000BFE5
:1023900000BF48150290022003900320059002A977
:1023A0003448FEF78FFE4FF48060029000200390C7
:1023B000049002A92F48FEF785FE54E02E492068BC
:1023C000884250D100BF2A48C06940F400302849F3
:1023D000C8610846C06900F40030019000BF00BF2A
:1023E00000BF0846806940F00400886108468069A3
:1023F00000F00400019000BF00BF04200290022002
:1024000003900320059002A91A48FEF75BFE0820FE
:10241000029000200390049002A91648FEF752FE95
:102420001648174908600020486000211448816060
:102430008021C16000210161416120218161002171
:10244000C161FEF73DFC08B1FEF7BFF900BF0C48C3
:10245000E063446200BF002211462620FFF77AF8AD
:102460002620FFF767F806B010BD000000380140D5
:102470000010024000080140004400406C0002408F
:10248000AC090020704770472DE9F84F04460E460E
:10249000174699464FF0000A94F84100202850D181
:1024A00006B117B90120BDE8F88F00206064212033
:1024B00084F84100FEF7A6FF8246A784E784A0685F
:1024C000B0F5805F04D1206910B90025B04602E064
:1024D00035464FF000081EE053460022802120467A
:1024E000CDF8009000F06AFC20B1202084F8410073
:1024F0000320D8E745B9B8F80000C0F30800216808
:10250000486008F1020803E02878216848606D1CE3
:10251000E08C401EE084E08C0028DDD15346002290
:1025200040212046CDF8009000F048FC20B120204A
:1025300084F841000320B6E7202084F84100002001
:10254000B1E70220AFE700BFFEE7000070B5044628
:102550002068B0F1005F0ED30949206888420AD88C
:1025600008A000F055FE2068FDF7CCFD6568FDF77A
:10257000B5FEA84702E00BA000F04AFE70BD0000C7
:10258000FF4F002041B7D6C7F8B4FAC2EB4D535005
:10259000D3D0D0A7D0D4C5D0B6CFCDA8B9FD0D0A21
:1025A0000000000041B7D6C7F8B4FAC2EB4D535053
:1025B000D3D0D0A7D0D4C5D0B6CFB2BBCDA8B9FDAB
:1025C000A3ACCCF8D7AA41B7D6C7F8CAA7B0DCA34A
:1025D000A10D0A0008B500BF0A48406940F001009B
:1025E000084948610846406900F00100009000BFBA
:1025F00000BF002211461020FEF7ACFF1020FEF7AE
:1026000099FF08BD0010024000B585B00020019080
:1026100002900390049000BF2648806940F020009B
:10262000244988610846806900F02000009000BFBE
:1026300000BF00BF0846806940F00400886108467A
:10264000806900F00400009000BF00BF00BF084692
:10265000806940F0080088610846806900F0080041
:10266000009000BF00BF00224FF4C0711248FEF777
:10267000C3FE00224FF480510F48FEF7BDFE4FF419
:10268000C07001900120029003900220049001A9E3
:102690000948FEF717FD4FF4805001900120029089
:1026A00003900220049001A90348FEF70BFD05B03A
:1026B00000BD000000100240000C014010B50E48A3
:1026C0000E4908604FF48270486000210B48816019
:1026D000C160016141614FF4007181610821C161F4
:1026E00000210162416281620A21C162FFF7DAFAC8
:1026F00008B1FEF76AF810BD0030014078040020F0
:1027000010B50B480B4908604FF4E13048600021D8
:1027100008488160C16001610C2141610021816133
:10272000C161FFF7A4FD08B1FEF74FF810BD00002E
:10273000003801401C09002010B5124812490860F9
:102740004FF4E130486000210F488160C1600161B1
:102750000C21416100218161C161FFF788FD08B151
:10276000FEF733F808480068C06840F010000649DA
:102770000968C8604FF4806204490348FFF73DFDD3
:1027800010BD000000440040640900201C0500202A
:1027900000BFFEE710B500224FF480510148FEF75C
:1027A0002BFE10BD000C014010B5012211030248A0
:1027B000FEF722FE10BD0000000C014001B582B002
:1027C0004FF0FF30012301AA02A900900248FFF751
:1027D0000BFB9DF804000EBD7804002000BFFEE74F
:1027E0007047000010B505A000F012FD0EA000F02B
:1027F0000FFD02A000F00CFD10BD00003D3D3D3D71
:102800003D3D3D3D3D3D3D3D3D3D3D3D3D3D3D3DF8
:102810003D3D3D3D3D3D3D3D3D3D3D3D3D3D3D3DE8
:102820003D3D3D3D0D0A00003D3D3D3D5B424F4F6E
:10283000545D2053797374656D205374617274759F
:1028400070205375636365737366756C213D3D3D00
:102850003D0D0A0008B508490968C9084FF47A72A5
:10286000B1FBF2F14143009100BF00BF00994A1E45
:1028700000920029F9D108BD10000020F8B50446E7
:102880000E4615463346012202212046009500F0EF
:1028900017F828B1606D40F0200060650320F8BD96
:1028A0003346002280212046009500F009F828B127
:1028B000606D40F0200060650320F0E70020EEE747
:1028C0002DE9F84F04460D4690461E46DDF8289047
:1028D000FEF798FDA0EB0900371AFEF793FD82463C
:1028E0002C480068C0F3CB307843009045E0701C62
:1028F000002842D0FEF786FDA0EB0A00B84200D2C5
:10290000A7BB2068406820F0E0002168486060684C
:10291000B0F5827F0DD1A068B0F5004F03D0A0685C
:10292000B0F5806F05D12068006820F04000216874
:102930000860A06AB0F5005F0DD100BF2068006894
:1029400020F40050216808602068006840F40050BE
:102950002168086000BF012084F8510000BF0020FA
:1029600084F8500000BF0320BDE8F88FFFE700980F
:1029700000B900270098401E009020688068284019
:10298000A84201D1012000E000204045AFD1002045
:10299000EAE7000010000020704710B5FEF738FD90
:1029A00010BD00B58FB0282105A8FDF7EAFB142162
:1029B0006846FDF7E6FB0120059000040690002024
:1029C00007900120099002200C90C1030D914FF453
:1029D000E0110E9105A8FEF733FF08B1FDF7F5FEF3
:1029E0000F20009002200190002002904FF48060A0
:1029F00003900020049002216846FEF7FDFD08B117
:102A0000FDF7E3FE0FB000BD7047000010B50248AF
:102A1000FFF72BFB10BD0000D004002001464888C2
:102A20000A88904204DB48880A88801A80B270477E
:102A30000888C0F580604A88104480B2F7E770B516
:102A400006460025746A20684069C0F3C01594F8F2
:102A50004100212805D125B10020E084204600F066
:102A6000B8F820684069C0F3801594F84200222825
:102A700005D125B10020E085204600F074F8606C97
:102A800040F0100060642046FFF7F0FB70BD70B5A9
:102A900005466C6A2868006800F02000002842D1D2
:102AA000E08500BF00BF21680C3151E8001F21F410
:102AB000807021680C3141E80002002AF3D100BF88
:102AC00000BF00BF2168143151E8001F21F0010050
:102AD0002168143141E80002002AF3D100BF00BF91
:102AE00000BF2168143151E8001F21F04000216827
:102AF000143141E80002002AF3D100BF202084F8FD
:102B00004200206B01280ED100BF00BF21680C31AC
:102B100051E8001F21F0100021680C3141E800024B
:102B2000002AF3D100BF00206063206B012804D18C
:102B3000A18D2046FFF799FB02E02046FFF7A2FC9B
:102B400070BD70B505466C6A01206063206B01287A
:102B500005D1A08D41082046FFF787FB02E0204603
:102B6000FFF791FC70BD00BF00BF02680C3252E855
:102B7000002F22F4907102680C3242E80013002BFF
:102B8000F3D100BF00BF00BF0268143252E8002F2B
:102B900022F001010268143242E80013002BF3D145
:102BA00000BF016B01290ED100BF00BF02680C32CB
:102BB00052E8002F22F0100102680C3242E80013A4
:102BC000002BF3D100BF202180F8421000210163C7
:102BD000704700BF00BF02680C3252E8002F22F09D
:102BE000C00102680C3242E80013002BF3D100BF91
:102BF000202180F84110704770B5044621680969AA
:102C000021F44051E2681143226811612269A168F0
:102C10001143626941EA02052168C96841F20C6208
:102C2000914329432268D1602168496921F44071A8
:102C3000A2691143226851612D4A2168914202D153
:102C4000FEF7B6FD01E0FEF7A3FD00EBC00101EBCE
:102C5000001162689200B1FBF2F100EBC00202EBDE
:102C6000001263689B00B2FBF3F26423B2FBF3F241
:102C700002EBC20303EB0212A1EB8201322202EB50
:102C800001116422B1FBF2F101F0F00100EBC0028E
:102C900002EB001263689B00B2FBF3F26423B2FB09
:102CA000F3F201EB021200EBC00101EB00116368CB
:102CB0009B00B1FBF3F100EBC00303EB001366686C
:102CC000B600B3FBF6F36426B3FBF6F303EBC306DF
:102CD00006EB0313A1EB8301322303EB0111642301
:102CE000B1FBF3F101F00F0111442268916070BD56
:102CF0000038014077B581B0044615460298A062BD
:102D0000A58500206064222084F842002848E16BF9
:102D100088622848E16BC8622748E16B086300209D
:102D2000E16B486302AE32682368191D2B46E06BE5
:102D3000FDF7FAFF00BF00200090206800680090B7
:102D400020684068009000BF00BF206970B100BFDC
:102D500000BF21680C3151E8001F41F480702168E8
:102D60000C3141E80002002AF3D100BF00BF00BFD0
:102D70002168143151E8001F41F00100216814312D
:102D800041E80002002AF3D100BF00BF00BF216864
:102D9000143151E8001F41F040002168143141E82E
:102DA0000002002AF3D100BF002004B070BD000073
:102DB0008F2A0008432B00083F2A00082DE9F8431A
:102DC00004460D4617469846089E31E0701C70B3C5
:102DD000FEF718FBA0EB0800B04200D816B903209C
:102DE000BDE8F8832068C06800F00400F8B1802DC9
:102DF0001ED0402D1CD020680068C0F3C000B0B1C8
:102E000000BF0020009020680068009020684068A3
:102E1000009000BF00BF2046FFF7A5FE08206064B9
:102E200000BF002084F8400000BF0120D8E7FFE782
:102E3000206800682840A84201D1012000E000205D
:102E4000B842C3D00020CBE708B50D480068006841
:102E5000C0F3001098B100BF00200090084800683F
:102E600000680090064800684068009000BF00BFFE
:102E7000044800684068C0F580600349488008BD88
:102E800064090020AC0900201805002000BFFEE7FF
:102E90002DE9F04104460E46174600F01BF9FFF7F6
:102EA00079FC0220FFF78AFCC4F30740FFF786FC99
:102EB000C4F30720FFF782FCE0B2FFF77FFC002598
:102EC00004E0705DFFF77AFC681C85B2BD42F8DB58
:102ED000FFF76AFC00F0AAF8BDE8F0812DE9F041A7
:102EE00004460E461746FFF755FC0320FFF766FC25
:102EF000C4F30740FFF762FCC4F30720FFF75EFC52
:102F0000E0B2FFF75BFC002504E0FF20FFF756FC72
:102F100070556D1CBD42F8D3FFF746FCBDE8F0814B
:102F200010B5C0B04FF480716846FDF72AF9502102
:102F30001648FDF726F94FF4807269461448FFF7EA
:102F4000CDFF502269461148FDF702F9104911A042
:102F500000F05EF90D48016816A000F059F9002450
:102F60000AE00A48001D00EB84000268214617A011
:102F700000F04EF9601CC4B20B2CF2DB0349303177
:102F800018A000F045F940B010BD00001800002066
:102F900000FFFF0052656164204F544120496E6676
:102FA0006F2066726F6D203078253036583A0D0AE2
:102FB0000000000020204F54415F666C61673A209A
:102FC0003078253038580D0A00000000202046696E
:102FD000726D776172654C656E5B25645D3A202584
:102FE000640D0A0020204F54415F56657273696F6B
:102FF0006E3A2025730D0A0010B5044600F06AF8F9
:10300000FFF7C8FB2020FFF7D9FBC4F30740FFF709
:10301000D5FBC4F30720FFF7D1FBE0B2FFF7CEFBEF
:10302000FFF7C2FB00F002F810BD000010B5FFF77B
:10303000B1FB0520FFF7C2FB074C02E0641E04B998
:1030400006E0FF20FFF7BAFB00F001000028F5D1F1
:1030500000BFFFF7A9FB10BDA08601002DE9FC5FB2
:103060000446894615464FF000082646CA466FF0CA
:103070007F40844202D30020BDE8FC9F0DB90020B0
:10308000FAE76019B0F1807F02D36FF07F40051B33
:103090001CE06FF07F40B6FBF0F0C0EB00600190E9
:1030A0000198301A00906FF07F410098A1EB000B5F
:1030B000A5EB08075F4500D95F46BAB251463046D6
:1030C000FFF7E6FEB8443E44BA4400BFA845E0D34B
:1030D0004046D1E710B5FFF75DFB0620FFF76EFB1A
:1030E000FFF762FB10BD000030B5ADF5017D002596
:1030F0004FF4807101A8FDF744F84FF4807201A9E4
:103100001B48FFF7EBFE4FF4807201A941A8FDF7C1
:103110001FF85022174941A8FDF71AF8502201A9BB
:1031200041A8FDF739F830B913A000F071F801207B
:103130000DF5017D30BD174C214617A000F068F851
:103140002046FFF759FFFFF771FF4FF4807241A946
:103150000748FFF783FF85B2294617A000F058F80B
:10316000B5F5807F01D10120E2E70020E0E7000013
:1031700000FFFF00180000204F5441D0C5CFA2CE61
:10318000DEB1E4BBAFA3ACCCF8B9FDD0B4C8EB0D55
:103190000A00000000F0FF0045726173696E67204D
:1031A000736563746F7220617420307825303858ED
:1031B0002E2E2E0D0A000000D0B4C8EBCDEAB3C904
:1031C0003A202564D7D6BDDA0D0A000070B5024654
:1031D0000B46002041F2210414E0157880EA052016
:1031E00000210CE000F400451DB184EA4005A8B2BE
:1031F00003E04FF6FF7505EA40004D1CE9B20829CF
:10320000F0DB521C1D1EA3F10106B3B2E5D170BD67
:103210000FB4054B10B503A9044A029800F054F806
:1032200010BC5DF814FB00002137000814000020DA
:1032300002480068C0F30220704700000CED00E077
:1032400010B5002804DB0A07130E054A135406E0E4
:103250000A07140E034A00F00F031B1FD45410BDBD
:1032600000E400E018ED00E000BF00BF00BFBFF3C6
:103270004F8F00BF00BF00BF0948006800F4E06046
:1032800008490843001D0649086000BF00BF00BF91
:10329000BFF34F8F00BF00BF00BF00BF00BFFDE7FF
:1032A0000CED00E00000FA0502E008C8121F08C19A
:1032B000002AFAD170477047002001E001C1121FB7
:1032C000002AFBD1704700002DE9FF4F8DB00F465B
:1032D0000546002606E025280BD0DDE90F129047B1
:1032E0006D1C761C28780028F5D111B03046BDE859
:1032F000F08F0024A246A1460122E94900E00443E0
:1033000015F8013F203B02FA03F00842F7D1287874
:103310002A2810D06FF02F022878A0F13001092957
:1033200014D80AEB8A0102EB410144F0020400EBDD
:10333000010A6D1CF0E701CF5FEA000A03D544F4EF
:103340000054CAF1000A44F002046D1C28782E28AB
:1033500017D115F8010F44F004042A280ED06FF09D
:103360002F022878A0F1300109290AD809EB890138
:1033700002EB410100EB01096D1CF2E757F8049BD9
:103380006D1C28786C280FD006DC4C2817D06828D4
:103390000DD06A2814D104E0742810D07A280FD1F7
:1033A0000DE044F400140AE044F4801401E044F415
:1033B00040146978814202D104F580146D1C6D1CA3
:1033C00028786E281ED00CDC632830D004DC00285E
:1033D0008BD0582811D19FE0642867D069280CD180
:1033E00064E073282DD004DC6F2872D0702804D1DB
:1033F00094E075286ED078286DD0DDE90F129047E3
:10340000761C4BE1C4F30250022806D0032809D0F1
:10341000042801CF09D0066040E101CFF117C0E9CF
:1034200000613BE101CF068038E1067036E117F814
:10343000040B8DF8000000208DF80100EB46012000
:1034400003E057F804BB4FF0FF3061074FF0000175
:1034500002D40DE008F10101884649450FDA8045A4
:10346000F8DB1BF808100029F4D108E008F101018D
:1034700088468142FADB1BF808100029F6D1DDE905
:103480000F23AAEB08008146214600F031F93044B1
:1034900000EB080604E0DDE90F121BF8010B904772
:1034A000B8F10108F7D221464846F2E00A21C4F3F8
:1034B00002524FF0000B0891022A04D001CFC1172D
:1034C000032A09D00AE0FF1D27F00707F7E80201E9
:1034D00008E02CE01EE01FE000B2C117042A01D171
:1034E00040B2C117021E71F1000206DA0023D0EBD0
:1034F000030063EB01012D2202E0220504D52B22FB
:103500008DF82420012203E0E20701D02022F7E712
:10351000904653E00A210BE0102109E010214FF002
:10352000000B44F004044FF00809089103E008215F
:103530004FF0000B0891C4F30252022A04D001CFCD
:103540000021032A06D006E0FF1D27F00707F7E851
:10355000020103E080B2042A00D1C0B24FF000089B
:1035600022072BD52A78702A07D0DDF820C08CF0EE
:10357000100C5CEA0B0C05D00EE040228DF82420E4
:10358000012208E050EA010306D030238DF82430F0
:103590008DF8252002229046089B83F0080353EA09
:1035A0000B030BD150EA010201D1620706D530228C
:1035B0008DF824204FF00108A9F101092A78582A32
:1035C00004D038A20B9208AA0A920BE03AA2F9E7BB
:1035D0005B46089AFCF7EDFD0B9B9B5C0A9A521E1A
:1035E0000A92137050EA0102F2D10A98ADEB000082
:1035F00000F1200B600702D524F4803401E04FF085
:103600000109D94502DDA9EB0B0000E0002000EB29
:103610000B0141440890AAEB010AE00306D4DDE95E
:103620000F232146504600F063F806444FF000098E
:1036300008E009A911F80900DDE90F12904709F126
:103640000109761CC145F4DBE0030CD5DDE90F234D
:103650002146504600F04CF8064404E0DDE90F1224
:1036600030209047761C0899481E08900029F5DC08
:1036700008E00A980A990078491C0A91DDE90F12BE
:103680009047761CBBF10001ABF1010BF1DC214648
:103690005046DDE90F2300F019F806446D1C21E6C1
:1036A0000928010030313233343536373839616218
:1036B00063646566000000003031323334353637DC
:1036C0003839414243444546000000002DE9F041AD
:1036D000044600251E461746880404D405E03946F2
:1036E0002020B0476D1C641EF9D52846BDE8F08146
:1036F0002DE9F041044600251E469046C80301D539
:10370000302700E02027880404D505E041463846EC
:10371000B0476D1C641EF9D52846BDE8F081000055
:1037200013B50C464FF0FF33012269460248FEF7FD
:10373000ABFE00981CBD00001C0900200024FDF712
:1037400073FEFFF72EF9FEF75FFFFEF743FFFEF76C
:10375000D7FFFEF7F1FFFEF7B1FFFFF743F8202197
:103760008048FCF70EFD80487E4930390860002013
:1037700007E055227B492C3901EB80010A60411C8E
:10378000C8B20B28F5DB192278A17648FCF7E0FCDB
:10379000FFF7AAFCFFF7C4FBFCF75EFDE0E07A4808
:1037A00000887949498888420AD07748FFF736F976
:1037B000054675490A88091D50182946FCF7C6FDBB
:1037C0007248007800F00200B0B17148D0F80404EB
:1037D00064280AD34FF0FF3302226EA16E48FEF731
:1037E00053FE00206A49C1F804046948D0F8040473
:1037F000401C6749C1F804040A20FDF7E3FA634856
:10380000007800F001000028C8D06148D0F80024FA
:1038100054482C3800EB8200016860A0FFF7F8FCE8
:103820005B48D0F800144F482C3810F8210000F005
:10383000030000287ED161496148FCF7C9FF10B937
:1038400060A0FFF7E5FC002413E05149B1F8001433
:10385000090401EB84204FF480624D49FFF73EFBE1
:10386000574901EB84204A144949FDF7F1F8601CDF
:10387000C4B24748D0F800143A482C3800EB810015
:103880000068B4EB902FE0D34148D0F800143548DD
:103890002C3800EB81000088C0F3090038B34FF4E6
:1038A00080613B48FCF76DFCA3023949B1F8001474
:1038B00003EB01403649D1F800342A492C3901EB99
:1038C00083010988C1F309023149FFF707FB304939
:1038D000D1F8003423492C3901EB83010988C1F365
:1038E0000902374901EB84202949FDF7B1F828483E
:1038F000D0F8000428B900201A4930390860FFF7D1
:10390000F3FB38A0FFF784FC6420FDF75BFA00BFEF
:1039100000BF00BF00BF00BFBFF34F8F00BF00BF9D
:1039200000BF3848006800F4E06037490843001DD4
:10393000344900E00BE0086000BF00BF00BFBFF3E8
:103940004F8F00BF00BF00BF00BF00BFFDE72FA02B
:10395000FFF75EFC0D48006820F001000B4908608D
:103960001DE7000048000020A4A3A2A15645522D47
:10397000312E302E302D323032352D31312D313542
:103980002D31302E353900001805002000000020B0
:10399000680000204300000064090020B1BEB4CEDE
:1039A000D0E8D2AAB8FCD0C2B5C4B4F3D0A1A3BAAF
:1039B0002564D7D6BDDA0D0A00000000FFFF00081D
:1039C00000500008464C4153485F45726173655290
:1039D000616E676520412073756363657373210DA4
:1039E0000A00000041C7F8B8FCD0C2CDEAB3C9A3B1
:1039F000ACC2EDC9CFD6D8C6F4CFB5CDB3A3A10D17
:103A00000A0000000CED00E00000FA05B4FDB8FC6F
:103A1000D0C2415050B3A4B6C8B4EDCEF3A3A10DAB
:103A20000A00000002880A44C2F3090202807047BB
:103A300002030405060708090A0B0C0D0E0F1010EF
:103A4000010200000000000000000102030406075C
:103A50000809000000000102030400007C3A00088D
:103A60000000002018000000A8320008943A000866
:103A700018000020F80D0000B83200080000000017
:103A800000000000100000000100000000127A0099
:043A90000000000032
:04000005080000ED02
:00000001FF
