:020000040800F2
:10000000F80D00200D010008992F0008032D0008AD
:100010004D2F00084110000825370008000000009F
:100020000000000000000000000000003132000865
:1000300081100008000000009D2F000833320008E6
:1000400027010008270100082701000827010008F0
:1000500027010008270100082701000827010008E0
:1000600027010008270100082701000827010008D0
:1000700027010008270100082701000827010008C0
:100080004510000827010008270100082701000883
:1000900027010008270100082701000827010008A0
:1000A00027010008A53200082701000827010008E1
:1000B0002701000827010008270100082701000880
:1000C0002701000827010008270100082701000870
:1000D0002701000827010008E13600082701000871
:1000E000270100082701000827010008DFF810D0C9
:1000F00000F096F90048004731410008AFF3008056
:10010000F80D002080F308887047000006488047FB
:1001100006480047FEE7FEE7FEE7FEE7FEE7FEE7EC
:10012000FEE7FEE7FEE7FEE7A1320008ED0000086B
:10013000202A04DB203A21FA02F00021704721FA3C
:1001400002F3D040C2F120029140084319467047A3
:1001500040EA01039B0703D009E008C9121F08C049
:10016000042AFAD203E011F8013B00F8013B521EC9
:10017000F9D27047D2B201E000F8012B491EFBD240
:1001800070470022F6E710B513460A4604461946A2
:10019000FFF7F0FF204610BD30B5044600200346AF
:1001A00000E05B1C934203D2E05CCD5C401BF8D0C6
:1001B00030BD00000FB400B58DB010A909900B90B0
:1001C00000914FF0FF300A9000200C9005480690F7
:1001D000054807906A4609A80F9900F0F3F80DB09A
:1001E0005DF814FBE1030008FF0300082DE9FF5F41
:1001F0001D464FF0FF3BD5E9014691465F464FF063
:100200000008A9697F1C01988847296A82468847A7
:100210000028F6D1BAF1FF3F0CD024F4C064002EC0
:1002200019DD600614D5BAF12B0F09D0BAF12D0FE4
:100230000ED103E0584604B0BDE8F09F44F480645A
:10024000A9697F1C01988847761E8246002E02DD30
:10025000BAF1300F03D0B9F1000F26D032E0A9690E
:10026000761E44F400747F1C019888478246002E55
:1002700005DDBAF1780F06D0BAF1580F03D0B9F105
:10028000000F10D01EE0B9F1000F02D0B9F1100F2D
:1002900018D1A969761E24F400747F1C0198884740
:1002A0008246102002E0082000E00A20814609E092
:1002B00008FB0908A969761E44F400747F1C0198A4
:1002C00088478246002E05DD4946504600F065F815
:1002D0000028EDDAE96901988847A00502D46FF09B
:1002E0000100A8E7E00725D1600613D5600502D517
:1002F000C8F1000000E0404629680A1D2A6009682C
:10030000220501D5087015E0220701D5088011E00B
:1003100008600FE02868011D29600068210502D5EA
:1003200080F8008006E0210702D5A0F8008001E0F7
:10033000C0F8008038467EE72DE9F05F05460020D2
:1003400092469B4688460646814640241BE0284646
:10035000414647462246FFF7EBFE53465A46C01A2F
:10036000914110D311461846224600F06BF82D1A21
:1003700067EB01084F4622460120002100F062F899
:1003800017EB00094E41201EA4F10104DFDC4846B2
:1003900031462A464346BDE8F09F3A2800D230381D
:1003A00020F02002412A01D3A2F13700884201D374
:1003B0004FF0FF307047000002681144137801606D
:1003C00018467047D1600449516104491162002107
:1003D0001161114600F04AB8B9030008630400082F
:1003E000426842B1016811F8013B23B1521EC0E9D5
:1003F0000012184670470121C160881E704742688C
:100400005AB1C368016843B983688B4205D0491E5D
:10041000521CC0E90012002070474FF0FF307047B7
:10042000064C074D06E0E06840F0010394E8070041
:1004300098471034AC42F6D3FFF75CFE6C460008D8
:100440008C460008202A04DB203A00FA02F1002042
:1004500070479140C2F1200320FA03F31943904002
:100460007047C0B24FF4F05100F098B92DE9F34F46
:100470008BB04FF0000801F10C000C464FF0010B5F
:1004800046460DF1080A01906269012101989047E2
:10049000051E2DD0252D2CD0216A8847C0B1626958
:1004A000012101989047216A88470028F7D1411E11
:1004B00062690198904700E0761CA1690B98884713
:1004C000216A88470028F7D1E1690B988847DBE764
:1004D000A1690B9888470746A84201D1761CD3E74B
:1004E000E1690B9888477F1C02D1B8F1000F6FD0EB
:1004F00047E1002762693D463946019890472A281E
:1005000004D162690121019890470125DFF88892A2
:100510006269012101989047A0F130010A290AD2AD
:100520004F45E5DC07EB870100EB4107303FDFD4A7
:1005300045F01005ECE7E90601D46FF000476C28A0
:100540000AD04C2814D0682815D06A280DD07428F9
:100550001CD07A281AD01DE06269012101989047C9
:100560006C2802D045F0040514E045F002050DE0CA
:1005700045F020050AE0626901210198904768284A
:1005800002D045F0080505E045F4006562690121E7
:1005900001989047C4E9015765283DD019DC5828D7
:1005A0007AD00CDC452837D004DC252826D0412819
:1005B00031D131E046282FD047282CD12CE05B28C0
:1005C00077D0612828D063287CD0642823D15AE0D2
:1005D000D1E06F2848D008DC66281DD067281BD0E2
:1005E000692821D06E2816D127E0702845D07328BD
:1005F00068D0752847D078280DD14DE0A1690B98B7
:100600008847054625283FF469AFE1690B9888477C
:100610006D1C3FF46AAFB4E023466A466FF00100F8
:100620000B99AFF300809FE045F040006060A807A1
:1006300023464FF0000236D43EE0E8077FF447AF90
:100640002068011D21600068290501D506701BE79F
:10065000290701D5068017E7A90703D5F117C0E9D7
:10066000006111E706600FE745F040006060A807F1
:1006700023464FF0080216D41EE040F60E0125EA8C
:100680000100606016E045F040006060A807234666
:100690004FF00A0207D40FE045F040006060A80761
:1006A00008D5234610226FF001000B99AFF30080AC
:1006B0005AE007E0234610226FF001000B99FFF784
:1006C00095FD51E04FF000094F464B46632802D09C
:1006D0005B2807D041E02079C00601D40120A0604A
:1006E00001273AE062690121019890475E2805D10F
:1006F0004FF001096269494601989047216939B96B
:1007000000210A46534643F82120491C0829FADBF8
:10071000B0B3216969B9C11700EBD16253110AEB7B
:10072000830122F01F02821A01200B6890400343CC
:100730000B6062690121019890475D28E8D1B9F109
:10074000000F09D00020514651F82020D24341F833
:100750002020401C0828F7DB02AB224600976FF0F0
:1007600001000B99AFF3008000280CDA401C08D17F
:10077000BBF1000F05D04FF0FF300DB0BDE8F08F9A
:10078000FFE74046F9E7E90701D108F1010806440F
:100790004FF0000B78E60000CCCCCC0C7F2801D9C0
:1007A000002208E0064A02EB5002C007127800D18E
:1007B000120902F00F02012090400840704700002B
:1007C000E645000810B51E2000F046F870B90A484A
:1007D00000680A49884203D109A003F013FA05E032
:1007E0000BA003F00FFA114802F08EFA10A003F0EC
:1007F00009FA00F0BFFB10BD180000202211BBAAAF
:100800004F5441D3D0B8FCD0C2A3A10D0A000000C0
:100810004F5441CEDEB8FCD0C2A3ACCCF8D7AA412D
:10082000B7D6C7F8B4FAC2EB0D0A000000500008B2
:10083000BDF8C8EB426F6F744C6F61646572C3FCA6
:10084000C1EED0D00D0A000010B5024802F028F920
:1008500010BD00000409002010B50446642004FB0C
:1008600000F10CA003F0CEF90CE0642000F088FE4B
:1008700010480079772805D101210E4803F098FE31
:10088000012010BD201EA4F10101CCB2EDD100BFAA
:10089000F7E700002564206D7320C4DACAE4C8EBD2
:1008A000207720A3ACBDF8C8EBC3FCC1EED0D00DBF
:1008B0000A000000000500202DE9F04F89B0044631
:1008C0000E4606200890152007900020069000256F
:1008D000ED48006800285DD10121EC4803F068FE76
:1008E00020783138072850D2DFE800F0040D1D27AA
:1008F000333D4700E6A003F085F9142002F070FCB8
:1009000000F038FB45E0E5A003F07CF9DE48006824
:1009100040F00600DC4908600020EE49C1F80404FC
:10092000C1F8080435E0ECA003F06CF9D648006883
:1009300040F00800D44908602BE0EBA003F062F916
:1009400002F0E8FFEC49EDA003F05CF900F012FBC7
:100950001FE0EDA003F056F9CB48006840F010000E
:10096000C949086015E0F5A003F04CF9C6480068D5
:1009700040F04000C44908600BE0FEA003F042F9DB
:10098000642000F0FDFD03F069F9FCA003F03AF9E2
:1009900000BFBFE2BC48007800F0040000287CD013
:1009A000852E7BD120780128FBD1B748006820F044
:1009B0000200B54908608021E01C03F001F9C54937
:1009C000A1F80C0494F8840094F8831040EA0128FC
:1009D000C048B0F80C04404561D1BE48D0F80804C6
:1009E000401CBC49C1F80804084690F80804401EA1
:1009F00040074FEA905901EB09008022E11CFFF704
:100A0000A7FBB44890F8080400F0070000283CD188
:100A10009D48007800F02000F8B1AE48D0F80804F6
:100A20000121C1EBD00087B2002513E005EB87015F
:100A3000A84890F8000401EB00201FFA80FA4FEA62
:100A40000A2BA44800EB05214FF48072584602F0AF
:100A500019FF6D1C042DE9DB17E09E48D0F808044F
:100A60000121C1EBD000C84901EB80273946C7A05E
:100A700003F0C8F84FF480629649384600F0C6FB90
:100A800010B1CBA003F0BEF800BF4FF0FF3301223E
:100A900008A9CD4802F0D6F808E0A1E00BE04FF03D
:100AA000FF33012207A9C84802F0CCF88521774816
:100AB00003F07EFD2EE2012EFCD120780428F9D12E
:100AC000431F012208A9C04802F0BCF8814890F8F1
:100AD000080400F0070000284ED06B48007800F0B2
:100AE000200090B37B4890F8080400F00707FF202F
:100AF00000EBC7104FEA10287648D0F80804C0F37E
:100B0000CF0900251EE005EB8901724890F800042A
:100B100001EB00201FFA80FA4FEA0A2BA8F101002E
:100B2000A84203D1F801A0EB052001E04FF480704A
:100B30000590059882B2674800EB0521584602F0FF
:100B4000A1FE6D1C4545DED316E0FFE7614890F835
:100B500008044007870D5F48D0F80804C0088A4998
:100B600001EB80283A465B49404600F04FFB10B14C
:100B70008FA003F047F800BF4348006820F004004E
:100B8000414908600846007800F0200018B3084684
:100B9000006820F0200008604E48D0F80804C10129
:100BA0004C48D0F800245448143800EB820001600F
:100BB0004848D0F800245048143800EB82000168FF
:100BC00082A003F01FF802F089FF642000F0D8FC37
:100BD00000F0D0F99EE1642000F0D2FC03F03EF872
:100BE0002948007800F00800002834D01A2E2AD1B5
:100BF00006A806A906AA06ABCDE903210590CDE912
:100C00000103009180A12046FFF7D4FA082816D1ED
:100C100020213948FFF7B5FA1A2221463648FFF756
:100C200097FA02F05BFF7FA002F0ECFF1648006825
:100C300020F008001449086000F09CF906E07CA050
:100C400002F0E0FF02E07FA002F0DCFF31460F4837
:100C500003F0AEFC5EE10C48007800F010000028C4
:100C60000ED0012E0DD1207831280BDB20783928C9
:100C700008DC207831381749C1F800040846EBE059
:100C800023E11AE115E1000000000020000500202A
:100C9000B2C1B3FD41C7F80D0A000000CDA8B9FDEF
:100CA000586D6F64656DD0ADD2E9A3ACB4AEBFDA58
:100CB000494150CFC2D4D841C7F8B3CCD0F2A3AC8D
:100CC000C7EBCAB9D3C362696EB8F1CABDCEC4BCA2
:100CD000FE0D0A0050000020C9E8D6C3B0E6B1BE40
:100CE000BAC50D0A00000000B2E9D1AFB0E6B1BE4E
:100CF000BAC50D0A0000000030000020B0E6B1BE09
:100D0000BAC53A25730D0A00CFF2CDE2B2BF466CE8
:100D1000617368CFC2D4D8B3CCD0F2A3ACCAE4C854
:100D2000EBD0E8D2AACAB9D3C3B5C4BFE9B1E0BA1F
:100D3000C5A3A8317E39A3A90D0A0000CAB9D3C33F
:100D4000CDE2B2BF466C617368C4DAB5C4B3CCD02F
:100D5000F2A3ACCAE4C8EBD0E8D2AACAB9D3C3B5EF
:100D6000C4BFE9B1E0BAC5A3A8317E39A3A90D0A71
:100D700000000000D6D8C6F40D0A0000CEB4D6AAF2
:100D8000C3FCC1EE0D0A0000005000086F74612022
:100D9000666C61736820314B2061646472206174F9
:100DA000203078253038582E2E2E0D0A00000000F5
:100DB000464C4153485F5772697465206661696C9F
:100DC0006564210D0A0000004C0900204F54415F6A
:100DD000496E666F2E4669726D776172654C656EFD
:100DE0005B557064617465412E5570646174615F18
:100DF000415F66726F6D5F5732355136345F4E75A5
:100E00006D5D3A25640D0A005645522D25642E2548
:100E1000642E25642D25642F25642F25642D2564DB
:100E20003A256400B0E6B1BED5FDC8B70D0A000092
:100E3000B0E6B1BEBAC5B8F1CABDB4EDCEF30D0A85
:100E400000000000B0E6B1BEBAC5B3A4B6C8B4EDA8
:100E5000CEF30D0A00000000D0F800142FA002F01D
:100E6000D1FE3848006840F026003649086000206E
:100E70003549C1F80404C1F8080400213248D0F80B
:100E80000024324800EB820001602F4991F80014E1
:100E9000491EC8B202F0DAFC2B48D0F800142C48E6
:100EA00002F0B0FE2748006820F0100025490860D5
:100EB00006E028A002F0A6FE02E029A002F0A2FEB1
:100EC00031462B4803F074FB24E01E48007800F004
:100ED0004000F8B1012E1AD12078312813DB207898
:100EE000392810DC207831381749C1F8000415483A
:100EF000006840F00100134908600846006820F0CF
:100F00004000086006E013A002F07CFE02E014A09E
:100F100002F078FE09B0BDE8F08F00005570646102
:100F20007465412E5570646174615F415F66726FD4
:100F30006D5F5732355136345F4E756D203A2564FA
:100F40000D0A000000000020500000201C000020BE
:100F500028460008B1E0BAC5B4EDCEF30D0A000092
:100F6000CAFDBEDDB3A4B6C8B4EDCEF30D0A0000D1
:100F70000005002010B50CA002F044FE0BA002F00A
:100F800041FE0EA002F03EFE12A002F03BFE16A0B3
:100F900002F038FE19A002F035FE1FA002F032FE6A
:100FA00024A002F02FFE10BD0D0A00005B315DB2DF
:100FB000C1B3FD41C7F80D0A000000005B325DB40B
:100FC000AEBFDA494150CFC2D4D841C7F8B3CCD074
:100FD000F20D0A005B335DC9E8D6C34F5441B0E659
:100FE000B1BEBAC50D0A00005B345DB2E9D1AF4FA6
:100FF0005441B0E6B1BEBAC50D0A00005B355DCF05
:10100000F2CDE2B2BF466C617368CFC2D4D8B3CC24
:10101000D0F20D0A000000005B365DCAB9D3C3CD23
:10102000E2B2BF466C617368C4DAB3CCD0F20D0A89
:10103000000000005B375DD6D8C6F40D0A00000042
:1010400000BFFEE710B5024800F04AF910BD0000ED
:101050009409002030B590F840500124AC40C56B95
:101060006C60046863604468102C04D10468A2605A
:101070000468E16003E00468A1600468E26030BDD8
:10108000704772B600BFFEE710B500F047FB08B12D
:10109000012010BD00BF25200249C86000BF00200C
:1010A000F7E70000002002400021074AD16107490C
:1010B000096941F00401054A11611146096941F0CD
:1010C0004001116170470000D80900200020024053
:1010D0000021074AD1610749096941F00201054A27
:1010E000116111464861096941F040011161704781
:1010F000D8090020002002400022054BDA61054A91
:10110000126942F00102034B1A610180704700002E
:10111000D80900200020024000201E49C96801F0C3
:10112000100139B11C49C96941F002011A4AD16163
:1011300040F010001749C96801F0040139B116499F
:10114000C96941F00101144AD16140F0040011491C
:10115000C96901F0010169B10F49C96941F0040190
:101160000D4AD16100BF0B49C96921F00101094A4B
:10117000D16100BF00BF40F20111884206D105498C
:10118000C96921F00101034AD16101E00149C86048
:1011900000BF704700200240D809002070B5044607
:1011A00000F00EFD054609E0601C38B124B100F0E6
:1011B00007FD401BA04201D9032070BD1248C06842
:1011C00000F001000028EFD10F48C06800F02000B7
:1011D00020B100BF20200C49C86000BF0A48C06889
:1011E00000F0100048B90848C06900F0010020B9BB
:1011F0000548C06800F0040018B1FFF78DFF01201A
:10120000DBE70020D9E70000002002402DE9F0478D
:1012100005460F461646B846F01C4FEA900905F001
:10122000030010B10120BDE8F087B5F1006F03D3D2
:10123000A8191049884201D90120F4E7FFF724FFDB
:1012400008B10120EFE700240EE058F824C005EBB8
:10125000840162460023022000F008FA18B100F071
:10126000FBF90120DFE7641C4C45EED300F0F4F9F4
:101270000020D8E7FFFF0008014609B901207047A8
:101280000868006820F001000A68106000200A6801
:1012900010600A6850600A6890600A68D0600F4A5F
:1012A0000868801A1422B0FBF2F0800008640B4832
:1012B0000838C86391F8402001209040CA6B506004
:1012C00000208862C86208634863886381F821004F
:1012D00000BF81F8200000BF00BFD0E70800024037
:1012E00070B50446E06B05682068066894F8401005
:1012F000042088402840002846D006F0040000283A
:1013000042D02068006800F0200028B920680068FA
:1013100020F004002168086057492068884201D104
:10132000042027E0544914312068884201D140202C
:1013300020E0514928312068884201D1001519E088
:101340004D493C312068884202D14FF4804011E081
:10135000494950312068884202D14FF4802009E089
:10136000454964312068884202D14FF4800001E091
:101370004FF08060404908394860E06A00287AD020
:101380002046E16A884776E094F8401002208840C1
:101390002840A0B306F0020088B32068006800F07F
:1013A000200040B92068006820F00A002168086029
:1013B000012084F8210030492068884201D10220B0
:1013C00028E02D4914312068884201D1202021E0F5
:1013D000294928312068884201D140151AE0264960
:1013E0003C312068884202D14FF4005012E022497B
:1013F00050312068884203D14FF400300AE017E0F2
:101400001D4964312068884202D14FF4001001E088
:101410004FF0007018490839486000BF002084F878
:10142000200000BFA06A30B32046A16A884722E0AE
:1014300094F84010082088402840E0B106F00800E9
:10144000C8B12068006820F00E002168086094F898
:10145000401001208840E16B48600120A06384F8BF
:10146000210000BF002084F8200000BF206B10B1D5
:101470002046216B884770BD0800024001460022CB
:1014800009B901207047164B0868C01A1423B0FB35
:10149000F3F08000086412480838C863022081F81D
:1014A00021000868026843F6F0708243D1E9010325
:1014B0001843CB6818430B6918434B6918438B6971
:1014C0001843CB6918430243086802600020886310
:1014D000012081F82100002081F8200000BFD1E721
:1014E000080002402DE9F04104460D4616461F460D
:1014F0004FF0000800BF94F82000012802D102201C
:10150000BDE8F081012084F8200000BF94F821009C
:1015100001282CD1022084F821000020A06320683B
:10152000006820F00100216808603B4632462946E9
:101530002046FFF78FFDE06A30B12068006840F078
:101540000E00216808600BE02068006820F00400AD
:10155000216808602068006840F00A00216808607F
:101560002068006840F001002168086006E000BFC4
:10157000002084F8200000BF4FF002084046BFE77B
:1015800070B5044600F01CFB06462546681C10B1E9
:1015900004480078054400BF00F012FB801BA842FD
:1015A000FAD370BD0C0000202DE9F04104460E4630
:1015B0000127002500BF2648007E012802D1022015
:1015C000BDE8F08101202249087600BF206802288A
:1015D00013D14CF25030FFF7E1FD90BB0120FFF733
:1015E00063FD4CF25030FFF7D9FD074619480069FA
:1015F00020F004001749086123E04CF25030FFF757
:10160000CDFDF0B94FF0FF303060A56812E02846FC
:10161000FFF75EFD4CF25030FFF7C0FD07460D4866
:10162000006920F002000B4908610FB1356007E046
:1016300005F58065D4E9021001EB8020A842E6D8C8
:1016400000BF00BF00200249087600BF3846B7E758
:10165000D8090020002002400348006940F08000C3
:101660000149086100207047002002402DE9FE4F2B
:1016700005468B4617469846012600240020029016
:1016800000BF2448007E012802D10220BDE8FE8F61
:1016900001202049087600BF4CF25030FFF77EFD54
:1016A000064686BB012D02D10120029006E0022DE4
:1016B00002D10220029001E00420029000241EE0EA
:1016C0002201B946C24648465146FEF731FD80B276
:1016D0000190022000FB04B000900199FFF70CFD7F
:1016E0004CF25030FFF75AFD06460B48006920F0D7
:1016F00001000949086106B104E0601CC4B2029807
:101700008442DDDB00BF00BF00200249087600BF35
:101710003046BBE7D80900200020024000200849DD
:10172000096901F0800151B10649054A5160064935
:1017300051601146096901F0800101B10120704733
:101740000020024023016745AB89EFCD2DE9F04130
:1017500002460B46002080E00127874007EA03018C
:10176000002979D0404F4FEA900C57F82C4087075A
:101770004FEA177C0F2707FA0CF73C403B4FBA4261
:1017800001D100270FE03A4FBA4201D101270AE008
:10179000384FBA4201D1022705E0374FBA4201D192
:1017A000032700E004274FEA807C4FEA1C7C07FAFD
:1017B0000CF7A74231D1314F3F688F43DFF8BCC0EF
:1017C000CCF800700CF104073F688F430CF1040C57
:1017D000CCF80070294F0C373F688F43DFF89CC06E
:1017E0000CF10C0CCCF80070ACF104073F688F438F
:1017F000ACF1040CCCF8007087074FEA177C0F2778
:1018000007FA0CF4184F4FEA900C57F82CC02CEA4A
:10181000040C4FEA900847F828C0FF2901D8174662
:1018200000E0171D3D46FF2901D8870002E0A0F126
:101830000807BF003E462F684FF00F0C0CFA06FC5D
:1018400027EA0C074FF0040C0CFA06FC47EA0C07D9
:101850002F60D7688F43D760401C23FA00F7002F12
:101860007FF47AAFBDE8F081080001400008014034
:10187000000C014000100140001401400004014030
:101880002DE9F8470346002294466EE14FF0010827
:1018900008FA02F4D1F8008008EA0400A0427DD1E1
:1018A000DFF8DCA2D1F80480A8EB0A09D0453AD0D1
:1018B00014DCB8F1030F50D009DCB8F1000F31D0BF
:1018C000B8F1010F1CD0B8F1020F49D120E0B8F1F6
:1018D000110F18D0B8F1120F42D11EE0B9F5881FD0
:1018E00025D006DCB9F5803F20D0B9F5801F37D16F
:1018F0001AE0B9F5001F18D0B9F5041F30D117E070
:10190000D1F80CC02DE0D1F80C8008F1040C28E0CF
:10191000D1F80C8008F1080C23E0D1F80C8008F114
:101920000C0C1EE000BF00BF00BF00BF00BF00BF27
:10193000D1F80880B8F1000F02D14FF0040C0BE091
:10194000D1F80880B8F1010F03D14FF0080C1C61E9
:1019500002E04FF0080C5C6103E04FF0000C00E087
:1019600000BF00BFFF2801D8984601E003F104083A
:101970004646FF2802D84FEA820803E0A2F1080891
:101980004FEA88084746D6F800804FF00F0909FA59
:1019900007F928EA09080CFA07F900E088E048EAA4
:1019A0000908C6F80080D1F8048008F08058B8F122
:1019B000805F7DD100BFDFF8CC81D8F8188048F077
:1019C0000108DFF8C091C9F81880C846D8F8188017
:1019D00008F00108CDF8008000BF00BF4FEAB93819
:1019E0004FEA920958F829504FEA82784FEA18795D
:1019F0004FF00F0808FA09F825EA0805DFF8888192
:101A0000434502D14FF0000816E0DFF880814345DE
:101A100002D14FF001080FE0DFF87481434502D195
:101A20004FF0020808E0DFF86C81434502D14FF027
:101A3000030801E04FF004084FEA82794FEA197970
:101A400008FA09F848EA0505DFF84C814FEA9209DF
:101A500048F82950D1F8048008F48018B8F5801FA0
:101A60000AD1DFF83881D8F8008048EA0008DFF8AA
:101A70002C91C9F8008009E0DFF82081D8F80080B7
:101A800028EA0008DFF81491C9F80080D1F8048032
:101A900008F40018B8F5001F10D1DFF8008108F134
:101AA0000408D8F8008048EA0008DFF8F09000E069
:101AB0005AE009F10409C9F800800DE0DFF8DC8084
:101AC00008F10408D8F8008028EA0008DFF8CC9074
:101AD00009F10409C9F80080D1F8048008F400383D
:101AE000B8F5003F0ED1DFF8B480A8F10408D8F8AB
:101AF000008048EA0008DFF8A490A9F10409C9F8B9
:101B000000800DE0DFF89480A8F10408D8F8008088
:101B100028EA0008DFF88490A9F10409C9F80080D8
:101B2000D1F8048008F48038B8F5803F0ED1DFF892
:101B30006C80A8F10808D8F8008048EA0008DFF8AF
:101B40005C90A9F10809C9F800800DE0DFF84C802D
:101B5000A8F10808D8F8008028EA0008DFF83C90CF
:101B6000A9F10809C9F80080521CD1F8008028FAB0
:101B700002F8B8F1000F7FF489AEBDE8F8870000E5
:101B8000000011100010024000080140000C01404C
:101B90000010014000140140080001400804014009
:101BA00010B5C26821EA020302EA010443EA0443D1
:101BB000036110BD0AB1016101E00B0403617047CC
:101BC00001480068704700000400002003480068D6
:101BD000034909780844014908607047040000205F
:101BE0000C00002010B50848006840F010000649BD
:101BF0000860032000F0CAF80F2000F007F800F09A
:101C00002BF8002010BD00000020024070B50446F3
:101C10000E4800784FF47A71B1FBF0F00C49096876
:101C2000B1FBF0F5284600F0E1FD08B1012070BDE0
:101C3000102C07D200222146501E00F069F80548FA
:101C4000046001E00120F2E70020F0E70C00002032
:101C5000100000200800002008B500BF114880696E
:101C600040F001000F4988610846806900F00100DA
:101C7000009000BF00BF00BF0846C06940F0805020
:101C8000C8610846C06900F08050009000BF00BFE6
:101C900000BF0549486820F0E06040F000704860EF
:101CA00000BF08BD001002400000014010B5014611
:101CB0000846002817DB00F01F0301229A400B4B57
:101CC000440943F8242000BF00BF00BFBFF34F8F7B
:101CD00000BF00BF00BF00BF00BF00BFBFF36F8FDA
:101CE00000BF00BF00BF00BF10BD000080E100E0EA
:101CF00001460846002809DB00F01F0301229A4034
:101D000043099B0003F1E023C3F8002100BF7047A3
:101D10002DE9F05F80460D461646002701F082FF50
:101D2000074639462A46334601F00700C0F1070A44
:101D3000BAF1040F02D94FF0040A01E0C0F1070A1A
:101D4000D14600F1040ABAF1070F02D24FF0000A9F
:101D500001E0A0F1030AD4464FF0010A0AFA09FA99
:101D6000AAF1010A0AEA020A0AFA0CFA4FF0010B78
:101D70000BFA0CFBABF1010B0BEA030B4AEA0B0469
:101D80002146404601F056FFBDE8F09F00BF00F03D
:101D90000702064B19684FF6FF031940044B0B432B
:101DA00043EA0221014B196000BF70470CED00E0CF
:101DB0000000FA0570B504460D460CB9012070BD4F
:101DC0005A48006800F00700A8420ED25748006841
:101DD00020F007002843554908600846006800F0D5
:101DE0000700A84201D00120E9E7207800F00200B6
:101DF00002281DD1207800F00400042805D14C48A9
:101E0000406840F4E0604A494860207800F00800EB
:101E1000082805D14648406840F46050444948606D
:101E20004348406820F0F000A168084340494860FA
:101E3000207800F0010078B36068012806D13C48A2
:101E4000006800F4003090B90120B8E7606802280B
:101E500006D13748006800F0007040B90120AEE7B5
:101E60003348006800F0020008B90120A7E73048B5
:101E7000406820F00300616808432D494860FFF77F
:101E80009FFE064609E0FFF79BFE801B41F288316A
:101E9000884202D9032092E707E02548406800F015
:101EA0000C006168B0EB810FEDD12048006800F0B4
:101EB0000700A8420ED91D48006820F007002843FB
:101EC0001A4908600846006800F00700A84201D0DF
:101ED000012074E7207800F00400042807D114489A
:101EE000406820F4E060E1680843114948602078C8
:101EF00000F00800082808D10D48406820F4605020
:101F0000216940EAC1000A49486000F03FF80849E9
:101F10004968C1F30311074A515CC840064908608B
:101F200006480068FFF772FE002048E700200240E4
:101F300000100240CE4500081000002008000020DC
:101F400001480068704700001000002000B5FFF74E
:101F5000F7FF04494968C1F30221034A515CC840B4
:101F600000BD000000100240DE45000800B5FFF78C
:101F7000E7FF04494968C1F3C221034A515CC840E4
:101F800000BD000000100240DE45000870B50021D1
:101F90000022002400230020134D696801F00C0585
:101FA000F5B1042D02D0082D19D101E00F4819E038
:101FB0000F4DC1F38346AB5D01F4803555B10A4D39
:101FC0006D68C5F340450B4E725D084D5D43B5FB32
:101FD000F2F402E0084D03FB05F4204602E000BFE6
:101FE000024800BF00BF70BD0010024000127A001E
:101FF000BC450008CC45000800093D00F8B5044682
:102000000CB90120F8BD207800F00100002878D03C
:10201000F848406800F00C0004280CD0F5484068EF
:1020200000F00C00082811D1F248406800F480301C
:10203000B0F5803F0AD1EF48006800F40030002876
:102040005FD0606800285CD10120DBE700BF6068DA
:10205000B0F5803F06D1E748006840F48030E5499C
:10206000086028E0606858B9E248006820F48030D1
:10207000E04908600846006820F4802008601AE003
:102080006068B0F5A02F0BD1DA48006840F48020DA
:10209000D84908600846006840F4803008600AE0CB
:1020A000D448006820F48030D249086008460068AF
:1020B00020F48020086000BF606888B1FFF780FDD1
:1020C000054606E0FFF77CFD401B642801D903208C
:1020D00098E7C848006800F400300028F2D010E00B
:1020E000FFF76EFD054606E0FFF76AFD401B64281A
:1020F00001D9032086E7BF48006800F400300028BB
:10210000F2D1207800F00200022857D1B948406887
:1021100000F00C0050B1B748406800F00C000828EF
:1021200018D1B448406800F4803098B9B1480068CC
:1021300000F0020020B12069012801D0012061E7F0
:10214000AC48006820F0F800616940EAC100A94984
:10215000086033E02069E8B10120A7490860FFF773
:102160002FFD054606E0FFF72BFD401B022801D995
:10217000032047E79F48006800F002000028F2D0E3
:102180009C48006820F0F800616940EAC100994964
:10219000086013E0002098490860FFF711FD05462C
:1021A00006E0FFF70DFD401B022801D9032029E7B7
:1021B0009048006800F002000028F2D1207800F07A
:1021C000080008282DD1A069B8B101208B4908600A
:1021D000FFF7F6FC054606E0FFF7F2FC401B02287D
:1021E00001D903200EE78348406A00F0020000286E
:1021F000F2D0012000F00CFF13E000207F490860BE
:10220000FFF7DEFC054606E0FFF7DAFC401B02287C
:1022100001D90320F6E67748406A00F00200002862
:10222000F2D1207800F00400042873D1002771480F
:10223000C06900F0805070B900BF6E48C06940F0BE
:1022400080506C49C8610846C06900F08050009019
:1022500000BF00BF01276A48006800F48070B0B971
:102260006748006840F4807065490860FFF7A8FC83
:10227000054606E0FFF7A4FC401B642801D90320B3
:10228000C0E65F48006800F480700028F2D000BF0C
:10229000E068012806D15748006A40F0010055491E
:1022A000086227E0E06858B95248006A20F001004F
:1022B000504908620846006A20F00400086219E0EC
:1022C000E06805280BD14B48006A40F004004949FA
:1022D00008620846006A40F0010008620AE04548CA
:1022E000006A20F00100434908620846006A20F0B5
:1022F0000400086200BFE068A0B1FFF761FC05467A
:1023000009E0FFF75DFC401B41F28831884202D9A9
:10231000032077E622E03748006A00F00200002838
:10232000EFD012E0FFF74CFC054608E0FFF748FC51
:10233000401B41F28831884201D9032062E62D48D2
:10234000006A00F002000028F0D1012F05D12948D1
:10235000C06920F080502749C86100BFE069C8B358
:102360002448406800F00C00082860D0E06902288A
:1023700048D1002020490866FFF722FC054606E008
:10238000FFF71EFC401B022801D903203AE619483A
:10239000006800F000700028F2D1206AB0F5803F9C
:1023A00007D11448406820F40030A168084311495F
:1023B0004860D4E9080108430E49496821F47411C2
:1023C00008430C49486001200B490866FFF7F8FBF9
:1023D000054607E03DE0FFF7F3FB401B022801D96B
:1023E00003200FE60348006800F000700028F2D0D8
:1023F0002FE00000001002400000424280044242F0
:1024000000700040002014490866FFF7D9FB05461C
:1024100006E0FFF7D5FB401B022801D90320F1E5B8
:102420000E48006800F000700028F2D111E0E06969
:10243000012800D1E6E50948466806F48031206AA3
:10244000814204D106F47011606A814201D00120FA
:10245000D8E50020D6E5000000004242001002400E
:1024600010B504460CB9012010BD606A38B9606827
:10247000B0F5827F00D105E00021E16102E000219A
:10248000216161610021A16294F8510028B9002006
:1024900084F85000204600F043F8022084F85100F0
:1024A0002068006820F0400021680860A08800F4DF
:1024B0008270218901F404410843A18901F400617B
:1024C0000843217C01F002010843217D01F0010154
:1024D0000843218B01F400710843217F01F038018A
:1024E00008432021095D01F080010843218D01F49A
:1024F00000510843216808600421A06901EA1040E6
:10250000216848602068C06920F400602168C861C3
:1025100000206065012084F851000020A4E700003D
:1025200010B586B0044600200290039004900590F8
:102530001949206888422DD100BF1848806940F4AD
:102540008050164988610846806900F480500190E7
:1025500000BF00BF00BF0846806940F004008861EA
:102560000846806900F00400019000BF00BFA02071
:102570000290022003900320059002A90848FFF76B
:102580007FF94020029000200390049002A90448A3
:10259000FFF776F906B010BD003001400010024090
:1025A000000801402DE9FE4F04460F4690461D46A7
:1025B0000C9E01200190FFF703FB814694F851B077
:1025C00060680290AA46BBF1010F0BD00298B0F5EB
:1025D000827F04D1A06810B9BBF1040F02D00220A1
:1025E000BDE8FE8F1FB1B8F1000F00D00DB901207A
:1025F000F6E700BF94F85000012801D10220EFE770
:10260000012084F8500000BF94F85100042802D043
:10261000052084F8510000206065C4F83880E58703
:10262000A5872763E586A586206460642068006826
:1026300000F04000402805D02068006840F04000CD
:1026400021680860E068B0F5006F52D1606810B191
:10265000BAF1010F09D1206B00882168C860206B96
:10266000801C2063E08E401EE0863BE0206880688E
:1026700000F00200022810D1E08E70B1019801280C
:102680000BD1206B00882168C860206B801C206300
:10269000E08E401EE086002001902068806800F0F7
:1026A000010068B1E08F58B12068C068A16B088054
:1026B000A06B801CA063E08F401EE087012001908A
:1026C000FFF77EFAA0EB0900B0420BD3701C48B1B3
:1026D000012084F8510000BF002084F8500000BFA2
:1026E00003207DE7E08E0028C0D1E08F0028BDD117
:1026F00052E0606810B1BAF1010F09D1206B007887
:1027000021680873206B401C2063E08E401EE08629
:102710003CE02068806800F00200022810D1E08EC2
:1027200070B1019801280BD1206B007821680873E3
:10273000206B401C2063E08E401EE086002001904C
:102740002068806800F0010068B1E08F58B120680F
:10275000C068A16B0870A06B401CA063E08F401E96
:10276000E08701200190FFF72BFAA0EB0900B042AF
:1027700001D3701C00B94EB9012084F8510000BF8C
:10278000002084F8500000BF032029E7E08E0028D5
:10279000BFD1E08F0028BCD14A463146204600F028
:1027A0004BFC40B12020606500BF002084F8500041
:1027B00000BF012014E7A06850B900BF00200090BE
:1027C0002068C068009020688068009000BF00BF4B
:1027D000012084F8510000BF002084F8500000BFA1
:1027E000606D08B10120FBE60020F9E670B50446F3
:1027F0002546681EB0F1807F01D301200FE0681EDE
:102800004FF0E02148610F214FF0FF3001F012FA44
:1028100000204FF0E021886107200861002070BD92
:1028200070477047704770B504462068C5682068D7
:10283000066906F00200022819D105F002000228FC
:1028400015D1401F21680861012020772068806928
:1028500000F0030018B12046FFF7E4FF05E0204632
:1028600000F097F8204600F095F80020207706F059
:102870000400042819D105F00400042815D1C04330
:1028800021680861022020772068806900F4407088
:1028900018B12046FFF7C6FF05E0204600F079F8A2
:1028A000204600F077F80020207706F0080008287E
:1028B00019D105F00800082815D1C0432168086126
:1028C000042020772068C06900F0030018B120467A
:1028D000FFF7A8FF05E0204600F05BF8204600F077
:1028E00059F80020207706F01000102819D105F0C3
:1028F0001000102815D1C0432168086108202077F6
:102900002068C06900F4407018B12046FFF78AFFC4
:1029100005E0204600F03DF8204600F03BF800209E
:10292000207706F0010048B105F0010030B16FF0EA
:10293000010021680861204600F02EF806F08000B2
:10294000802809D105F08000802805D1C043216886
:1029500008612046FFF764FF06F04000402809D1D7
:1029600005F04000402805D1C04321680861204699
:1029700000F020F806F02000202809D105F0200002
:10298000202805D1C043216808612046FFF749FF90
:1029900070BD70477047000010B50446034884427C
:1029A00003D180210248FFF7FBF810BDB8040020D6
:1029B000000C01407047F8B504460D46164694F8E1
:1029C000420020282DD105B10EB90120F8BD01200B
:1029D00020630020606332462946204600F0D6FD81
:1029E0000746206B012819D100BF00200090206805
:1029F0000068009020684068009000BF00BF00BFE2
:102A000000BF21680C3151E8001F41F0100021681F
:102A10000C3141E80002002AF3D100E001273846DA
:102A2000D4E70220D2E77047704710B504460CB9CE
:102A3000012010BDA06900B100E000BF94F8410082
:102A400028B9002084F84000204600F059F82420DE
:102A500084F841002068C06820F400502168C860F4
:102A6000204600F015FD2068006920F490402168A0
:102A700008612068406920F02A00216848612068C8
:102A8000C06840F400502168C860002060642020C5
:102A900084F8410084F842000020606300BFC8E76A
:102AA00010B504461249206888420BD1114880694C
:102AB00020F480400F4988614FF4C0610E48FEF752
:102AC00045FE13E00D49206888420FD10948C069CE
:102AD00020F400300749C8610C210748FEF736FE94
:102AE000E06BFEF7C9FB2620FFF7E0F810BD000001
:102AF000003801400010024000080140004400403E
:102B000010B586B004460020029003900490059012
:102B10004549206888422FD100BF4448806940F46D
:102B20008040424988610846806900F480400190F5
:102B300000BF00BF00BF0846806940F00400886104
:102B40000846806900F00400019000BF00BF4815EE
:102B50000290022003900320059002A93448FEF75A
:102B60008FFE4FF48060029000200390049002A931
:102B70002F48FEF785FE54E02E492068884250D148
:102B800000BF2A48C06940F400302849C86108469F
:102B9000C06900F40030019000BF00BF00BF0846CC
:102BA000806940F0040088610846806900F00400F4
:102BB000019000BF00BF0420029002200390032078
:102BC000059002A91A48FEF75BFE0820029000203B
:102BD0000390049002A91648FEF752FE16481749C2
:102BE0000860002048600021144881608021C16095
:102BF000002101614161202181610021C161FEF755
:102C00003DFC08B1FEF73DFA00BF0C48E0634462AA
:102C100000BF002211462620FFF77AF82620FFF792
:102C200067F806B010BD00000038014000100240F7
:102C300000080140004400406C000240940900205C
:102C4000704770472DE9F84F04460E4617469946DF
:102C50004FF0000A94F84100202850D106B117B96E
:102C60000120BDE8F88F00206064212084F8410035
:102C7000FEF7A6FF8246A784E784A068B0F5805FD0
:102C800004D1206910B90025B04602E035464FF066
:102C900000081EE05346002280212046CDF8009017
:102CA00000F0D8FC20B1202084F841000320D8E7B0
:102CB00045B9B8F80000C0F308002168486008F181
:102CC000020803E02878216848606D1CE08C401EF3
:102CD000E084E08C0028DDD15346002240212046CC
:102CE000CDF8009000F0B6FC20B1202084F841001F
:102CF0000320B6E7202084F841000020B1E702203D
:102D0000AFE700BFFEE7000070B504462068B0F1F1
:102D1000005F0ED30949206888420AD808A000F055
:102D200071FF2068FDF7EEF96568FDF78DFDA84796
:102D300002E00BA000F066FF70BD0000FF4F002016
:102D400041B7D6C7F8B4FAC2EB4D5350D3D0D0A791
:102D5000D0D4C5D0B6CFCDA8B9FD0D0A0000000073
:102D600041B7D6C7F8B4FAC2EB4D5350D3D0D0A771
:102D7000D0D4C5D0B6CFB2BBCDA8B9FDA3ACCCF8EA
:102D8000D7AA41B7D6C7F8CAA7B0DCA3A10D0A00DD
:102D900008B500BF0A48406940F001000849486191
:102DA0000846406900F00100009000BF00BF00220B
:102DB00011461020FEF7ACFF1020FEF799FF08BD6A
:102DC0000010024000B585B00020019002900390F1
:102DD000049000BF2648806940F0200024498861A3
:102DE0000846806900F02000009000BF00BF00BFCF
:102DF0000846806940F0040088610846806900F058
:102E00000400009000BF00BF00BF0846806940F08A
:102E1000080088610846806900F00800009000BF43
:102E200000BF00224FF4C0711248FEF7C3FE00221B
:102E30004FF480510F48FEF7BDFE4FF4C070019073
:102E40000120029003900220049001A90948FEF796
:102E500017FD4FF480500190012002900390022052
:102E6000049001A90348FEF70BFD05B000BD00006A
:102E700000100240000C014010B50E480E490860D9
:102E80004FF48270486000210B488160C16001618D
:102E900041614FF4007181610821C161002101622B
:102EA000416281620A21C162FFF7DAFA08B1FEF7D6
:102EB000E8F810BD003001406004002010B50B4858
:102EC0000B4908604FF4E1304860002108488160F8
:102ED000C16001610C21416100218161C161FFF785
:102EE000A4FD08B1FEF7CDF810BD00000038014088
:102EF0000409002010B51248124908604FF4E1306F
:102F0000486000210F488160C16001610C2141616E
:102F100000218161C161FFF788FD08B1FEF7B1F8BA
:102F200008480068C06840F0100006490968C86099
:102F30004FF4806204490348FFF73DFD10BD0000D7
:102F4000004400404C0900200405002000BFFEE7BB
:102F500010B500224FF480510148FEF72BFE10BD42
:102F6000000C014010B5012211030248FEF722FEB9
:102F700010BD0000000C014001B582B04FF0FF30E1
:102F8000012301AA02A900900248FFF70BFB9DF85C
:102F900004000EBD6004002000BFFEE77047000083
:102FA00010B505A000F02EFE0EA000F02BFE02A032
:102FB00000F028FE10BD00003D3D3D3D3D3D3D3D46
:102FC0003D3D3D3D3D3D3D3D3D3D3D3D3D3D3D3D31
:102FD0003D3D3D3D3D3D3D3D3D3D3D3D3D3D3D3D21
:102FE0000D0A00003D3D3D3D5B424F4F545D205377
:102FF000797374656D2053746172747570205375A4
:10300000636365737366756C213D3D3D3D0D0A003C
:1030100008B508490968C9084FF47A72B1FBF2F1A2
:103020004143009100BF00BF00994A1E0092002951
:10303000F9D108BD10000020F8B504460E4615462B
:103040003346012202212046009500F017F828B1EE
:10305000606D40F0200060650320F8BD334600221B
:1030600080212046009500F009F828B1606D40F0FD
:10307000200060650320F0E70020EEE72DE9F84F1F
:1030800004460D4690461E46DDF82890FEF798FD52
:10309000A0EB0900371AFEF793FD82462C48006822
:1030A000C0F3CB307843009045E0701C002842D03C
:1030B000FEF786FDA0EB0A00B84200D2A7BB20684D
:1030C000406820F0E000216848606068B0F5827FC9
:1030D0000DD1A068B0F5004F03D0A068B0F5806FA7
:1030E00005D12068006820F0400021680860A06ACF
:1030F000B0F5005F0DD100BF2068006820F40050DB
:10310000216808602068006840F400502168086069
:1031100000BF012084F8510000BF002084F8500057
:1031200000BF0320BDE8F88FFFE7009800B9002733
:103130000098401E0090206880682840A84201D175
:10314000012000E000204045AFD10020EAE7000068
:10315000100000202DE9F04186B006460D460027FC
:103160001DB9012006B0BDE8F081FEF7D7FA08B11D
:103170000120F7E700241CE0B00200F100604FF4EA
:10318000806101FB04080020029001200390CDF82B
:103190001080059001A902A8FEF706FA07461FB1A4
:1031A00007A000F02FFD06E00120FEF7E9F9601C02
:1031B00084B2AC42E0DB00BFFEF74EFA3846D1E7FE
:1031C000464C4153485F457261736552616E676555
:1031D0002041206661696C6564210D0A00000000D1
:1031E00070B504464025281B86B26A1E3346214628
:1031F00003A000F007FD31462046FFF7ABFF70BD8E
:1032000045726173696E672066726F6D20706167C9
:103210006520256420746F20706167652025642017
:10322000282564207061676573290D0A000000007D
:10323000704710B5FEF7CAFC10BD00B58FB028214D
:1032400005A8FCF79EFF14216846FCF79AFF0120B1
:1032500005900004069000200790012009900220AC
:103260000C90C1030D914FF4E0110E9105A8FEF7EB
:10327000C5FE08B1FDF705FF0F2000900220019068
:10328000002002904FF480600390002004900221FF
:103290006846FEF78FFD08B1FDF7F3FE0FB000BDE5
:1032A0007047000010B50248FFF7BDFA10BD0000DE
:1032B000B8040020014648880A88904204DB488808
:1032C0000A88801A80B270470888C0F580604A88F2
:1032D000104480B2F7E770B506460025746A20688E
:1032E0004069C0F3C01594F84100212805D125B1EB
:1032F0000020E084204600F0B8F820684069C0F360
:10330000801594F84200222805D125B10020E085DF
:10331000204600F074F8606C40F0100060642046B5
:10332000FFF782FB70BD70B505466C6A28680068BF
:1033300000F02000002842D1E08500BF00BF2168D6
:103340000C3151E8001F21F4807021680C3141E8F4
:103350000002002AF3D100BF00BF00BF2168143172
:1033600051E8001F21F001002168143141E80002FA
:10337000002AF3D100BF00BF00BF2168143151E81B
:10338000001F21F040002168143141E80002002AAA
:10339000F3D100BF202084F84200206B01280ED119
:1033A00000BF00BF21680C3151E8001F21F0100060
:1033B00021680C3141E80002002AF3D100BF00204F
:1033C0006063206B012804D1A18D2046FFF72BFB01
:1033D00002E02046FFF734FC70BD70B505466C6A0C
:1033E00001206063206B012805D1A08D4108204693
:1033F000FFF719FB02E02046FFF723FC70BD00BF7A
:1034000000BF02680C3252E8002F22F4907102686B
:103410000C3242E80013002BF3D100BF00BF00BF05
:103420000268143252E8002F22F0010102681432BF
:1034300042E80013002BF3D100BF016B01290ED12C
:1034400000BF00BF02680C3252E8002F22F01001CA
:1034500002680C3242E80013002BF3D100BF202198
:1034600080F8421000210163704700BF00BF02686E
:103470000C3252E8002F22F0C00102680C3242E800
:103480000013002BF3D100BF202180F841107047BA
:1034900070B504462168096921F44051E26811437E
:1034A000226811612269A1681143626941EA02053B
:1034B0002168C96841F20C62914329432268D160B6
:1034C0002168496921F44071A26911432268516160
:1034D0002D4A2168914202D1FEF748FD01E0FEF736
:1034E00035FD00EBC00101EB001162689200B1FBF9
:1034F000F2F100EBC00202EB001263689B00B2FB2A
:10350000F3F26423B2FBF3F202EBC20303EB021209
:10351000A1EB8201322202EB01116422B1FBF2F134
:1035200001F0F00100EBC00202EB001263689B00A7
:10353000B2FBF3F26423B2FBF3F201EB021200EBF5
:10354000C00101EB001163689B00B1FBF3F100EBDC
:10355000C00303EB00136668B600B3FBF6F3642602
:10356000B3FBF6F303EBC30606EB0313A1EB8301F6
:10357000322303EB01116423B1FBF3F101F00F01DE
:1035800011442268916070BD0038014077B581B068
:10359000044615460298A062A5850020606422209A
:1035A00084F842002848E16B88622848E16BC862D1
:1035B0002748E16B08630020E16B486302AE326884
:1035C0002368191D2B46E06BFDF78CFF00BF002020
:1035D000009020680068009020684068009000BF5C
:1035E00000BF206970B100BF00BF21680C3151E8F5
:1035F000001F41F4807021680C3141E80002002A6C
:10360000F3D100BF00BF00BF2168143151E8001F93
:1036100041F001002168143141E80002002AF3D191
:1036200000BF00BF00BF2168143151E8001F41F006
:1036300040002168143141E80002002AF3D100BFA4
:10364000002004B070BD000027330008DB33000801
:10365000D73200082DE9F84304460D461746984630
:10366000089E31E0701C70B3FEF7AAFAA0EB0800C8
:10367000B04200D816B90320BDE8F8832068C068BE
:1036800000F00400F8B1802D1ED0402D1CD0206821
:103690000068C0F3C000B0B100BF002000902068F7
:1036A0000068009020684068009000BF00BF20467E
:1036B000FFF7A5FE0820606400BF002084F84000EA
:1036C00000BF0120D8E7FFE7206800682840A84233
:1036D00001D1012000E00020B842C3D00020CBE798
:1036E00008B50D4800680068C0F3001098B100BF2D
:1036F00000200090084800680068009006480068B4
:103700004068009000BF00BF044800684068C0F5F2
:1037100080600349488008BD4C09002094090020BE
:103720000005002000BFFEE72DE9F043ADF5017D67
:10373000074688461546002400261EA000F062FABF
:103740002AE0281BB0F5807F02D94FF4807000E09A
:10375000281B814639194A4641A8FCF7F9FC08EBB9
:1037600004004A4601A900F0B3F84A4601A941A85D
:10377000FCF712FD30B1761C032E03D8214611A0B0
:1037800000F040FA4C44C4F30B0020B92A4621460D
:1037900013A000F037FA00BFAC42D2D346B1314695
:1037A00015A000F02FFA01200DF5017DBDE8F08392
:1037B0000020F9E7D1E9D6A4CAFDBEDDD6D02E2E71
:1037C0002E0D0A00D1E9D6A4B4EDCEF32061742009
:1037D0006F6666736574203078253038580D0A009E
:1037E000D1E9D6A4BDF8B6C8A3BA25642F2564D7FD
:1037F000D6BDDA0D0A000000CAFDBEDDD1E9D6A4AF
:10380000CAA7B0DCA3BAB7A2CFD62564B4A6B4EDDC
:10381000CEF30D0A0000000010B5044600F054F984
:10382000FFF796FBD820FFF7A7FBC4F30740FFF78D
:10383000A3FBC4F30720FFF79FFBE0B2FFF79CFB5D
:10384000FFF790FB00F0ECF810BD000070B50446E7
:1038500025042A46214603A000F0D4F92846FFF7A4
:10386000DBFF70BDB2C1B3FDBFE9202564A3ACC6C8
:10387000F0CABCB5D8D6B73A203078253036580DC6
:103880000A0000002DE9F04104460E46174600F0FC
:103890001BF9FFF75DFB0220FFF76EFBC4F3074047
:1038A000FFF76AFBC4F30720FFF766FBE0B2FFF700
:1038B00063FB002504E0705DFFF75EFB681C85B2CA
:1038C000BD42F8DBFFF74EFB00F0AAF8BDE8F0813F
:1038D0002DE9F04104460E461746FFF739FB032059
:1038E000FFF74AFBC4F30740FFF746FBC4F307208A
:1038F000FFF742FBE0B2FFF73FFB002504E0FF20AB
:10390000FFF73AFB70556D1CBD42F8D3FFF72AFB59
:10391000BDE8F08110B5C0B04FF480716846FCF787
:1039200030FC38211648FCF72CFC4FF480726946B5
:103930001448FFF7CDFF382269461148FCF708FC10
:10394000104911A000F05EF90D48016816A000F0C2
:1039500059F900240AE00A48001D00EB84000268BF
:10396000214617A000F04EF9601CC4B2052CF2DB12
:103970000349183118A000F045F940B010BD00000F
:103980001800002000FFFF0052656164204F544181
:1039900020496E666F2066726F6D20307825303654
:1039A000583A0D0A0000000020204F54415F666C19
:1039B00061673A203078253038580D0A0000000041
:1039C00020204669726D776172654C656E5B256477
:1039D0005D3A2025640D0A0020204F54415F566552
:1039E0007273696F6E3A2025730D0A0010B5044694
:1039F00000F06AF8FFF7ACFA2020FFF7BDFAC4F335
:103A00000740FFF7B9FAC4F30720FFF7B5FAE0B2B1
:103A1000FFF7B2FAFFF7A6FA00F002F810BD0000B7
:103A200010B5FFF795FA0520FFF7A6FA074C02E05C
:103A3000641E04B906E0FF20FFF79EFA00F00100C3
:103A40000028F5D100BFFFF78DFA10BDA086010058
:103A50002DE9FC5F0446894615464FF000082646CE
:103A6000CA466FF07F40844202D30020BDE8FC9F2D
:103A70000DB90020FAE76019B0F1807F02D36FF032
:103A80007F40051B1CE06FF07F40B6FBF0F0C0EB01
:103A9000006001900198301A00906FF07F4100980B
:103AA000A1EB000BA5EB08075F4500D95F46BAB252
:103AB00051463046FFF7E6FEB8443E44BA4400BFE4
:103AC000A845E0D34046D1E710B5FFF741FA0620FC
:103AD000FFF752FAFFF746FA10BD000030B5ADF51A
:103AE000017D00254FF4807101A8FCF74AFB4FF4DB
:103AF000807201A91B48FFF7EBFE4FF4807201A909
:103B000041A8FCF725FB3822174941A8FCF720FB08
:103B1000382201A941A8FCF73FFB30B913A000F0FF
:103B200071F801200DF5017D30BD174C214617A01D
:103B300000F068F82046FFF759FFFFF771FF4FF4D8
:103B4000807241A90748FFF783FF85B2294617A075
:103B500000F058F8B5F5807F01D10120E2E70020A0
:103B6000E0E7000000FFFF00180000204F5441D0A4
:103B7000C5CFA2CEDEB1E4BBAFA3ACCCF8B9FDD0CB
:103B8000B4C8EB0D0A00000000F0FF00457261733D
:103B9000696E6720736563746F722061742030787A
:103BA000253038582E2E2E0D0A000000D0B4C8EB58
:103BB000CDEAB3C93A202564D7D6BDDA0D0A000094
:103BC00070B502460B46002041F2210414E015783E
:103BD00080EA052000210CE000F400451DB184EAD4
:103BE0004005A8B203E04FF6FF7505EA40004D1C02
:103BF000E9B20829F0DB521C1D1EA3F10106B3B285
:103C0000E5D170BD0FB4054B10B503A9044A029865
:103C100000F054F810BC5DF814FB000015410008DA
:103C20001400002002480068C0F302207047000022
:103C30000CED00E010B5002804DB0A07130E054A5E
:103C4000135406E00A07140E034A00F00F031B1F6B
:103C5000D45410BD00E400E018ED00E000BF00BF48
:103C600000BFBFF34F8F00BF00BF00BF094800680F
:103C700000F4E06008490843001D0649086000BFE1
:103C800000BF00BFBFF34F8F00BF00BF00BF00BF2A
:103C900000BFFDE70CED00E00000FA0502E008C8F7
:103CA000121F08C1002AFAD170477047002001E0B6
:103CB00001C1121F002AFBD1704700002DE9FF4F00
:103CC0008DB00F460546002606E025280BD0DDE91D
:103CD0000F1290476D1C761C28780028F5D111B082
:103CE0003046BDE8F08F0024A246A1460122E949F2
:103CF00000E0044315F8013F203B02FA03F00842BC
:103D0000F7D128782A2810D06FF02F022878A0F158
:103D10003001092914D80AEB8A0102EB410144F071
:103D2000020400EB010A6D1CF0E701CF5FEA000A14
:103D300003D544F40054CAF1000A44F002046D1C97
:103D400028782E2817D115F8010F44F004042A28EA
:103D50000ED06FF02F022878A0F1300109290AD87F
:103D600009EB890102EB410100EB01096D1CF2E74F
:103D700057F8049B6D1C28786C280FD006DC4C2863
:103D800017D068280DD06A2814D104E0742810D008
:103D90007A280FD10DE044F400140AE044F48014B2
:103DA00001E044F440146978814202D104F58014A2
:103DB0006D1C6D1C28786E281ED00CDC632830D05A
:103DC00004DC00288BD0582811D19FE0642867D0EC
:103DD00069280CD164E073282DD004DC6F2872D0E0
:103DE000702804D194E075286ED078286DD0DDE974
:103DF0000F129047761C4BE1C4F30250022806D004
:103E0000032809D0042801CF09D0066040E101CF82
:103E1000F117C0E900613BE101CF068038E106708F
:103E200036E117F8040B8DF8000000208DF8010032
:103E3000EB46012003E057F804BB4FF0FF30610769
:103E40004FF0000102D40DE008F101018846494518
:103E50000FDA8045F8DB1BF808100029F4D108E0E0
:103E600008F1010188468142FADB1BF8081000299D
:103E7000F6D1DDE90F23AAEB08008146214600F0C8
:103E800031F9304400EB080604E0DDE90F121BF8BD
:103E9000010B9047B8F10108F7D221464846F2E0FD
:103EA0000A21C4F302524FF0000B0891022A04D0F9
:103EB00001CFC117032A09D00AE0FF1D27F0070729
:103EC000F7E8020108E02CE01EE01FE000B2C11795
:103ED000042A01D140B2C117021E71F1000206DAB4
:103EE0000023D0EB030063EB01012D2202E0220549
:103EF00004D52B228DF82420012203E0E20701D013
:103F00002022F7E7904653E00A210BE0102109E058
:103F100010214FF0000B44F004044FF00809089101
:103F200003E008214FF0000B0891C4F30252022A6B
:103F300004D001CF0021032A06D006E0FF1D27F0A0
:103F40000707F7E8020103E080B2042A00D1C0B2FB
:103F50004FF0000822072BD52A78702A07D0DDF809
:103F600020C08CF0100C5CEA0B0C05D00EE0402257
:103F70008DF82420012208E050EA010306D0302306
:103F80008DF824308DF8252002229046089B83F07E
:103F9000080353EA0B030BD150EA010201D1620777
:103FA00006D530228DF824204FF00108A9F101092F
:103FB0002A78582A04D038A20B9208AA0A920BE059
:103FC0003AA2F9E75B46089AFCF7B6F90B9B9B5CB3
:103FD0000A9A521E0A92137050EA0102F2D10A980C
:103FE000ADEB000000F1200B600702D524F4803413
:103FF00001E04FF00109D94502DDA9EB0B0000E01B
:10400000002000EB0B0141440890AAEB010AE003F9
:1040100006D4DDE90F232146504600F063F806443C
:104020004FF0000908E009A911F80900DDE90F12B5
:10403000904709F10109761CC145F4DBE0030CD57A
:10404000DDE90F232146504600F04CF8064404E019
:10405000DDE90F1230209047761C0899481E089021
:104060000029F5DC08E00A980A990078491C0A91B1
:10407000DDE90F129047761CBBF10001ABF1010B9B
:10408000F1DC21465046DDE90F2300F019F8064423
:104090006D1C21E6092801003031323334353637C2
:1040A0003839616263646566000000003031323384
:1040B0003435363738394142434445460000000024
:1040C0002DE9F041044600251E461746880404D415
:1040D00005E039462020B0476D1C641EF9D52846FE
:1040E000BDE8F0812DE9F041044600251E469046CA
:1040F000C80301D5302700E02027880404D505E057
:1041000041463846B0476D1C641EF9D52846BDE8C7
:10411000F081000013B50C464FF0FF3301226946D1
:104120000248FEF78FFD00981CBD00000409002026
:10413000FDF758FDFFF781F8FEF744FEFEF728FE75
:10414000FEF7BCFEFEF7D6FEFEF796FEFEF728FF52
:10415000FFF7E0FBFCF736FB31E01948008818490F
:10416000498888420AD01648FFF7A4F80446144943
:104170000A88091D50182146FCF79EFB114800785B
:1041800000F00200B0B11048D0F8040464280AD34B
:104190004FF0FF3302220DA10D48FEF753FD002022
:1041A0000949C1F804040848D0F80404401C064931
:1041B000C1F804040A20FDF7E3F900F00BF8CCE79E
:1041C00000050020000000205000002043000000F7
:1041D0004C0900202DE9F0417248007800F0010000
:1041E00000287CD07048D0F80014704850F8215056
:1041F0006D48B0F800040704AE0AC5F30908294663
:104200006BA0FFF7FFFC314671A0FFF7FBFC4146B6
:1042100076A0FFF7F7FC05F0030058B129467CA013
:10422000FFF7F0FC5F48006820F001005D4908607E
:10423000BDE8F08115B1B5F5304F09D380A0FFF787
:10424000E1FC5848006820F0010056490860EFE79B
:104250001420FEF7C5FF84A0FFF7D4FC002E33D056
:1042600085A0FFF7CFFC002428E04FF480614E4882
:10427000FBF787FF07EB84204FF480624A49FFF782
:1042800027FB834901EB84204A144749FCF7BEFF12
:1042900050B121467FA0FFF7B5FC4248006820F0EE
:1042A000010040490860C3E704F00F0028B9601C12
:1042B00081022A467EA0FFF7A5FC641CB442D4D339
:1042C000314681A0FFF79EFCB8F1000F25D0414692
:1042D00084A0FFF797FC4FF48061334800E05FE073
:1042E000FBF74FFF07EB862042462F49FFF7F0FA16
:1042F000674901EB862042462B49FCF787FF48B10E
:104300007FA0FFF77FFC2748006820F001002549C7
:1043100008608DE781A0FFF775FC85A0FFF772FCB0
:104320002A4639465A48FFF7FFF918B185A0FFF72A
:1043300069FC02E089A0FFF765FC1B48D0F8000487
:1043400048B900201949091F0860FFF7C7FB10B1E1
:1043500086A0FFF757FC8CA0FFF754FC4FF4FA70CF
:10436000FDF70EF900BF00BF00BF00BF00BFBFF3E5
:104370004F8F00BF00BF00BF8B48006800F4E060B3
:104380008A490843001D8849086000BF00BF00BF7C
:10439000BFF34F8F00BF00BF00BF00BF00BFFDE7EE
:1043A00000BF45E700000020500000201C00002056
:1043B000B1BEB4CED0E8D2AAB8FCD0C2B5C4B4F372
:1043C000D0A1A3BA2564D7D6BDDA0D0A000000003B
:1043D000B1BEB4CED0E8D2AAB8FCD0C2B5C4D2B374
:1043E000CAFDA3BA2564D2B30D0A0000B1BEB4CE93
:1043F000D0E8D2AACAA3D3E0B8FCD0C2B5C4B4F303
:10440000D0A1A3BA2564D7D6BDDA0D0A00000000FA
:10441000B4EDCEF3A3BAB9CCBCFEB3A4B6C8B1D840
:10442000D0EBCAC734D7D6BDDAB6D4C6EBA3A1B594
:10443000B1C7B0B3A4B6C8A3BA25640D0A00000082
:10444000B4EDCEF3A3BAB9CCBCFEB3A4B6C8CEDEED
:10445000D0A7BBF2B3ACB3F6466C617368B7B6CE07
:10446000A7A3A10D0A000000466C617368B2C1B336
:10447000FDCDEAB3C90D0A00BFAACABCD0B4C8EBCF
:10448000CDEAD5FBD2B3CAFDBEDD2E2E2E0D0A001D
:1044900000500008B4EDCEF3A3BAB5DA2564D2B368
:1044A000D0B4C8EBCAA7B0DCA3A10D0A000000007D
:1044B000D0B4C8EBBDF8B6C8A3BA25642F2564D71D
:1044C000D6BDDA0D00000000CDEAD5FBD2B3CAFD9F
:1044D000BEDDD0B4C8EBCDEAB3C9A3BA2564D2B36C
:1044E0000D0A0000BFAACABCD0B4C8EBCAA3D3E06F
:1044F000CAFDBEDDA3BA2564D7D6BDDA0D0A000019
:10450000B4EDCEF3A3BACAA3D3E0CAFDBEDDD0B4E6
:10451000C8EBCAA7B0DCA3A10D0A0000CAA3D3E070
:10452000CAFDBEDDD0B4C8EBCDEAB3C90D0A0000A8
:10453000BFAACABCCAFDBEDDD1E9D6A42E2E2E0D5F
:104540000A000000BEAFB8E6A3BACAFDBEDDD1E9DD
:10455000D6A4CAA7B0DCA3A10D0A0000CAFDBEDD27
:10456000D1E9D6A4CDA8B9FD0D0A0000BEAFB8E6CA
:10457000A3BA4F5441D0C5CFA2B1A3B4E6CAA7B0E5
:10458000DCA3A10D0A00000041C7F8B8FCD0C2CDE1
:10459000EAB3C9A3ACC2EDC9CFD6D8C6F4CFB5CD66
:1045A000B3A3A10D0A0000000CED00E00000FA0525
:1045B00002880A44C2F3090202807047020304051C
:1045C000060708090A0B0C0D0E0F1010010200005F
:1045D00000000000000001020304060708090000B3
:1045E000000001020304DDDDDDDDDCBBBBDDDDDD64
:1045F000DDDDDDDDDDDD988888888888888877774F
:1046000077777788888885555556666666666666C4
:104610006666666888888333333222222222222209
:1046200022222228888D0000CDA8B9FD586D6F6424
:10463000656DD0ADD2E9A3ACCFF2CDE2B2BF466C8E
:10464000617368B5DA2564B8F6BFE9CFC2D4D8B3D0
:10465000CCD0F2A3ACC7EBCAB9D3C362696EB8F1D0
:10466000CABDCEC4BCFE0D0A000000008C46000886
:1046700000000020180000009C3C0008A446000830
:1046800018000020E00D0000AC3C00080000000015
:1046900000000000100000000100000000127A007D
:0446A0000000000016
:04000005080000ED02
:00000001FF
