:020000040800F2
:10500000A00D00200551000849700008BD6B000884
:1050100045700008E3530008057800080000000010
:105020000000000000000000000000002D710008DA
:1050300025540008000000004D7000082F71000882
:105040001F5100081F5100081F5100081F51000880
:105050001F5100081F5100081F5100081F51000870
:105060001F5100081F5100081F5100081F51000860
:105070001F5100081F5100081F5100081F51000850
:10508000E95300081F5100081F5100081F51000874
:105090001F5100081F5100081F5100081F51000830
:1050A0001F510008A17100081F5100081F5100087E
:1050B0001F5100081F5100081F5100081F51000810
:1050C0001F5100081F5100081F5100081F51000800
:1050D0001F5100081F510008C17700081F51000828
:1050E0001F5100081F5100081F510008DFF810D0A1
:1050F00000F0F4F800480047457D0008AFF3008059
:10510000A00D00200648804706480047FEE7FEE75E
:10511000FEE7FEE7FEE7FEE7FEE7FEE7FEE7FEE767
:105120009D710008ED500008202A04DB203A21FA86
:1051300002F00021704721FA02F3D040C2F12002B0
:10514000914008431946704740EA01039B0703D08A
:1051500009E008C9121F08C0042AFAD203E011F8B6
:10516000013B00F8013B521EF9D27047D2B201E078
:1051700000F8012B491EFBD270470022F6E710B55C
:1051800013460A4604461946FFF7F0FF204610BDB5
:1051900030B505462A460B4612F8010B13F8014BB1
:1051A00008B1A042F8D01CB1002802D06D1CF1E774
:1051B000284630BD10B5044604E00B7800F8013BEA
:1051C00003B1491C521EF8D2204610BDCAB2401E7F
:1051D00010F8011F8A4202D00029F9D1002070473F
:1051E000421C10F8011B0029FBD1801A704770B5D2
:1051F000064602F04FFB046805460A2200213046AD
:1052000000F033F82C6070BD2DE9F05F05460020FA
:1052100092469B4688460646814640241BE0284627
:10522000414647462246FFF77FFF53465A46C01A7B
:10523000914110D311461846224600F061F82D1A0C
:1052400067EB01084F4622460120002100F058F884
:1052500017EB00094E41201EA4F10104DFDC484693
:1052600031462A464346BDE8F09F2DE9F047914676
:105270000F4680460446002614F8015B2DB100F06D
:105280004FF80068405DC007F6D12B2D02D02D2DC0
:1052900018D0641E4A463946204600F045F827B12A
:1052A0003968A14201D1C7F8008071054FF00204AE
:1052B0000BD54042002803DD02F0ECFA0460A007A1
:1052C000BDE8F08746F48066E4E70028F8DA02F0EB
:1052D000E1FA04606FF00040F2E70000064C074D71
:1052E00006E0E06840F0010394E8070098471034B6
:1052F000AC42F6D3FFF7FEFE248C0008448C000875
:10530000202A04DB203A00FA02F100207047914085
:10531000C2F1200320FA03F31943904070470000C4
:1053200000487047208C00082DE9F05F8246007825
:10533000002715468B460AF10104B946302801D0F2
:105340009DB113E014F8010B0127782803D05828E9
:1053500001D045B10AE00DB1102D07D1002710256D
:1053600014F8010B02E0082500E00A250026B046EB
:105370000EE005FB080005FB06F1012701EB1046D6
:105380001FFA80F8B6F5803F00D3B94614F8010B38
:10539000294600F018F80028EBDABBF1000F05D021
:1053A0000FB1641E00E05446CBF80040B9F1000F85
:1053B00006D002F06FFA02210160C81EBDE8F09F1E
:1053C00048EA0640FAE73A2800D2303820F02002B6
:1053D000412A01D3A2F13700884201D34FF0FF30B8
:1053E000704700BFFEE7000010B5024800F01EF84D
:1053F00010BD00005805002030B590F84050012441
:10540000AC40C56B6C60046863604468102C04D1C8
:105410000468A2600468E16003E00468A1600468B5
:10542000E26030BD704772B600BFFEE770B504465B
:10543000E06B05682068066894F8401004208840F6
:105440002840002846D006F00400002842D02068FA
:10545000006800F0200028B92068006820F00400EF
:105460002168086057492068884201D1042027E05C
:10547000544914312068884201D1402020E051492C
:1054800028312068884201D1001519E04D493C318E
:105490002068884202D14FF4804011E049495031E0
:1054A0002068884202D14FF4802009E045496431E8
:1054B0002068884202D14FF4800001E04FF0806004
:1054C000404908394860E06A00287AD02046E16AFD
:1054D000884776E094F84010022088402840A0B326
:1054E00006F0020088B32068006800F0200040B990
:1054F0002068006820F00A0021680860012084F814
:10550000210030492068884201D1022028E02D493D
:1055100014312068884201D1202021E02949283116
:105520002068884201D140151AE026493C312068A4
:10553000884202D14FF4005012E0224950312068D5
:10554000884203D14FF400300AE017E01D4964316E
:105550002068884202D14FF4001001E04FF0007043
:1055600018490839486000BF002084F8200000BFB7
:10557000A06A30B32046A16A884722E094F8401020
:10558000082088402840E0B106F00800C8B1206833
:10559000006820F00E002168086094F84010012097
:1055A0008840E16B48600120A06384F8210000BFBF
:1055B000002084F8200000BF206B10B12046216B32
:1055C000884770BD080002400146002209B9012049
:1055D0007047164B0868C01A1423B0FBF3F0800024
:1055E000086412480838C863022081F8210008685E
:1055F000026843F6F0708243D1E901031843CB6897
:1056000018430B6918434B6918438B691843CB69DE
:10561000184302430868026000208863012081F873
:105620002100002081F8200000BFD1E708000240DF
:105630002DE9F04104460D4616461F464FF000087E
:1056400000BF94F82000012802D10220BDE8F081BB
:10565000012084F8200000BF94F8210001282CD1FB
:10566000022084F821000020A0632068006820F058
:105670000100216808603B46324629462046FFF774
:10568000BBFEE06A30B12068006840F00E0021687F
:1056900008600BE02068006820F0040021680860C2
:1056A0002068006840F00A002168086020680068EF
:1056B00040F001002168086006E000BF002084F887
:1056C000200000BF4FF002084046BFE770B5044617
:1056D00000F0B0F906462546681C10B10448007871
:1056E000054400BF00F0A6F9801BA842FAD370BDA4
:1056F000140000202DE9F8470346002294466EE18D
:105700004FF0010808FA02F4D1F8008008EA04001A
:10571000A0427DD1DFF8DCA2D1F80480A8EB0A0911
:10572000D0453AD014DCB8F1030F50D009DCB8F101
:10573000000F31D0B8F1010F1CD0B8F1020F49D1E0
:1057400020E0B8F1110F18D0B8F1120F42D11EE0CD
:10575000B9F5881F25D006DCB9F5803F20D0B9F512
:10576000801F37D11AE0B9F5001F18D0B9F5041F12
:1057700030D117E0D1F80CC02DE0D1F80C8008F141
:10578000040C28E0D1F80C8008F1080C23E0D1F8D3
:105790000C8008F10C0C1EE000BF00BF00BF00BF72
:1057A00000BF00BFD1F80880B8F1000F02D14FF060
:1057B000040C0BE0D1F80880B8F1010F03D14FF0D1
:1057C000080C1C6102E04FF0080C5C6103E04FF034
:1057D000000C00E000BF00BFFF2801D8984601E0A0
:1057E00003F104084646FF2802D84FEA820803E086
:1057F000A2F108084FEA88084746D6F800804FF023
:105800000F0909FA07F928EA09080CFA07F900E074
:1058100088E048EA0908C6F80080D1F8048008F05A
:105820008058B8F1805F7DD100BFDFF8CC81D8F817
:10583000188048F00108DFF8C091C9F81880C84600
:10584000D8F8188008F00108CDF8008000BF00BF2C
:105850004FEAB9384FEA920958F829504FEA82784E
:105860004FEA18794FF00F0808FA09F825EA0805F9
:10587000DFF88881434502D14FF0000816E0DFF8D9
:105880008081434502D14FF001080FE0DFF87481B9
:10589000434502D14FF0020808E0DFF86C81434530
:1058A00002D14FF0030801E04FF004084FEA82797B
:1058B0004FEA197908FA09F848EA0505DFF84C813A
:1058C0004FEA920948F82950D1F8048008F480186A
:1058D000B8F5801F0AD1DFF83881D8F8008048EA8F
:1058E0000008DFF82C91C9F8008009E0DFF820817A
:1058F000D8F8008028EA0008DFF81491C9F8008081
:10590000D1F8048008F40018B8F5001F10D1DFF8B2
:10591000008108F10408D8F8008048EA0008DFF8A0
:10592000F09000E05AE009F10409C9F800800DE0A8
:10593000DFF8DC8008F10408D8F8008028EA0008C5
:10594000DFF8CC9009F10409C9F80080D1F804808F
:1059500008F40038B8F5003F0ED1DFF8B480A8F1A4
:105960000408D8F8008048EA0008DFF8A490A9F1FC
:105970000409C9F800800DE0DFF89480A8F104085C
:10598000D8F8008028EA0008DFF88490A9F104091B
:10599000C9F80080D1F8048008F48038B8F5803F59
:1059A0000ED1DFF86C80A8F10808D8F8008048EA2A
:1059B0000008DFF85C90A9F10809C9F800800DE043
:1059C000DFF84C80A8F10808D8F8008028EA000821
:1059D000DFF83C90A9F10809C9F80080521CD1F801
:1059E000008028FA02F8B8F1000F7FF489AEBDE814
:1059F000F88700000000111000100240000801406C
:105A0000000C01400010014000140140080001405A
:105A10000804014010B5C26821EA020302EA010449
:105A200043EA0443036110BD0AB1016101E00B04C4
:105A30000361704701480068704700000C000020B7
:105A40000348006803490978084401490860704721
:105A50000C0000201400002010B50848006840F039
:105A6000100006490860032000F0A8F80F2000F09D
:105A700007F800F02BF8002010BD000000200240C5
:105A800070B504460E4800784FF47A71B1FBF0F01F
:105A90000C490968B1FBF0F5284600F09BFC08B101
:105AA000012070BD102C07D200222146501E00F0AC
:105AB00047F80548046001E00120F2E70020F0E724
:105AC00014000020180000201000002008B500BFBE
:105AD0001148806940F001000F49886108468069DB
:105AE00000F00100009000BF00BF00BF0846C06981
:105AF00040F08050C8610846C06900F080500090B6
:105B000000BF00BF00BF0549486820F0E06040F0DA
:105B10000070486000BF08BD001002400000014056
:105B200001460846002809DB00F01F0301229A40C5
:105B300043099B0003F1E023C3F8002100BF704735
:105B40002DE9F05F80460D461646002701F086FEDF
:105B5000074639462A46334601F00700C0F1070AD6
:105B6000BAF1040F02D94FF0040A01E0C0F1070AAC
:105B7000D14600F1040ABAF1070F02D24FF0000A31
:105B800001E0A0F1030AD4464FF0010A0AFA09FA2B
:105B9000AAF1010A0AEA020A0AFA0CFA4FF0010B0A
:105BA0000BFA0CFBABF1010B0BEA030B4AEA0B04FB
:105BB0002146404601F05AFEBDE8F09F00BF00F0CC
:105BC0000702064B19684FF6FF031940044B0B43BD
:105BD00043EA0221014B196000BF70470CED00E061
:105BE0000000FA0570B504460D460CB9012070BDE1
:105BF0005A48006800F00700A8420ED257480068D3
:105C000020F007002843554908600846006800F066
:105C10000700A84201D00120E9E7207800F0020047
:105C200002281DD1207800F00400042805D14C483A
:105C3000406840F4E0604A494860207800F008007D
:105C4000082805D14648406840F4605044494860FF
:105C50004348406820F0F000A1680843404948608C
:105C6000207800F0010078B36068012806D13C4834
:105C7000006800F4003090B90120B8E7606802289D
:105C800006D13748006800F0007040B90120AEE747
:105C90003348006800F0020008B90120A7E7304847
:105CA000406820F00300616808432D494860FFF711
:105CB000C1FE064609E0FFF7BDFE801B41F28831B8
:105CC000884202D9032092E707E02548406800F0A7
:105CD0000C006168B0EB810FEDD12048006800F046
:105CE0000700A8420ED91D48006820F0070028438D
:105CF0001A4908600846006800F00700A84201D071
:105D0000012074E7207800F00400042807D114482B
:105D1000406820F4E060E168084311494860207859
:105D200000F00800082808D10D48406820F46050B1
:105D3000216940EAC1000A49486000F03FF808497B
:105D40004968C1F30311074A515CC840064908601D
:105D500006480068FFF794FE002048E70020024054
:105D600000100240868B0008180000201000002060
:105D700001480068704700001800002000B5FFF7D8
:105D8000F7FF04494968C1F30221034A515CC84046
:105D900000BD000000100240968B000800B5FFF720
:105DA000E7FF04494968C1F3C221034A515CC84076
:105DB00000BD000000100240968B000870B5002165
:105DC0000022002400230020134D696801F00C0517
:105DD000F5B1042D02D0082D19D101E00F4819E0CA
:105DE0000F4DC1F38346AB5D01F4803555B10A4DCB
:105DF0006D68C5F340450B4E725D084D5D43B5FBC4
:105E0000F2F402E0084D03FB05F4204602E000BF77
:105E1000024800BF00BF70BD0010024000127A00AF
:105E2000748B0008848B000800093D00F8B5044617
:105E30000CB90120F8BD207800F00100002878D0CE
:105E4000F848406800F00C0004280CD0F548406881
:105E500000F00C00082811D1F248406800F48030AE
:105E6000B0F5803F0AD1EF48006800F40030002808
:105E70005FD0606800285CD10120DBE700BF60686C
:105E8000B0F5803F06D1E748006840F48030E5492E
:105E9000086028E0606858B9E248006820F4803063
:105EA000E04908600846006820F4802008601AE095
:105EB0006068B0F5A02F0BD1DA48006840F480206C
:105EC000D84908600846006840F4803008600AE05D
:105ED000D448006820F48030D24908600846006841
:105EE00020F48020086000BF606888B1FFF7A2FD41
:105EF000054606E0FFF79EFD401B642801D90320FC
:105F000098E7C848006800F400300028F2D010E09C
:105F1000FFF790FD054606E0FFF78CFD401B642867
:105F200001D9032086E7BF48006800F4003000284C
:105F3000F2D1207800F00200022857D1B948406819
:105F400000F00C0050B1B748406800F00C00082881
:105F500018D1B448406800F4803098B9B14800685E
:105F600000F0020020B12069012801D0012061E782
:105F7000AC48006820F0F800616940EAC100A94916
:105F8000086033E02069E8B10120A7490860FFF705
:105F900051FD054606E0FFF74DFD401B022801D9E3
:105FA000032047E79F48006800F002000028F2D075
:105FB0009C48006820F0F800616940EAC1009949F6
:105FC000086013E0002098490860FFF733FD05469C
:105FD00006E0FFF72FFD401B022801D9032029E727
:105FE0009048006800F002000028F2D1207800F00C
:105FF000080008282DD1A069B8B101208B4908609C
:10600000FFF718FD054606E0FFF714FD401B0228C8
:1060100001D903200EE78348406A00F002000028FF
:10602000F2D0012001F06EF813E000207F490860F3
:10603000FFF700FD054606E0FFF7FCFC401B0228C9
:1060400001D90320F6E67748406A00F002000028F4
:10605000F2D1207800F00400042873D100277148A1
:10606000C06900F0805070B900BF6E48C06940F050
:1060700080506C49C8610846C06900F080500090AB
:1060800000BF00BF01276A48006800F48070B0B903
:106090006748006840F4807065490860FFF7CAFCF3
:1060A000054606E0FFF7C6FC401B642801D9032023
:1060B000C0E65F48006800F480700028F2D000BF9E
:1060C000E068012806D15748006A40F001005549B0
:1060D000086227E0E06858B95248006A20F00100E1
:1060E000504908620846006A20F00400086219E07E
:1060F000E06805280BD14B48006A40F0040049498C
:1061000008620846006A40F0010008620AE045485B
:10611000006A20F00100434908620846006A20F046
:106120000400086200BFE068A0B1FFF783FC0546E9
:1061300009E0FFF77FFC401B41F28831884202D919
:10614000032077E622E03748006A00F002000028CA
:10615000EFD012E0FFF76EFC054608E0FFF76AFC9F
:10616000401B41F28831884201D9032062E62D4864
:10617000006A00F002000028F0D1012F05D1294863
:10618000C06920F080502749C86100BFE069C8B3EA
:106190002448406800F00C00082860D0E06902281C
:1061A00048D1002020490866FFF744FC054606E078
:1061B000FFF740FC401B022801D903203AE61948AA
:1061C000006800F000700028F2D1206AB0F5803F2E
:1061D00007D11448406820F40030A16808431149F1
:1061E0004860D4E9080108430E49496821F4741154
:1061F00008430C49486001200B490866FFF71AFC68
:10620000054607E03DE0FFF715FC401B022801D9D9
:1062100003200FE60348006800F000700028F2D069
:106220002FE0000000100240000042428004424281
:1062300000700040002014490866FFF7FBFB05468C
:1062400006E0FFF7F7FB401B022801D90320F1E528
:106250000E48006800F000700028F2D111E0E069FB
:10626000012800D1E6E50948466806F48031206A35
:10627000814204D106F47011606A814201D001208C
:10628000D8E50020D6E500000000424200100240A0
:1062900010B504460CB9012010BD606A38B96068B9
:1062A000B0F5827F00D105E00021E16102E000212C
:1062B000216161610021A16294F8510028B9002098
:1062C00084F85000204600F043F8022084F8510082
:1062D0002068006820F0400021680860A08800F471
:1062E0008270218901F404410843A18901F400610D
:1062F0000843217C01F002010843217D01F00101E6
:106300000843218B01F400710843217F01F038011B
:1063100008432021095D01F080010843218D01F42B
:1063200000510843216808600421A06901EA104077
:10633000216848602068C06920F400602168C86155
:1063400000206065012084F851000020A4E70000CF
:1063500010B586B00446002002900390049005908A
:106360001949206888422DD100BF1848806940F43F
:106370008050164988610846806900F48050019079
:1063800000BF00BF00BF0846806940F0040088617C
:106390000846806900F00400019000BF00BFA02003
:1063A0000290022003900320059002A90848FFF7FD
:1063B000A1F94020029000200390049002A9044813
:1063C000FFF798F906B010BD003001400010024000
:1063D0000008014070B504462546681EB0F1807F74
:1063E00001D301200FE0681E4FF0E02148610F212A
:1063F0004FF0FF3001F03AFA00204FF0E0218861C1
:1064000007200861002070BD7047704730B5024614
:106410000B4600BF92F83C00012801D1022030BD9C
:10642000012082F83C0000BF022082F83D00106885
:1064300044681068816824F0700418680443106888
:106440004460104D1068A8420BD01068B0F1804F26
:1064500007D00D4D1068A84203D00C4D1068A8421B
:1064600005D121F080015868014310688160012046
:1064700082F83D0000BF002082F83C0000BF00BF52
:10648000CDE70000002C014000040040000800405F
:1064900010B504460CB9012010BD94F83D0028B990
:1064A000002084F83C00204600F026F8022084F802
:1064B0003D00211D206800F07BFE012084F846008D
:1064C00000BF84F83E0001213F20015540200155C6
:1064D0004120015500BF00BF012084F84200432045
:1064E0000155442001554520015500BF012084F885
:1064F0003D000020D0E7000038B504460D49206873
:10650000884215D100BF0C48806940F400600A49F8
:1065100088610846806900F40060009000BF00BFF9
:10652000002211461920FFF70BFB1920FFF7F8FA9C
:1065300038BD0000002C014000100240014691F8D7
:106540003D00012801D001207047022081F83D0064
:106550000868C06840F001000B68D860124B0868FA
:1065600098420BD00868B0F1804F07D00F4B0868F5
:10657000984203D00E4B086898420CD10868806896
:1065800000F00702062A0CD00868006840F00100FD
:106590000B68186005E00868006840F001000B68AF
:1065A00018600020D0E70000002C014000040040EB
:1065B000000800402DE9F04104460D46002700BFC9
:1065C00094F83C00012802D10220BDE8F0810120AE
:1065D00084F83C0000BF022084F83D0020688668F3
:1065E00026F0770626F47F462068866028685028C3
:1065F00033D00CDC202850D004DC00284BD01028ED
:1066000051D149E0302849D040284CD139E06028A8
:106610002DD0702807D0B0F5805F03D0B0F5005FB3
:1066200041D10DE041E0D5E902136A68206800F02D
:1066300001FE2068866846F077062068866034E0B0
:10664000D5E902136A68206800F0F4FD20688068CC
:1066500040F480402168886027E0EA686968206823
:1066600000F0FCFD5021206800F0EFFD1DE0EA681D
:106670006968206800F005FE6021206800F0E5FDF3
:1066800013E0EA686968206800F0E8FD40212068AE
:1066900000F0DBFD09E000BF00BF00BF29682068F3
:1066A00000F0D3FD01E0012700BF00BF012084F806
:1066B0003D0000BF002084F83C0000BF384684E75E
:1066C000704770B504462068C5682068066906F002
:1066D0000200022819D105F00200022815D1401F3E
:1066E00021680861012020772068806900F003009C
:1066F00018B12046FFF7E4FF05E0204600F097F8C8
:10670000204600F095F80020207706F004000428C9
:1067100019D105F00400042815D1C043216808618F
:10672000022020772068806900F4407018B120466C
:10673000FFF7C6FF05E0204600F079F8204600F09C
:1067400077F80020207706F00800082819D105F016
:106750000800082815D1C04321680861042020776B
:106760002068C06900F0030018B12046FFF7A8FFB9
:1067700005E0204600F05BF8204600F059F80020C4
:10678000207706F01000102819D105F0100010280D
:1067900015D1C04321680861082020772068C069AE
:1067A00000F4407018B12046FFF78AFF05E020464C
:1067B00000F03DF8204600F03BF80020207706F07E
:1067C000010048B105F0010030B16FF0010021680F
:1067D0000861204600F02EF806F08000802809D1DC
:1067E00005F08000802805D1C0432168086120465B
:1067F000FFF70AFE06F04000402809D105F04000EE
:10680000402805D1C04321680861204600F020F8E7
:1068100006F02000202809D105F02000202805D10D
:10682000C043216808612046FFF7EFFD70BD704747
:106830007047000010B504460348844203D180210C
:106840000248FFF7E7F810BD7C000020000C014073
:106850007047F8B504460D46164694F842002028C5
:106860002DD105B10EB90120F8BD01202063002013
:10687000606332462946204600F0F8FE0746206B4A
:10688000012819D100BF0020009020680068009006
:1068900020684068009000BF00BF00BF00BF2168B3
:1068A0000C3151E8001F41F0100021680C3141E823
:1068B0000002002AF3D100E001273846D4E7022085
:1068C000D2E77047704710B504460CB9012010BDDF
:1068D000A06900B100E000BF94F8410028B9002091
:1068E00084F84000204600F029F8242084F8410074
:1068F0002068C06820F400502168C860204600F07D
:1069000037FE2068006920F4904021680861206803
:10691000406920F02A00216848612068C06840F47E
:1069200000502168C86000206064202084F8410085
:1069300084F842000020606300BFC8E710B586B04D
:106940000446002002900390049005904549206879
:1069500088422FD100BF4448806940F480404249BA
:1069600088610846806900F48040019000BF00BF44
:1069700000BF0846806940F00400886108468069CD
:1069800000F00400019000BF00BF481502900220F3
:1069900003900320059002A93448FEF7ABFE4FF4A4
:1069A0008060029000200390049002A92F48FEF717
:1069B000A1FE54E02E492068884250D100BF2A48E9
:1069C000C06940F400302849C8610846C06900F435
:1069D0000030019000BF00BF00BF0846806940F052
:1069E000040088610846806900F00400019000BF3F
:1069F00000BF04200290022003900320059002A90A
:106A00001A48FEF777FE08200290002003900490B9
:106A100002A91648FEF76EFE1648174908600020C6
:106A200048600021144881608021C160002101611B
:106A30004161202181610021C161FEF7C5FD08B1DE
:106A4000FEF7F1FC00BF0C48E063446200BF002287
:106A500011462620FFF774F82620FFF761F806B0EC
:106A600010BD000000380140001002400008014045
:106A7000004400406C0002405805002070477047F9
:106A80002DE9F84F04460E46174699464FF0000A86
:106A900094F84100202850D106B117B90120BDE873
:106AA000F88F00206064212084F84100FEF7C2FFC7
:106AB0008246A784E784A068B0F5805F04D120698E
:106AC00010B90025B04602E035464FF000081EE040
:106AD0005346002280212046CDF8009000F02AFE87
:106AE00020B1202084F841000320D8E745B9B8F848
:106AF0000000C0F308002168486008F1020803E0C4
:106B00002878216848606D1CE08C401EE084E08C91
:106B10000028DDD15346002240212046CDF80090C8
:106B200000F008FE20B1202084F841000320B6E7E1
:106B3000202084F841000020B1E70220AFE70000E8
:106B400010B5E2B0044601AB02AA42A9204600F00B
:106B5000D5F878B108A000F057FE42A90CA000F0CB
:106B600053FE02A90EA000F04FFEBDF804100FA0C6
:106B700000F04AFE62B010BD5265636569766564D7
:106B8000204D515454206D6573736167653A0A0056
:106B90002020546F7069633A2025730A00000000BA
:106BA0002020446174613A2025730A0020204C653E
:106BB0006E6774683A2025640A00000000BFFEE793
:106BC00010B504461BA1204600F0B6FB38B11EA04C
:106BD00000F01AFE204600F09BFB012010BD21A111
:106BE000204600F0A9FB38B123A000F00DFE20469E
:106BF00000F08EFB0020F1E728A1204600F09CFB6E
:106C000038B12BA000F000FE204600F081FB0020F0
:106C1000E4E72FA1204600F08FFB38B12EA000F052
:106C2000F3FD204600F074FB0020D7E74FF0FF3063
:106C3000D4E700002B4D515454434F4E4E4543541E
:106C400045443A302C3100004D5154543A20436FA2
:106C50006E6E656374656420746F2073657276650B
:106C6000720A00002B4D515454434F4E4E4543542D
:106C700045443A302C3000004D5154543A20436F73
:106C80006E6E656374696F6E20636C6F73656420EC
:106C90006279207365727665720A00002B4D51543B
:106CA00054444953434F4E4E45435445443A3000B3
:106CB0004D5154543A20446973636F6E6E6563742A
:106CC00065642066726F6D207365727665720A0066
:106CD000434C4F53454400004D5154543A204E65A7
:106CE00074776F726B20636F6E6E656374696F6E1D
:106CF00020636C6F7365640A000000002DE9F047A3
:106D000006460F4690461D4628A13046FEF740FA3B
:106D1000B04202D00020BDE8F08706F10D042C211E
:106D20002046FEF753FA04460CB90020F3E7641C32
:106D30002078222819D1641C22212046FEF746FA29
:106D40008146B9F1000F01D10020E4E7A9EB04006E
:106D50001FFA80FA524621463846FEF72BFA0020E9
:106D600007F80A0009F1010400BF2C212046FEF7B4
:106D70002DFA04460CB90020CDE7641C2046FEF72E
:106D800036FA28802C212046FEF720FA04460CB95A
:106D90000020C0E7641C2A8821464046FEF70AFA14
:106DA0000020298808F801000120B4E72B4D515438
:106DB00054535542524543563A0000002DE9F041E4
:106DC000C4B004460D4616461F4623460AA24FF499
:106DD000807104A88DE8E00000F026FD04A8FEF70D
:106DE000FFF91FFA80F86422414604A800F05EFA19
:106DF00044B0BDE8F081000041542B4D5154545033
:106E000055423D302C222573222C222573222C251D
:106E1000642C25640D0A000008B500BF0A484069CB
:106E200040F00100084948610846406900F001004F
:106E3000009000BF00BF002211461020FEF780FE28
:106E40001020FEF76DFE08BD0010024000B585B0B1
:106E50000020019002900390049000BF26488069B2
:106E600040F02000244988610846806900F0200035
:106E7000009000BF00BF00BF0846806940F00400DA
:106E800088610846806900F00400009000BF00BFE0
:106E900000BF0846806940F00800886108468069A4
:106EA00000F00800009000BF00BF00224FF4C07146
:106EB0001248FEF7B9FD00224FF480510F48FEF74B
:106EC000B3FD4FF4C07001900120029003900220A6
:106ED000049001A90948FEF70DFC4FF48050019081
:106EE0000120029003900220049001A90348FEF7BC
:106EF00001FC05B000BD000000100240000C014084
:106F000010B50E480E4908604FF4827048600021A9
:106F10000B488160C160016141614FF40071816182
:106F20000821C16100210162416281620A21C162BE
:106F3000FFF7AEF908B1FEF776FA10BD0030014058
:106F40002400002000B587B0002003900490059035
:106F50000690019002901548154908601F2048606E
:106F600000211348816040F2E731C16000210161D6
:106F700041618161FFF78CFA08B1FEF754FA4FF4D2
:106F80008050039003A90A48FFF714FB08B1FEF7ED
:106F90004AFA00200190029001A90548FFF736FA4D
:106FA00008B1FEF740FA07B000BD0000002C014018
:106FB0007C00002010B50B480B4908604FF4E1300D
:106FC0004860002108488160C16001610C21416175
:106FD00000218161C161FFF776FC08B1FEF723FA59
:106FE00010BD000000380140C804002010B5124850
:106FF000124908604FF4E130486000210F48816079
:10700000C16001610C21416100218161C161FFF713
:107010005AFC08B1FEF707FA08480068C06840F05B
:10702000100006490968C8604FF4806204490348AB
:10703000FFF70FFC10BD00000044004010050020C9
:10704000C800002000BFFEE700BFFEE77047000059
:1070500010B508A000F0D8FB07A000F0D5FB11A0E8
:1070600000F0D2FB1AA11EA000F0CEFB02A000F09F
:10707000CBFB10BD0D0A00003D3D3D3D3D3D3D3D7E
:107080003D3D3D3D3D3D3D3D3D3D3D3D3D3D3D3D30
:107090003D3D3D3D3D3D3D3D3D3D3D3D3D3D3D3D20
:1070A0000D0A00003D3D3D3D5B4150505D20537950
:1070B0007374656D205374617274757020537563B9
:1070C0006365737366756C213D3D3D3D0D0A00009F
:1070D0004F54412D30312D30312D30310000000022
:1070E0003D3D3D3D3D3D3D3D3D5B4150505D20764C
:1070F000657273696F6E3A25733D3D3D3D3D3D3D83
:107100000D0A000008B508490968C9084FF47A72E9
:10711000B1FBF2F14143009100BF00BF00994A1E4C
:1071200000920029F9D108BD18000020704710B561
:10713000FEF786FC10BD00B58FB0282105A8FEF72C
:107140001CF814216846FEF718F801200590000489
:107150000690002007900120099002200C90C103A6
:107160000D914FF4E0110E9105A8FEF75FFE08B1F6
:10717000FEF759F90F2000900220019000200290A4
:107180004FF4806003900020049002216846FEF7CF
:1071900029FD08B1FEF747F90FB000BD70470000A8
:1071A00010B50248FFF78DFA10BD00007C000020EA
:1071B00010B502681C4B984208D0B0F1804F05D042
:1071C0001A4B984202D01A4B984203D122F0700217
:1071D0004B681A43144B984208D0B0F1804F05D049
:1071E000124B984202D0124B984203D122F44072C3
:1071F000CB681A4322F080034C6943EA0402026020
:107200008B68C3620B688362074B984201D10B699C
:10721000036301234361036903F001031BB10369A5
:1072200023F00103036110BD002C01400004004065
:107230000008004030B50C46816821F47F4142EAE5
:10724000032525432943816030BD0A46816821F02A
:10725000700142F0070319438160704730B50B4657
:107260001446026A056A25F001050562816921F06C
:10727000F00141EA041122F00A021A43816102621C
:1072800030BD30B50B461446026A056A25F010057C
:107290000562816921F4704141EA043122F0A002C3
:1072A00042EA03128161026230BD00002DE9F04123
:1072B00004460D46174604B115B90120BDE8F0811A
:1072C0000BA000F0A1FA002605E0A15D0DA000F0E2
:1072D0009BFA701C86B2AE42F7DB0BA000F094FA6A
:1072E0003B462A4621460948FFF7CAFBE6E700006D
:1072F000455350383236362073656E643A200D0A95
:1073000000000000256300000D0A000010050020A9
:10731000418801807047014648880A88904204DB12
:1073200048880A88801A80B270470888C0F5806053
:107330004A88104480B2F7E72DE9F04104460F4631
:1073400024B11FB120886188884202D10020BDE8A5
:10735000F0812046FFF7DFFF054620882844B0F57E
:10736000806F07DC2288201D11182A461048FDF77F
:10737000EBFE14E02088C0F5806086B2A81B1FFADF
:1073800080F82288201D111832460948FDF7DCFEDE
:10739000074988194246211DFDF7D6FE00BF394630
:1073A0000348FDF7F5FE08B10120D0E70020CEE745
:1073B0009C05002070B506460025746A2068406967
:1073C000C0F3C01594F84100212805D125B1002053
:1073D000E084204600F0B8F820684069C0F38015CA
:1073E00094F84200222805D125B10020E0852046EE
:1073F00000F074F8606C40F0100060642046FFF705
:1074000061FA70BD70B505466C6A2868006800F0C6
:107410002000002842D1E08500BF00BF21680C3168
:1074200051E8001F21F4807021680C3141E800020E
:10743000002AF3D100BF00BF00BF2168143151E81A
:10744000001F21F001002168143141E80002002AE8
:10745000F3D100BF00BF00BF2168143151E8001F05
:1074600021F040002168143141E80002002AF3D1E4
:1074700000BF202084F84200206B01280ED100BFFD
:1074800000BF21680C3151E8001F21F01000216875
:107490000C3141E80002002AF3D100BF00206063F4
:1074A000206B012804D1A18D2046FFF70AFA02E0E3
:1074B0002046FFF7E3FA70BD70B505466C6A0120FF
:1074C0006063206B012805D1A08D41082046FFF79D
:1074D000F8F902E02046FFF7D2FA70BD00BF00BF06
:1074E00002680C3252E8002F22F4907102680C32CC
:1074F00042E80013002BF3D100BF00BF00BF0268B9
:10750000143252E8002F22F001010268143242E8DE
:107510000013002BF3D100BF016B01290ED100BF76
:1075200000BF02680C3252E8002F22F010010268FE
:107530000C3242E80013002BF3D100BF202180F869
:10754000421000210163704700BF00BF02680C3287
:1075500052E8002F22F0C00102680C3242E800130A
:10756000002BF3D100BF202180F8411070470000AC
:1075700070B504462168096921F44051E26811435D
:10758000226811612269A1681143626941EA02051A
:107590002168C96841F20C62914329432268D16095
:1075A0002168496921F44071A2691143226851613F
:1075B0002D4A2168914202D1FEF7F0FB01E0FEF76F
:1075C000DDFB00EBC00101EB001162689200B1FB32
:1075D000F2F100EBC00202EB001263689B00B2FB09
:1075E000F3F26423B2FBF3F202EBC20303EB0212E9
:1075F000A1EB8201322202EB01116422B1FBF2F114
:1076000001F0F00100EBC00202EB001263689B0086
:10761000B2FBF3F26423B2FBF3F201EB021200EBD4
:10762000C00101EB001163689B00B1FBF3F100EBBB
:10763000C00303EB00136668B600B3FBF6F36426E1
:10764000B3FBF6F303EBC30606EB0313A1EB8301D5
:10765000322303EB01116423B1FBF3F101F00F01BD
:1076600011442268916070BD0038014077B581B047
:10767000044615460298A062A58500206064222079
:1076800084F842002848E16B88622848E16BC862B0
:107690002748E16B08630020E16B486302AE326863
:1076A0002368191D2B46E06BFDF7C2FF00BF0020C9
:1076B000009020680068009020684068009000BF3B
:1076C00000BF206970B100BF00BF21680C3151E8D4
:1076D000001F41F4807021680C3141E80002002A4B
:1076E000F3D100BF00BF00BF2168143151E8001F73
:1076F00041F001002168143141E80002002AF3D171
:1077000000BF00BF00BF2168143151E8001F41F0E5
:1077100040002168143141E80002002AF3D100BF83
:10772000002004B070BD000005740008B9740008A2
:10773000B57300082DE9F84304460D4617469846F0
:10774000089E31E0701C70B3FEF774F9A0EB0800DE
:10775000B04200D816B90320BDE8F8832068C0689D
:1077600000F00400F8B1802D1ED0402D1CD0206800
:107770000068C0F3C000B0B100BF002000902068D6
:107780000068009020684068009000BF00BF20465D
:10779000FFF7A4FE0820606400BF002084F84000CA
:1077A00000BF0120D8E7FFE7206800682840A84212
:1077B00001D1012000E00020B842C3D00020CBE777
:1077C00008B50D4800680068C0F3001098B100BF0C
:1077D0000020009008480068006800900648006893
:1077E0004068009000BF00BF044800684068C0F5D2
:1077F00080600349488008BD10050020580500201E
:10780000C400002000BFFEE70FB4054B10B503A96C
:10781000044A029800F052F810BC5DF814FB000016
:10782000297D00081C0000200FB47CB50C0009ADB8
:1078300001D0611E00E00021CDE90001064B6A463F
:107840002946089800F03AF8002C02D0009A00214E
:1078500011707CBC5DF814FB137D000802480068C1
:10786000C0F30220704700000CED00E010B50028C6
:1078700004DB0A07130E054A135406E00A07140E28
:10788000034A00F00F031B1FD45410BD00E400E0B6
:1078900018ED00E0004870472000002002E008C812
:1078A000121F08C1002AFAD170477047002001E07A
:1078B00001C1121F002AFBD1704700002DE9FF4FC4
:1078C0008DB00F460546002606E025280BD0DDE9E1
:1078D0000F1290476D1C761C28780028F5D111B046
:1078E0003046BDE8F08F0024A246A1460122E949B6
:1078F00000E0044315F8013F203B02FA03F0084280
:10790000F7D128782A2810D06FF02F022878A0F11C
:107910003001092914D80AEB8A0102EB410144F035
:10792000020400EB010A6D1CF0E701CF5FEA000AD8
:1079300003D544F40054CAF1000A44F002046D1C5B
:1079400028782E2817D115F8010F44F004042A28AE
:107950000ED06FF02F022878A0F1300109290AD843
:1079600009EB890102EB410100EB01096D1CF2E713
:1079700057F8049B6D1C28786C280FD006DC4C2827
:1079800017D068280DD06A2814D104E0742810D0CC
:107990007A280FD10DE044F400140AE044F4801476
:1079A00001E044F440146978814202D104F5801466
:1079B0006D1C6D1C28786E281ED00CDC632830D01E
:1079C00004DC00288BD0582811D19FE0642867D0B0
:1079D00069280CD164E073282DD004DC6F2872D0A4
:1079E000702804D194E075286ED078286DD0DDE938
:1079F0000F129047761C4BE1C4F30250022806D0C8
:107A0000032809D0042801CF09D0066040E101CF46
:107A1000F117C0E900613BE101CF068038E1067053
:107A200036E117F8040B8DF8000000208DF80100F6
:107A3000EB46012003E057F804BB4FF0FF3061072D
:107A40004FF0000102D40DE008F1010188464945DC
:107A50000FDA8045F8DB1BF808100029F4D108E0A4
:107A600008F1010188468142FADB1BF80810002961
:107A7000F6D1DDE90F23AAEB08008146214600F08C
:107A800031F9304400EB080604E0DDE90F121BF881
:107A9000010B9047B8F10108F7D221464846F2E0C1
:107AA0000A21C4F302524FF0000B0891022A04D0BD
:107AB00001CFC117032A09D00AE0FF1D27F00707ED
:107AC000F7E8020108E02CE01EE01FE000B2C11759
:107AD000042A01D140B2C117021E71F1000206DA78
:107AE0000023D0EB030063EB01012D2202E022050D
:107AF00004D52B228DF82420012203E0E20701D0D7
:107B00002022F7E7904653E00A210BE0102109E01C
:107B100010214FF0000B44F004044FF008090891C5
:107B200003E008214FF0000B0891C4F30252022A2F
:107B300004D001CF0021032A06D006E0FF1D27F064
:107B40000707F7E8020103E080B2042A00D1C0B2BF
:107B50004FF0000822072BD52A78702A07D0DDF8CD
:107B600020C08CF0100C5CEA0B0C05D00EE040221B
:107B70008DF82420012208E050EA010306D03023CA
:107B80008DF824308DF8252002229046089B83F042
:107B9000080353EA0B030BD150EA010201D162073B
:107BA00006D530228DF824204FF00108A9F10109F3
:107BB0002A78582A04D038A20B9208AA0A920BE01D
:107BC0003AA2F9E75B46089AFDF71EFB0B9B9B5C0C
:107BD0000A9A521E0A92137050EA0102F2D10A98D0
:107BE000ADEB000000F1200B600702D524F48034D7
:107BF00001E04FF00109D94502DDA9EB0B0000E0DF
:107C0000002000EB0B0141440890AAEB010AE003BD
:107C100006D4DDE90F232146504600F063F8064400
:107C20004FF0000908E009A911F80900DDE90F1279
:107C3000904709F10109761CC145F4DBE0030CD53E
:107C4000DDE90F232146504600F04CF8064404E0DD
:107C5000DDE90F1230209047761C0899481E0890E5
:107C60000029F5DC08E00A980A990078491C0A9175
:107C7000DDE90F129047761CBBF10001ABF1010B5F
:107C8000F1DC21465046DDE90F2300F019F80644E7
:107C90006D1C21E609280100303132333435363786
:107CA0003839616263646566000000003031323348
:107CB00034353637383941424344454600000000E8
:107CC0002DE9F041044600251E461746880404D4D9
:107CD00005E039462020B0476D1C641EF9D52846C2
:107CE000BDE8F0812DE9F041044600251E4690468E
:107CF000C80301D5302700E02027880404D505E01B
:107D000041463846B0476D1C641EF9D52846BDE88B
:107D1000F0814A68002A06D00A68531C0B60107074
:107D20004868401E4860704713B50C464FF0FF335B
:107D3000012269460248FEF7A3FE00981CBD000020
:107D4000C8040020FDF788FEFFF7F5F90F48104939
:107D50000860FFF77BF8FFF75FF8FFF7F3F8FFF72E
:107D600029F9FFF743F9FFF7CBF80A48FEF7E6FBDE
:107D7000FFF76EF909E000F011F86420FDF7A6FCAA
:107D80004FF480710448FDF745FEF4E70050000809
:107D900008ED00E07C000020000C014030B5ADF2A1
:107DA000045DFDF747FE0446FB48007814286FD2B7
:107DB000DFE810F0140021002F006F007D00BC00F0
:107DC000CA00FD001F016A018B01CD01EC033E04D6
:107DD0005904A704B504DD040B054305EFA0FFF724
:107DE00013FDF748FFF794FA0020F64908700120C8
:107DF000E9490870C9E3F4A0FFF706FD64220821F1
:107E0000F9A0FFF753FA0220E3490870F94804602B
:107E1000F0E7F9A1EA48FFF78FFA80B1F7A0FFF782
:107E2000F3FC0320DC4908700020E64908704FF499
:107E3000FA60FDF74BFCE248FFF76AFA27E0F5A18C
:107E4000DF48FFF779FA48B1F4A0FFF7DDFCDC4822
:107E5000FFF75EFA0120D049087018E0E548006895
:107E6000201A40F6B831884211D3F3A0FFF7CCFCBA
:107E7000D4480078401CC0B2D2490870032803DB04
:107E80001320C549087002E00120C3490870B1E71A
:107E9000FEE3F0A0FFF7B8FC64220421F4A0FFF792
:107EA00005FA0420BC490870D2480460A2E7D2A1B8
:107EB000C348FFF741FA80B1EFA0FFF7A5FC4FF4EC
:107EC0009670FDF703FCBE48FFF722FA0520B24981
:107ED00008700020BB49087027E0CEA1B848FFF722
:107EE0002BFA48B1E9A0FFF78FFCB548FFF710FA6D
:107EF0000320A949087018E0BE480068201A40F61F
:107F0000B831884211D3E7A0FFF77EFCAD48007876
:107F1000401CC0B2AB490870032803DB13209E4904
:107F2000087002E003209C49087063E7E3A0FFF7B4
:107F30006BFC64220D21E9A0FFF7B8F906209649F1
:107F40000870AC48046055E7ABA19D48FFF7F4F911
:107F500080B1E6A0FFF758FC4FF49670FDF7B6FB32
:107F60009748FFF7D5F907208B49087000209549FD
:107F700008701BE0A7A19248FFF7DEF948B1E2A024
:107F8000FFF742FC8E48FFF7C3F9132082490870BF
:107F90000CE098480068201A40F6B831884205D3B2
:107FA000E0A0FFF731FC13207B49087022E7E5A031
:107FB000FFF72AFCECA0EFA3EFA2802100900DF2C6
:107FC0008440FFF731FC0DF28441F1A0FFF71CFC67
:107FD0000DF28440FDF704F985B2642229460DF2C2
:107FE0008440FFF763F908206B49087081480460FA
:107FF00000E7EBA17248FFF79FF980B1EBA0FFF714
:1080000003FC4FF49670FDF761FB6D48FFF780F9B4
:1080100009206149087000206A49087033E0EAA12C
:108020006748FFF789F9A8B1E9A0FFF7EDFB6448BD
:10803000FFF76EF963480078401CC0B261490870D0
:10804000032803DB1320544908701CE00720524921
:10805000087018E067480068201A43F698218842A3
:1080600011D3E3A0FFF7D0FB56480078401CC0B204
:1080700054490870032803DB13204749087002E0C5
:10808000072045490870E7E3E2A0FFF7BDFBE9A040
:10809000EDA1F1A3F3A2CDE900104FF48071E1A8A6
:1080A000FFF7C2FBE1A9FAA0FFF7AEFBE1A8FDF7DD
:1080B00097F885B264222946E1A8FFF7F7F80A206D
:1080C000354908704B480460C6E34BA13C48FFF7B4
:1080D00033F980B1F2A0FFF797FB4FF49670FDF7EC
:1080E000F5FA3748FFF714F90B202B4908700020E8
:1080F000344908702AE047A13148FFF71DF948B11B
:10810000EEA0FFF781FB2E48FFF702F9132022496A
:1081100008701BE037480068201A41F28831884215
:1081200014D3EEA0FFF770FB26480078401C2549C9
:10813000087009201849087022480078032805DBD8
:1081400000202049087013201349087084E3EBA035
:10815000FFF75AFB0120F5A2F6A3CDE90220019317
:10816000049000201E23F7A24FF480710090A1A874
:10817000FFF75AFBA1A9FEA0FFF746FBA1A8FDF758
:108180002FF885B264222946A1A8FFF78FF80C20AA
:10819000014908701748F7E1000000204E65747728
:1081A0006F726B3A20537461727420696E697469DE
:1081B000616C697A6174696F6E2E2E2E0D0A000053
:1081C000C4000020080000204E6574776F726B3A7F
:1081D0002053656E64696E672041542B5253542EB0
:1081E0002E2E0D0A0000000041542B5253540D0A4C
:1081F00000000000040000204F4B00004E65747723
:108200006F726B3A2041542B525354204F4B210D27
:108210000A0000004552524F520000004E6574772C
:108220006F726B3A2041542B525354204552524F97
:1082300052210D0A000000004E6574776F726B3A90
:108240002041542B5253542074696D656F7574210D
:108250000D0A00004E6574776F726B3A2053656E9D
:1082600064696E672041542E2E2E0D0A0000000016
:1082700041540D0A000000004E6574776F726B3A2E
:10828000204154204F4B210D0A0000004E657477A9
:108290006F726B3A204154204552524F52210D0AC1
:1082A000000000004E6574776F726B3A20415420D5
:1082B00074696D656F7574210D0A00004E657477E1
:1082C0006F726B3A2053657474696E672057694604
:1082D00069206D6F64652E2E2E0D0A0041542B43CC
:1082E000574D4F44453D310D0A0000004E657477EF
:1082F0006F726B3A2057694669206D6F6465207311
:108300006574210D0A0000004E6574776F726B3A38
:108310002057694669206D6F6465206572726F72BF
:10832000210D0A004E6574776F726B3A20576946CB
:1083300069206D6F64652074696D656F7574210DBA
:108340000A0000004E6574776F726B3A20436F6EBF
:108350006E656374696E6720746F20576946692E75
:108360002E2E0D0A00000000746438383838383872
:10837000383800005450500041542B43574A415064
:108380003D222573222C222573220D0A00000000B5
:10839000574946495F434F4E4E203A25730D0A0018
:1083A0005749464920474F54204950004E6574773D
:1083B0006F726B3A205769466920636F6E6E656312
:1083C000746564210D0A00004641494C000000001C
:1083D0004E6574776F726B3A205769466920636FF8
:1083E0006E6E656374206661696C6564210D0A00B8
:1083F0004E6574776F726B3A205769466920636FD8
:108400006E6E6563742074696D656F7574210D0AF5
:10841000000000004E6574776F726B3A20436F6EF8
:108420006669677572696E67204D5154542E2E2E01
:108430000D0A000024357977713862796535653722
:1084400061683268622A00007761736865725F73E1
:108450006161735F6D750000736161735F6D755F5E
:108460003939390041542B4D5154545553455243D9
:1084700046473D302C312C222573222C2225732295
:108480002C222573222C302C302C22220D0A0000A5
:108490006D7174745F6366673A25730D0A0000009E
:1084A0004E6574776F726B3A204D51545420636F50
:1084B0006E66696775726564210D0A004E65747792
:1084C0006F726B3A204D51545420636F6E6669672A
:1084D000206572726F72210D0A0000004E6574777C
:1084E0006F726B3A204D51545420636F6E6669670A
:1084F0002074696D656F7574210D0A004E6574777F
:108500006F726B3A2053657474696E67204D5154D5
:108510005420636F6E6E656374696F6E20636F6E57
:108520006669672E2E2E0D0A000000006F66666CCD
:10853000696E650066797A5F383236362F737461FA
:108540007475730041542B4D515454434F4E4E4358
:1085500046473D302C25642C25642C222573222C83
:10856000222573222C25642C25640D0A00000000AE
:108570004D51545420436F6E6E20436F6E66696791
:108580003A20257300000000046065E1AFF29831E5
:10859000B348FEF7D1FEF0B1B2A0FFF735F91E21C6
:1085A000BDA0FFF731F9AFF27401C1A0FFF72CF9BC
:1085B000AFF28801C2A0FFF727F94FF49670FDF7DC
:1085C00085F8A748FEF7A4FE0D20C24908700020D8
:1085D000C14908702BE0AFF2C431A148FEF7ACFEF0
:1085E00048B1BEA0FFF710F99D48FEF791FE132099
:1085F000B84908701BE0C4480068201A42F21071A4
:10860000884214D3C1A0FFF7FFF8B3480078401C9C
:10861000B14908700B20AF490870AF4800780328B3
:1086200005DB0020AC4908701320AA49087013E14B
:10863000C1A0FFF7E9F844F69660C8A3D3A2802151
:10864000009081A8FFF7F0F881A8FCF7C9FD85B27A
:108650006422294681A8FEF729FE0E209D49087054
:10866000A9480460F8E0D0A17D48FEF765FE90B10E
:10867000D2A0FFF7C9F84FF49670FDF727F87848B5
:10868000FEF746FE0F20934908700020924900E053
:10869000DEE0087034E0AFF284417148FEF74CFE32
:1086A000A8B1CDA0FFF7B0F86D48FEF731FE8A48BB
:1086B0000078401CC0B288490870032803DB1320EF
:1086C000844908701CE00D208249087018E08E482B
:1086D0000068201A42F21071884211D3C6A0FFF739
:1086E00093F87D480078401CC0B27B49087003288D
:1086F00003DB13207749087002E00D2075490870EC
:10870000AAE0C6A0FFF780F864222321CCA0FEF7E0
:10871000CDFD10206F4908707B4804609CE0AFF2EB
:1087200028514F48FEF708FE98B1CEA0FFF76CF82D
:1087300001231A46D3A1AFF20420FEF73FFB4848BD
:10874000FEF7E6FD112063490870D0A0FFF75CF842
:108750000CE06D480068201A41F28831884205D348
:10876000D4A0FFF751F813205A49087074E0AFF213
:1087700078513B48FEF7E0FD48B13948FEF7C8FDA7
:108780001220544908700020534908701CE0AFF2D1
:108790007C513348FEF7D0FD48B1CEA0FFF734F846
:1087A0002F48FEF7B5FD13204A4908700CE05648E3
:1087B0000068201A42F21071884205D3CDA0FFF75D
:1087C00023F813204349087046E02548FEF7F8F9DE
:1087D00010B1012807D106E0CEA0FFF715F80D2053
:1087E0003C49087000BF00BFD4A11D48FEF7A4FD9E
:1087F00010B31B48FEF78FFD0546002010E0184B14
:108800001B881918CB1701EB93539B12A1EB832301
:108810009AB21349091D895C01AB1954411C88B2F5
:10882000A842ECDB002001A948550D48FEF770FD79
:1088300001A8FEF785F900BF0EE0C4A0FEF7E4FF33
:1088400041F28830FCF742FF00202249087003E023
:1088500000202049087000BF00BF0DF2045D30BD4C
:10886000C40000204E6574776F726B3A204D5154EE
:108870005420636F6E6E656374696F6E20636F6EF4
:1088800066696720736574207375636365737366C7
:10889000756C6C79210D0A004B656570416C6976C9
:1088A000653A202564207365636F6E64730D0A005A
:1088B0004C575420546F7069633A2025730D0A0099
:1088C0004C5754204D6573736167653A2025730DCD
:1088D0000A00000000000020080000204E657477A8
:1088E0006F726B3A204D51545420636F6E6E656306
:1088F00074696F6E20636F6E666967206572726F50
:1089000072210D0A00000000040000204E657477FB
:108910006F726B3A204D51545420636F6E6E6563D5
:1089200074696F6E20636F6E6669672074696D6528
:108930006F7574210D0A00004E6574776F726B3A83
:1089400020436F6E6E656374696E6720746F204D8F
:108950005154542E2E2E0D0A000000006170702D0F
:108960006D616E6167656D656E742D736572766598
:10897000722E7761736865722D736161732E6973EE
:1089800074617269782E636F6D00000041542B4D45
:10899000515454434F4E4E3D302C222573222C25EA
:1089A000642C310D0A0000002B4D515454434F4E9E
:1089B0004E45435445443A302C3100004E6574779F
:1089C0006F726B3A204D51545420636F6E6E656325
:1089D000746564210D0A00004E6574776F726B3AFE
:1089E000204D51545420636F6E6E65637420666130
:1089F000696C6564210D0A004E6574776F726B3A7D
:108A0000204D51545420636F6E6E656374207469F9
:108A10006D656F7574210D0A000000004E65747756
:108A20006F726B3A205375627363726962696E6725
:108A300020746F20746F706963732E2E2E0D0A00E0
:108A400041542B4D5154545355423D302C2266799C
:108A50007A5F383236362F636F6E74726F6C222CE9
:108A6000310D0A004E6574776F726B3A2053756250
:108A70007363726962652073756363657373210D37
:108A80000A0000006F6E6C696E6500003D3D3D2080
:108A90004E6574776F726B3A20416C6C207365740D
:108AA000757020636F6D706C6574656421203D3D49
:108AB0003D0D0A004E6574776F726B3A20537562F4
:108AC0007363726962652074696D656F7574210DD9
:108AD0000A0000004E6574776F726B3A204D515456
:108AE00054206F6E6C696E65206572726F72210D15
:108AF0000A0000004E6574776F726B3A204D515436
:108B000054206F6E6C696E652074696D656F757445
:108B1000210D0A004D5154543A20436F6E6E656327
:108B200074696F6E206C6F73742C207265636F6E46
:108B30006E656374696E672E2E2E0A002B4D51549C
:108B400054535542524543563A0000004E657477DF
:108B50006F726B3A204572726F7220737461746524
:108B60002C20726574727920696E2035732E2E2E3A
:108B70000D0A000002030405060708090A0B0C0D84
:108B80000E0F1010010200000000000000000102A2
:108B90000304060708090000000001020304004066
:108BA00040404040404040404141414141404040C0
:108BB00040404040404040404040404040404005F0
:108BC0000202020202020202020202020202022067
:108BD0002020202020202020200202020202020267
:108BE0009090909090901010101010101010101085
:108BF00010101010101010101010020202020202C9
:108C000088888888888808080808080808080808E4
:108C100008080808080808080808020202024000BC
:108C20009F8B0008448C00080000002024000000F6
:108C30009C780008688C0008240000207C0D00004F
:108C4000AC780008000000000000000000000000F8
:108C500000000000100000000100000000127A0077
:088C600000000000000000000C
:04000005080050EDB2
:00000001FF
