:020000040800F2
:105000009009002005510008A56B00086F69000891
:10501000A16B00081352000879720008000000001C
:10502000000000000000000000000000896C000883
:105030005552000800000000A96B00088B6C0008A6
:105040001F5100081F5100081F5100081F51000880
:105050001F5100081F5100081F5100081F51000870
:105060001F5100081F5100081F5100081F51000860
:105070001F5100081F5100081F5100081F51000850
:10508000195200081F5100081F5100081F51000845
:105090001F5100081F5100081F5100081F51000830
:1050A0001F510008FD6C00081F5100081F51000827
:1050B0001F5100081F5100081F5100081F51000810
:1050C0001F5100081F5100081F5100081F51000800
:1050D0001F5100081F510008357200081F510008B9
:1050E0001F5100081F5100081F510008DFF810D0A1
:1050F00000F06EF80048004769770008AFF30080C1
:10510000900900200648804706480047FEE7FEE772
:10511000FEE7FEE7FEE7FEE7FEE7FEE7FEE7FEE767
:10512000F96C0008ED500008202A04DB203A21FA2F
:1051300002F00021704721FA02F3D040C2F12002B0
:105140009140084319467047D2B201E000F8012BA4
:10515000491EFBD270470022F6E710B513460A46F7
:1051600004461946FFF7F0FF204610BD2DE9F05F19
:105170000546002092469B468846064681464024C6
:105180001BE02846414647462246FFF7CDFF5346DF
:105190005A46C01A914110D311461846224600F0D3
:1051A00029F82D1A67EB01084F46224601200021FD
:1051B00000F020F817EB00094E41201EA4F1010475
:1051C000DFDC484631462A464346BDE8F09F0000F2
:1051D000064C074D06E0E06840F0010394E8070044
:1051E00098471034AC42F6D3FFF784FFAC78000840
:1051F000CC780008202A04DB203A00FA02F10020D3
:1052000070479140C2F1200320FA03F31943904004
:10521000704700BFFEE7000010B5024800F01EF81E
:1052200010BD00004805002030B590F84050012422
:10523000AC40C56B6C60046863604468102C04D19A
:105240000468A2600468E16003E00468A160046887
:10525000E26030BD704772B600BFFEE770B504462D
:10526000E06B05682068066894F8401004208840C8
:105270002840002846D006F00400002842D02068CC
:10528000006800F0200028B92068006820F00400C1
:105290002168086057492068884201D1042027E02E
:1052A000544914312068884201D1402020E05149FE
:1052B00028312068884201D1001519E04D493C3160
:1052C0002068884202D14FF4804011E049495031B2
:1052D0002068884202D14FF4802009E045496431BA
:1052E0002068884202D14FF4800001E04FF08060D6
:1052F000404908394860E06A00287AD02046E16ACF
:10530000884776E094F84010022088402840A0B3F7
:1053100006F0020088B32068006800F0200040B961
:105320002068006820F00A0021680860012084F8E5
:10533000210030492068884201D1022028E02D490F
:1053400014312068884201D1202021E029492831E8
:105350002068884201D140151AE026493C31206876
:10536000884202D14FF4005012E0224950312068A7
:10537000884203D14FF400300AE017E01D49643140
:105380002068884202D14FF4001001E04FF0007015
:1053900018490839486000BF002084F8200000BF89
:1053A000A06A30B32046A16A884722E094F84010F2
:1053B000082088402840E0B106F00800C8B1206805
:1053C000006820F00E002168086094F84010012069
:1053D0008840E16B48600120A06384F8210000BF91
:1053E000002084F8200000BF206B10B12046216B04
:1053F000884770BD080002400146002209B901201B
:105400007047164B0868C01A1423B0FBF3F08000F5
:10541000086412480838C863022081F8210008682F
:10542000026843F6F0708243D1E901031843CB6868
:1054300018430B6918434B6918438B691843CB69B0
:10544000184302430868026000208863012081F845
:105450002100002081F8200000BFD1E708000240B1
:105460002DE9F04104460D4616461F464FF0000850
:1054700000BF94F82000012802D10220BDE8F0818D
:10548000012084F8200000BF94F8210001282CD1CD
:10549000022084F821000020A0632068006820F02A
:1054A0000100216808603B46324629462046FFF746
:1054B000BBFEE06A30B12068006840F00E00216851
:1054C00008600BE02068006820F004002168086094
:1054D0002068006840F00A002168086020680068C1
:1054E00040F001002168086006E000BF002084F859
:1054F000200000BF4FF002084046BFE770B50446E9
:1055000000F0B0F906462546681C10B10448007842
:10551000054400BF00F0A6F9801BA842FAD370BD75
:10552000080000202DE9F8470346002294466EE16A
:105530004FF0010808FA02F4D1F8008008EA0400EC
:10554000A0427DD1DFF8DCA2D1F80480A8EB0A09E3
:10555000D0453AD014DCB8F1030F50D009DCB8F1D3
:10556000000F31D0B8F1010F1CD0B8F1020F49D1B2
:1055700020E0B8F1110F18D0B8F1120F42D11EE09F
:10558000B9F5881F25D006DCB9F5803F20D0B9F5E4
:10559000801F37D11AE0B9F5001F18D0B9F5041FE4
:1055A00030D117E0D1F80CC02DE0D1F80C8008F113
:1055B000040C28E0D1F80C8008F1080C23E0D1F8A5
:1055C0000C8008F10C0C1EE000BF00BF00BF00BF44
:1055D00000BF00BFD1F80880B8F1000F02D14FF032
:1055E000040C0BE0D1F80880B8F1010F03D14FF0A3
:1055F000080C1C6102E04FF0080C5C6103E04FF006
:10560000000C00E000BF00BFFF2801D8984601E071
:1056100003F104084646FF2802D84FEA820803E057
:10562000A2F108084FEA88084746D6F800804FF0F4
:105630000F0909FA07F928EA09080CFA07F900E046
:1056400088E048EA0908C6F80080D1F8048008F02C
:105650008058B8F1805F7DD100BFDFF8CC81D8F8E9
:10566000188048F00108DFF8C091C9F81880C846D2
:10567000D8F8188008F00108CDF8008000BF00BFFE
:105680004FEAB9384FEA920958F829504FEA827820
:105690004FEA18794FF00F0808FA09F825EA0805CB
:1056A000DFF88881434502D14FF0000816E0DFF8AB
:1056B0008081434502D14FF001080FE0DFF874818B
:1056C000434502D14FF0020808E0DFF86C81434502
:1056D00002D14FF0030801E04FF004084FEA82794D
:1056E0004FEA197908FA09F848EA0505DFF84C810C
:1056F0004FEA920948F82950D1F8048008F480183C
:10570000B8F5801F0AD1DFF83881D8F8008048EA60
:105710000008DFF82C91C9F8008009E0DFF820814B
:10572000D8F8008028EA0008DFF81491C9F8008052
:10573000D1F8048008F40018B8F5001F10D1DFF884
:10574000008108F10408D8F8008048EA0008DFF872
:10575000F09000E05AE009F10409C9F800800DE07A
:10576000DFF8DC8008F10408D8F8008028EA000897
:10577000DFF8CC9009F10409C9F80080D1F8048061
:1057800008F40038B8F5003F0ED1DFF8B480A8F176
:105790000408D8F8008048EA0008DFF8A490A9F1CE
:1057A0000409C9F800800DE0DFF89480A8F104082E
:1057B000D8F8008028EA0008DFF88490A9F10409ED
:1057C000C9F80080D1F8048008F48038B8F5803F2B
:1057D0000ED1DFF86C80A8F10808D8F8008048EAFC
:1057E0000008DFF85C90A9F10809C9F800800DE015
:1057F000DFF84C80A8F10808D8F8008028EA0008F3
:10580000DFF83C90A9F10809C9F80080521CD1F8D2
:10581000008028FA02F8B8F1000F7FF489AEBDE8E5
:10582000F88700000000111000100240000801403D
:10583000000C01400010014000140140080001402C
:105840000804014010B5C26821EA020302EA01041B
:1058500043EA0443036110BD0AB1016101E00B0496
:105860000361704701480068704700000000002095
:1058700003480068034909780844014908607047F3
:10588000000000200800002010B50848006840F023
:10589000100006490860032000F0A8F80F2000F06F
:1058A00007F800F02BF8002010BD00000020024097
:1058B00070B504460E4800784FF47A71B1FBF0F0F1
:1058C0000C490968B1FBF0F5284600F09BFC08B1D3
:1058D000012070BD102C07D200222146501E00F07E
:1058E00047F80548046001E00120F2E70020F0E7F6
:1058F000080000200C0000200400002008B500BFB4
:105900001148806940F001000F49886108468069AC
:1059100000F00100009000BF00BF00BF0846C06952
:1059200040F08050C8610846C06900F08050009087
:1059300000BF00BF00BF0549486820F0E06040F0AC
:105940000070486000BF08BD001002400000014028
:1059500001460846002809DB00F01F0301229A4097
:1059600043099B0003F1E023C3F8002100BF704707
:105970002DE9F05F80460D461646002701F08EFCAB
:10598000074639462A46334601F00700C0F1070AA8
:10599000BAF1040F02D94FF0040A01E0C0F1070A7E
:1059A000D14600F1040ABAF1070F02D24FF0000A03
:1059B00001E0A0F1030AD4464FF0010A0AFA09FAFD
:1059C000AAF1010A0AEA020A0AFA0CFA4FF0010BDC
:1059D0000BFA0CFBABF1010B0BEA030B4AEA0B04CD
:1059E0002146404601F062FCBDE8F09F00BF00F098
:1059F0000702064B19684FF6FF031940044B0B438F
:105A000043EA0221014B196000BF70470CED00E032
:105A10000000FA0570B504460D460CB9012070BDB2
:105A20005A48006800F00700A8420ED257480068A4
:105A300020F007002843554908600846006800F038
:105A40000700A84201D00120E9E7207800F0020019
:105A500002281DD1207800F00400042805D14C480C
:105A6000406840F4E0604A494860207800F008004F
:105A7000082805D14648406840F4605044494860D1
:105A80004348406820F0F000A1680843404948605E
:105A9000207800F0010078B36068012806D13C4806
:105AA000006800F4003090B90120B8E7606802286F
:105AB00006D13748006800F0007040B90120AEE719
:105AC0003348006800F0020008B90120A7E7304819
:105AD000406820F00300616808432D494860FFF7E3
:105AE000C1FE064609E0FFF7BDFE801B41F288318A
:105AF000884202D9032092E707E02548406800F079
:105B00000C006168B0EB810FEDD12048006800F017
:105B10000700A8420ED91D48006820F0070028435E
:105B20001A4908600846006800F00700A84201D042
:105B3000012074E7207800F00400042807D11448FD
:105B4000406820F4E060E16808431149486020782B
:105B500000F00800082808D10D48406820F4605083
:105B6000216940EAC1000A49486000F03FF808494D
:105B70004968C1F30311074A515CC84006490860EF
:105B800006480068FFF794FE002048E70020024026
:105B900000100240927800080C0000200400002051
:105BA00001480068704700000C00002000B5FFF7B6
:105BB000F7FF04494968C1F30221034A515CC84018
:105BC00000BD000000100240A278000800B5FFF7F9
:105BD000E7FF04494968C1F3C221034A515CC84048
:105BE00000BD000000100240A278000870B500213E
:105BF0000022002400230020134D696801F00C05E9
:105C0000F5B1042D02D0082D19D101E00F4819E09B
:105C10000F4DC1F38346AB5D01F4803555B10A4D9C
:105C20006D68C5F340450B4E725D084D5D43B5FB95
:105C3000F2F402E0084D03FB05F4204602E000BF49
:105C4000024800BF00BF70BD0010024000127A0081
:105C5000807800089078000800093D00F8B50446F7
:105C60000CB90120F8BD207800F00100002878D0A0
:105C7000F848406800F00C0004280CD0F548406853
:105C800000F00C00082811D1F248406800F4803080
:105C9000B0F5803F0AD1EF48006800F400300028DA
:105CA0005FD0606800285CD10120DBE700BF60683E
:105CB000B0F5803F06D1E748006840F48030E54900
:105CC000086028E0606858B9E248006820F4803035
:105CD000E04908600846006820F4802008601AE067
:105CE0006068B0F5A02F0BD1DA48006840F480203E
:105CF000D84908600846006840F4803008600AE02F
:105D0000D448006820F48030D24908600846006812
:105D100020F48020086000BF606888B1FFF7A2FD12
:105D2000054606E0FFF79EFD401B642801D90320CD
:105D300098E7C848006800F400300028F2D010E06E
:105D4000FFF790FD054606E0FFF78CFD401B642839
:105D500001D9032086E7BF48006800F4003000281E
:105D6000F2D1207800F00200022857D1B9484068EB
:105D700000F00C0050B1B748406800F00C00082853
:105D800018D1B448406800F4803098B9B148006830
:105D900000F0020020B12069012801D0012061E754
:105DA000AC48006820F0F800616940EAC100A949E8
:105DB000086033E02069E8B10120A7490860FFF7D7
:105DC00051FD054606E0FFF74DFD401B022801D9B5
:105DD000032047E79F48006800F002000028F2D047
:105DE0009C48006820F0F800616940EAC1009949C8
:105DF000086013E0002098490860FFF733FD05466E
:105E000006E0FFF72FFD401B022801D9032029E7F8
:105E10009048006800F002000028F2D1207800F0DD
:105E2000080008282DD1A069B8B101208B4908606D
:105E3000FFF718FD054606E0FFF714FD401B02289A
:105E400001D903200EE78348406A00F002000028D1
:105E5000F2D0012000F004FF13E000207F49086029
:105E6000FFF700FD054606E0FFF7FCFC401B02289B
:105E700001D90320F6E67748406A00F002000028C6
:105E8000F2D1207800F00400042873D10027714873
:105E9000C06900F0805070B900BF6E48C06940F022
:105EA00080506C49C8610846C06900F0805000907D
:105EB00000BF00BF01276A48006800F48070B0B9D5
:105EC0006748006840F4807065490860FFF7CAFCC5
:105ED000054606E0FFF7C6FC401B642801D90320F5
:105EE000C0E65F48006800F480700028F2D000BF70
:105EF000E068012806D15748006A40F00100554982
:105F0000086227E0E06858B95248006A20F00100B2
:105F1000504908620846006A20F00400086219E04F
:105F2000E06805280BD14B48006A40F0040049495D
:105F300008620846006A40F0010008620AE045482D
:105F4000006A20F00100434908620846006A20F018
:105F50000400086200BFE068A0B1FFF783FC0546BB
:105F600009E0FFF77FFC401B41F28831884202D9EB
:105F7000032077E622E03748006A00F0020000289C
:105F8000EFD012E0FFF76EFC054608E0FFF76AFC71
:105F9000401B41F28831884201D9032062E62D4836
:105FA000006A00F002000028F0D1012F05D1294835
:105FB000C06920F080502749C86100BFE069C8B3BC
:105FC0002448406800F00C00082860D0E0690228EE
:105FD00048D1002020490866FFF744FC054606E04A
:105FE000FFF740FC401B022801D903203AE619487C
:105FF000006800F000700028F2D1206AB0F5803F00
:1060000007D11448406820F40030A16808431149C2
:106010004860D4E9080108430E49496821F4741125
:1060200008430C49486001200B490866FFF71AFC39
:10603000054607E03DE0FFF715FC401B022801D9AB
:1060400003200FE60348006800F000700028F2D03B
:106050002FE0000000100240000042428004424253
:1060600000700040002014490866FFF7FBFB05465E
:1060700006E0FFF7F7FB401B022801D90320F1E5FA
:106080000E48006800F000700028F2D111E0E069CD
:10609000012800D1E6E50948466806F48031206A07
:1060A000814204D106F47011606A814201D001205E
:1060B000D8E50020D6E50000000042420010024072
:1060C00010B504460CB9012010BD606A38B960688B
:1060D000B0F5827F00D105E00021E16102E00021FE
:1060E000216161610021A16294F8510028B900206A
:1060F00084F85000204600F043F8022084F8510054
:106100002068006820F0400021680860A08800F442
:106110008270218901F404410843A18901F40061DE
:106120000843217C01F002010843217D01F00101B7
:106130000843218B01F400710843217F01F03801ED
:1061400008432021095D01F080010843218D01F4FD
:1061500000510843216808600421A06901EA104049
:10616000216848602068C06920F400602168C86127
:1061700000206065012084F851000020A4E70000A1
:1061800010B586B00446002002900390049005905C
:106190001949206888422DD100BF1848806940F411
:1061A0008050164988610846806900F4805001904B
:1061B00000BF00BF00BF0846806940F0040088614E
:1061C0000846806900F00400019000BF00BFA020D5
:1061D0000290022003900320059002A90848FFF7CF
:1061E000A1F94020029000200390049002A90448E5
:1061F000FFF798F906B010BD0030014000100240D2
:106200000008014070B504462546681EB0F1807F45
:1062100001D301200FE0681E4FF0E02148610F21FB
:106220004FF0FF3001F042F800204FF0E02188618C
:1062300007200861002070BD7047704730B50246E6
:106240000B4600BF92F83C00012801D1022030BD6E
:10625000012082F83C0000BF022082F83D00106857
:1062600044681068816824F070041868044310685A
:106270004460104D1068A8420BD01068B0F1804FF8
:1062800007D00D4D1068A84203D00C4D1068A842ED
:1062900005D121F080015868014310688160012018
:1062A00082F83D0000BF002082F83C0000BF00BF24
:1062B000CDE70000002C0140000400400008004031
:1062C00010B504460CB9012010BD94F83D0028B962
:1062D000002084F83C00204600F026F8022084F8D4
:1062E0003D00211D206800F011FD012084F84600CA
:1062F00000BF84F83E0001213F2001554020015598
:106300004120015500BF00BF012084F84200432016
:106310000155442001554520015500BF012084F856
:106320003D000020D0E7000038B504460D49206844
:10633000884215D100BF0C48806940F400600A49CA
:1063400088610846806900F40060009000BF00BFCB
:10635000002211461920FFF70BFB1920FFF7F8FA6E
:1063600038BD0000002C014000100240014691F8A9
:106370003D00012801D001207047022081F83D0036
:106380000868C06840F001000B68D860124B0868CC
:1063900098420BD00868B0F1804F07D00F4B0868C7
:1063A000984203D00E4B086898420CD10868806868
:1063B00000F00702062A0CD00868006840F00100CF
:1063C0000B68186005E00868006840F001000B6881
:1063D00018600020D0E70000002C014000040040BD
:1063E000000800402DE9F04104460D46002700BF9B
:1063F00094F83C00012802D10220BDE8F081012080
:1064000084F83C0000BF022084F83D0020688668C4
:1064100026F0770626F47F46206886602868502894
:1064200033D00CDC202850D004DC00284BD01028BE
:1064300051D149E0302849D040284CD139E060287A
:106440002DD0702807D0B0F5805F03D0B0F5005F85
:1064500041D10DE041E0D5E902136A68206800F0FF
:1064600097FC2068866846F077062068866034E0EE
:10647000D5E902136A68206800F08AFC2068806809
:1064800040F480402168886027E0EA6869682068F5
:1064900000F092FC5021206800F085FC1DE0EA68C5
:1064A0006968206800F09BFC6021206800F07BFC9C
:1064B00013E0EA686968206800F07EFC40212068EB
:1064C00000F071FC09E000BF00BF00BF2968206830
:1064D00000F069FC01E0012700BF00BF012084F843
:1064E0003D0000BF002084F83C0000BF384684E730
:1064F000704770B504462068C5682068066906F0D4
:106500000200022819D105F00200022815D1401F0F
:1065100021680861012020772068806900F003006D
:1065200018B12046FFF7E4FF05E0204600F097F899
:10653000204600F095F80020207706F0040004289B
:1065400019D105F00400042815D1C0432168086161
:10655000022020772068806900F4407018B120463E
:10656000FFF7C6FF05E0204600F079F8204600F06E
:1065700077F80020207706F00800082819D105F0E8
:106580000800082815D1C04321680861042020773D
:106590002068C06900F0030018B12046FFF7A8FF8B
:1065A00005E0204600F05BF8204600F059F8002096
:1065B000207706F01000102819D105F010001028DF
:1065C00015D1C04321680861082020772068C06980
:1065D00000F4407018B12046FFF78AFF05E020461E
:1065E00000F03DF8204600F03BF80020207706F050
:1065F000010048B105F0010030B16FF001002168E1
:106600000861204600F02EF806F08000802809D1AD
:1066100005F08000802805D1C0432168086120462C
:10662000FFF70AFE06F04000402809D105F04000BF
:10663000402805D1C04321680861204600F020F8B9
:1066400006F02000202809D105F02000202805D1DF
:10665000C043216808612046FFF7EFFD70BD704719
:106660007047000010B504460348844203D18021DE
:106670000248FFF7E7F810BD6C000020000C014055
:106680007047F8B504460D46164694F84200202897
:106690002DD105B10EB90120F8BD012020630020E5
:1066A000606332462946204600F01AFD0746206BFB
:1066B000012819D100BF00200090206800680090D8
:1066C00020684068009000BF00BF00BF00BF216885
:1066D0000C3151E8001F41F0100021680C3141E8F5
:1066E0000002002AF3D100E001273846D4E7022057
:1066F000D2E77047704710B504460CB9012010BDB1
:10670000A06900B100E000BF94F8410028B9002062
:1067100084F84000204600F029F8242084F8410045
:106720002068C06820F400502168C860204600F04E
:1067300059FC2068006920F49040216808612068B5
:10674000406920F02A00216848612068C06840F450
:1067500000502168C86000206064202084F8410057
:1067600084F842000020606300BFC8E710B586B01F
:10677000044600200290039004900590454920684B
:1067800088422FD100BF4448806940F4804042498C
:1067900088610846806900F48040019000BF00BF16
:1067A00000BF0846806940F004008861084680699F
:1067B00000F00400019000BF00BF481502900220C5
:1067C00003900320059002A93448FEF7ABFE4FF476
:1067D0008060029000200390049002A92F48FEF7E9
:1067E000A1FE54E02E492068884250D100BF2A48BB
:1067F000C06940F400302849C8610846C06900F407
:106800000030019000BF00BF00BF0846806940F023
:10681000040088610846806900F00400019000BF10
:1068200000BF04200290022003900320059002A9DB
:106830001A48FEF777FE082002900020039004908B
:1068400002A91648FEF76EFE164817490860002098
:1068500048600021144881608021C16000210161ED
:106860004161202181610021C161FEF7C5FD08B1B0
:10687000FEF7F1FC00BF0C48E063446200BF002259
:1068800011462620FFF774F82620FFF761F806B0BE
:1068900010BD000000380140001002400008014017
:1068A000004400406C0002404805002070477047DB
:1068B0002DE9F84F04460E46174699464FF0000A58
:1068C00094F84100202850D106B117B90120BDE845
:1068D000F88F00206064212084F84100FEF7C2FF99
:1068E0008246A784E784A068B0F5805F04D1206960
:1068F00010B90025B04602E035464FF000081EE012
:106900005346002280212046CDF8009000F04CFC38
:1069100020B1202084F841000320D8E745B9B8F819
:106920000000C0F308002168486008F1020803E095
:106930002878216848606D1CE08C401EE084E08C63
:106940000028DDD15346002240212046CDF800909A
:1069500000F02AFC20B1202084F841000320B6E793
:10696000202084F841000020B1E70220AFE700BFFB
:10697000FEE7000008B500BF0A48406940F001008A
:10698000084948610846406900F00100009000BFD6
:1069900000BF002211461020FEF7EAFF1020FEF78C
:1069A000D7FF08BD0010024000B585B0002001905F
:1069B00002900390049000BF2648806940F02000B8
:1069C000244988610846806900F02000009000BFDB
:1069D00000BF00BF0846806940F004008861084697
:1069E000806900F00400009000BF00BF00BF0846AF
:1069F000806940F0080088610846806900F008005E
:106A0000009000BF00BF00224FF4C0711248FEF793
:106A100023FF00224FF480510F48FEF71DFF4FF473
:106A2000C07001900120029003900220049001A9FF
:106A30000948FEF777FD4FF4805001900120029045
:106A400003900220049001A90348FEF76BFD05B0F6
:106A500000BD000000100240000C014010B50E48BF
:106A60000E4908604FF48270486000210B48816035
:106A7000C160016141614FF4007181610821C16110
:106A800000210162416281620A21C162FFF718FBA5
:106A900008B1FEF7E0FB10BD0030014014000020FB
:106AA00000B587B0002003900490059006900190F7
:106AB00002901548154908601F20486000211348BE
:106AC000816040F2E731C160002101614161816173
:106AD000FFF7F6FB08B1FEF7BEFB4FF480500390C2
:106AE00003A90A48FFF77EFC08B1FEF7B4FB0020BB
:106AF0000190029001A90548FFF7A0FB08B1FEF73D
:106B0000AAFB07B000BD0000002C01406C00002073
:106B100010B50B480B4908604FF4E1304860002184
:106B200008488160C16001610C21416100218161DF
:106B3000C161FFF7E0FD08B1FEF78DFB10BD00005D
:106B400000380140B804002010B51248124908600E
:106B50004FF4E130486000210F488160C16001615D
:106B60000C21416100218161C161FFF7C4FD08B1C1
:106B7000FEF771FB08480068C06840F01000064945
:106B80000968C8604FF4806204490348FFF779FD43
:106B900010BD00000044004000050020B8000020A7
:106BA00000BFFEE700BFFEE77047000010B508A079
:106BB00000F064FB07A000F061FB11A000F05EFB99
:106BC0001AA11EA000F05AFB02A000F057FB10BD56
:106BD0000D0A00003D3D3D3D3D3D3D3D3D3D3D3DC2
:106BE0003D3D3D3D3D3D3D3D3D3D3D3D3D3D3D3DD5
:106BF0003D3D3D3D3D3D3D3D3D3D3D3D0D0A0000A2
:106C00003D3D3D3D5B4150505D2053797374656D52
:106C10002053746172747570205375636365737368
:106C200066756C213D3D3D3D0D0A00004F54412DE0
:106C300030312D30312D3031000000003D3D3D3DE3
:106C40003D3D3D3D3D5B4150505D20766572736931
:106C50006F6E3A25733D3D3D3D3D3D3D0D0A0000C3
:106C600008B508490968C9084FF47A72B1FBF2F116
:106C70004143009100BF00BF00994A1E00920029C5
:106C8000F9D108BD0C000020704710B5FEF7F0FDEB
:106C900010BD00B58FB0282105A8FEF75CFA1421BD
:106CA0006846FEF758FA012005900004069000207F
:106CB00007900120099002200C90C1030D914FF420
:106CC000E0110E9105A8FEF7C9FF08B1FEF7C3FA5F
:106CD0000F20009002200190002002904FF480606D
:106CE00003900020049002216846FEF793FE08B14D
:106CF000FEF7B1FA0FB000BD7047000010B50248B2
:106D0000FFF7F7FB10BD00006C00002010B5026813
:106D10001C4B984208D0B0F1804F05D01A4B9842D6
:106D200002D01A4B984203D122F070024B681A43EA
:106D3000144B984208D0B0F1804F05D0124B9842C6
:106D400002D0124B984203D122F44072CB681A430E
:106D500022F080034C6943EA040202608B68C3623C
:106D60000B688362074B984201D10B6903630123CF
:106D70004361036903F001031BB1036923F00103BD
:106D8000036110BD002C01400004004000080040D9
:106D900030B50C46816821F47F4142EA0325254342
:106DA0002943816030BD0A46816821F0700142F0BC
:106DB000070319438160704730B50B461446026AD9
:106DC000056A25F001050562816921F0F00141EABB
:106DD000041122F00A021A438161026230BD30B50B
:106DE0000B461446026A056A25F0100505628169A2
:106DF00021F4704141EA043122F0A00242EA031278
:106E00008161026230BD014648880A88904204DBF5
:106E100048880A88801A80B270470888C0F5806068
:106E20004A88104480B2F7E770B506460025746AB8
:106E300020684069C0F3C01594F84100212805D1AD
:106E400025B10020E084204600F0B8F820684069B1
:106E5000C0F3801594F84200222805D125B1002006
:106E6000E085204600F074F8606C40F0100060642B
:106E70002046FFF73FFC70BD70B505466C6A286878
:106E8000006800F02000002842D1E08500BF00BF6C
:106E900021680C3151E8001F21F4807021680C3109
:106EA00041E80002002AF3D100BF00BF00BF216803
:106EB000143151E8001F21F001002168143141E82C
:106EC0000002002AF3D100BF00BF00BF21681431C7
:106ED00051E8001F21F040002168143141E8000210
:106EE000002AF3D100BF202084F84200206B012843
:106EF0000ED100BF00BF21680C3151E8001F21F006
:106F0000100021680C3141E80002002AF3D100BFD3
:106F100000206063206B012804D1A18D2046FFF77B
:106F2000E8FB02E02046FFF7C1FC70BD70B50546E6
:106F30006C6A01206063206B012805D1A08D410897
:106F40002046FFF7D6FB02E02046FFF7B0FC70BDFD
:106F500000BF00BF02680C3252E8002F22F490718B
:106F600002680C3242E80013002BF3D100BF00BFCF
:106F700000BF0268143252E8002F22F001010268BB
:106F8000143242E80013002BF3D100BF016B01293A
:106F90000ED100BF00BF02680C3252E8002F22F071
:106FA000100102680C3242E80013002BF3D100BF3D
:106FB000202180F8421000210163704700BF00BF0C
:106FC00002680C3252E8002F22F0C00102680C3235
:106FD00042E80013002BF3D100BF202180F84110BC
:106FE0007047000070B504462168096921F44051DA
:106FF000E2681143226811612269A1681143626944
:1070000041EA02052168C96841F20C6291432943B3
:107010002268D1602168496921F44071A269114355
:10702000226851612D4A2168914202D1FEF7CEFDBE
:1070300001E0FEF7BBFD00EBC00101EB001162684F
:107040009200B1FBF2F100EBC00202EB00126368A8
:107050009B00B2FBF3F26423B2FBF3F202EBC20338
:1070600003EB0212A1EB8201322202EB0111642236
:10707000B1FBF2F101F0F00100EBC00202EB0012F3
:1070800063689B00B2FBF3F26423B2FBF3F201EB03
:10709000021200EBC00101EB001163689B00B1FB21
:1070A000F3F100EBC00303EB00136668B600B3FB1B
:1070B000F6F36426B3FBF6F303EBC30606EB031308
:1070C000A1EB8301322303EB01116423B1FBF3F144
:1070D00001F00F0111442268916070BD0038014039
:1070E00077B581B0044615460298A062A5850020B8
:1070F0006064222084F842002848E16B88622848B6
:10710000E16BC8622748E16B08630020E16B4863CC
:1071100002AE32682368191D2B46E06BFEF7A0F91A
:1071200000BF002000902068006800902068406840
:10713000009000BF00BF206970B100BF00BF216890
:107140000C3151E8001F41F4807021680C3141E896
:107150000002002AF3D100BF00BF00BF2168143134
:1071600051E8001F41F001002168143141E800029C
:10717000002AF3D100BF00BF00BF2168143151E8DD
:10718000001F41F040002168143141E80002002A4C
:10719000F3D100BF002004B070BD0000796E00087C
:1071A0002D6F0008296E00082DE9F84304460D46AE
:1071B00017469846089E31E0701C70B3FEF752FBEC
:1071C000A0EB0800B04200D816B90320BDE8F88350
:1071D0002068C06800F00400F8B1802D1ED0402D5A
:1071E0001CD020680068C0F3C000B0B100BF002010
:1071F000009020680068009020684068009000BF00
:1072000000BF2046FFF7A4FE0820606400BF0020F6
:1072100084F8400000BF0120D8E7FFE7206800683D
:107220002840A84201D1012000E00020B842C3D08C
:107230000020CBE708B50D4800680068C0F30010D7
:1072400098B100BF002000900848006800680090D6
:10725000064800684068009000BF00BF044800680E
:107260004068C0F580600349488008BD00050020E3
:1072700048050020B400002000BFFEE70FB4054B16
:1072800010B503A9044A029800F034F810BC5DF868
:1072900014FB00004D770008100000200248006831
:1072A000C0F30220704700000CED00E010B500288C
:1072B00004DB0A07130E054A135406E00A07140EEE
:1072C000034A00F00F031B1FD45410BD00E400E07C
:1072D00018ED00E002E008C8121F08C1002AFAD128
:1072E00070477047002001E001C1121F002AFBD146
:1072F000704700002DE9FF4F8DB00F460546002670
:1073000006E025280BD0DDE90F1290476D1C761C96
:1073100028780028F5D111B03046BDE8F08F002460
:10732000A246A1460122E94900E0044315F8013FC5
:10733000203B02FA03F00842F7D128782A2810D01F
:107340006FF02F022878A0F13001092914D80AEB38
:107350008A0102EB410144F0020400EB010A6D1CBA
:10736000F0E701CF5FEA000A03D544F40054CAF104
:10737000000A44F002046D1C28782E2817D115F855
:10738000010F44F004042A280ED06FF02F02287851
:10739000A0F1300109290AD809EB890102EB41016A
:1073A00000EB01096D1CF2E757F8049B6D1C28786F
:1073B0006C280FD006DC4C2817D068280DD06A281E
:1073C00014D104E0742810D07A280FD10DE044F4D1
:1073D00000140AE044F4801401E044F44014697895
:1073E000814202D104F580146D1C6D1C28786E2832
:1073F0001ED00CDC632830D004DC00288BD0582849
:1074000011D19FE0642867D069280CD164E073280B
:107410002DD004DC6F2872D0702804D194E0752838
:107420006ED078286DD0DDE90F129047761C4BE1C5
:10743000C4F30250022806D0032809D0042801CF43
:1074400009D0066040E101CFF117C0E900613BE1DE
:1074500001CF068038E1067036E117F8040B8DF88D
:10746000000000208DF80100EB46012003E057F8F2
:1074700004BB4FF0FF3061074FF0000102D40DE074
:1074800008F10101884649450FDA8045F8DB1BF811
:1074900008100029F4D108E008F101018846814272
:1074A000FADB1BF808100029F6D1DDE90F23AAEB5F
:1074B00008008146214600F031F9304400EB08060F
:1074C00004E0DDE90F121BF8010B9047B8F1010849
:1074D000F7D221464846F2E00A21C4F302524FF0A7
:1074E000000B0891022A04D001CFC117032A09D04A
:1074F0000AE0FF1D27F00707F7E8020108E02CE08B
:107500001EE01FE000B2C117042A01D140B2C1172A
:10751000021E71F1000206DA0023D0EB030063EBD8
:1075200001012D2202E0220504D52B228DF8242012
:10753000012203E0E20701D02022F7E7904653E062
:107540000A210BE0102109E010214FF0000B44F05C
:1075500004044FF00809089103E008214FF0000BE4
:107560000891C4F30252022A04D001CF0021032A59
:1075700006D006E0FF1D27F00707F7E8020103E049
:1075800080B2042A00D1C0B24FF0000822072BD5E8
:107590002A78702A07D0DDF820C08CF0100C5CEA45
:1075A0000B0C05D00EE040228DF82420012208E0CB
:1075B00050EA010306D030238DF824308DF82520C1
:1075C00002229046089B83F0080353EA0B030BD179
:1075D00050EA010201D1620706D530228DF824203D
:1075E0004FF00108A9F101092A78582A04D038A2DD
:1075F0000B9208AA0A920BE03AA2F9E75B46089AB6
:10760000FDF7B4FD0B9B9B5C0A9A521E0A92137005
:1076100050EA0102F2D10A98ADEB000000F1200B14
:10762000600702D524F4803401E04FF00109D94508
:1076300002DDA9EB0B0000E0002000EB0B01414450
:107640000890AAEB010AE00306D4DDE90F232146E6
:10765000504600F063F806444FF0000908E009A91D
:1076600011F80900DDE90F12904709F10109761CB4
:10767000C145F4DBE0030CD5DDE90F23214650467C
:1076800000F04CF8064404E0DDE90F12302090478A
:10769000761C0899481E08900029F5DC08E00A9835
:1076A0000A990078491C0A91DDE90F129047761C6F
:1076B000BBF10001ABF1010BF1DC21465046DDE9E5
:1076C0000F2300F019F806446D1C21E6092801007B
:1076D0003031323334353637383961626364656648
:1076E000000000003031323334353637383941420A
:1076F00043444546000000002DE9F04104460025C2
:107700001E461746880404D405E039462020B047B9
:107710006D1C641EF9D52846BDE8F0812DE9F041C5
:10772000044600251E469046C80301D5302700E0D8
:107730002027880404D505E041463846B0476D1C33
:10774000641EF9D52846BDE8F081000013B50C464B
:107750004FF0FF33012269460248FFF7A9F800986D
:107760001CBD0000B8040020FEF78EF8FFF791FA68
:10777000184819490860FFF717F9FFF7FBF8FFF7FA
:107780008FF9FFF7C5F9FFF7DFF9FFF767F913483E
:10779000FEF7ECFDFFF70AFA1AE04FF4FA70FDF776
:1077A000ADFE4FF480710E48FEF74CF80D4800888E
:1077B0000C49498888420BD00A48FFF724FB04464D
:1077C00008480288001D1118224607A000F014F88E
:1077D000E3E700000050000808ED00E06C00002026
:1077E000000C0140B40000207265763A2025642028
:1077F00062797465000000002DE9F04107460C46EF
:10780000154604B10DB9BDE8F0812A4639460CA0F1
:10781000FFF734FD0EA0FFF731FD002605E0A15D66
:1078200010A0FFF72BFD701C86B2AE42F7DB0CA058
:10783000FFF724FD0DA0FFF721FD00BFE3E70000E7
:107840005B25735D203A5B25645D0D0A0000000036
:107850003D3D3D3D3D3D53544152543D3D3D3D3DFB
:107860000D0A000025303258200000003D3D3D3D0E
:107870003D3D454E443D3D3D3D3D0D0A000000006F
:1078800002030405060708090A0B0C0D0E0F101061
:1078900001020000000000000000010203040607CE
:1078A000080900000000010203040000CC78000871
:1078B0000000002014000000D4720008E0780008E6
:1078C000140000207C090000E472000800000000A1
:1078D000100000000100000000127A00000000000B
:04000005080050EDB2
:00000001FF
